{
  "transactions": [
    {
      "hash": "0xcd7a08a708bceefa062185034674e539cfcdc94030c6aae30394b0cb2fd08802",
      "transactionType": "CALL",
      "contractName": null,
      "contractAddress": "0x5c80ec9703c4eb9491100239793a719cbf4a0bfe",
      "function": "appendRecord((address,uint8,uint64,address,address,bytes32,address,uint256,bytes32,uint8,bytes32),bytes32)",
      "arguments": [
        "(0xe2a5d3EE095de5039D42B00ddc2991BD61E48D55, 3, 16015286601757825753, 0x91a936a3a3e4361e7F5b05270631c5e1d113f0d4, 0x7541cEB8A6db4E8C8a58092e186f9d8ABEDC7Ef2, 0x9d4497cfba2ae74af161dc07fa6332739e3dbfcee43f1c855443f21465a3934a, 0xFd57b4ddBf88a4e07fF4e34C487b99af2Fe82a05, 100000000000000000, 0xb483afd3f4caedc6eebf44246fe54e38c95e3179a5ec9ea81740eca5b482d12e, 1, 0x19b0b460e6ddb186beadd3bd50bc98cb30e516699820f844c81a20747b84e716)",
        "0x1565ebb4fed281ea6a6e4a733da849a21747aaf63757122687d23a9c797109cf"
      ],
      "transaction": {
        "from": "0xe2a5d3ee095de5039d42b00ddc2991bd61e48d55",
        "to": "0x5c80ec9703c4eb9491100239793a719cbf4a0bfe",
        "gas": "0x75404",
        "value": "0x0",
        "input": "0x05cbf102000000000000000000000000e2a5d3ee095de5039d42b00ddc2991bd61e48d550000000000000000000000000000000000000000000000000000000000000003000000000000000000000000000000000000000000000000de41ba4fc9d91ad900000000000000000000000091a936a3a3e4361e7f5b05270631c5e1d113f0d40000000000000000000000007541ceb8a6db4e8c8a58092e186f9d8abedc7ef29d4497cfba2ae74af161dc07fa6332739e3dbfcee43f1c855443f21465a3934a000000000000000000000000fd57b4ddbf88a4e07ff4e34c487b99af2fe82a05000000000000000000000000000000000000000000000000016345785d8a0000b483afd3f4caedc6eebf44246fe54e38c95e3179a5ec9ea81740eca5b482d12e000000000000000000000000000000000000000000000000000000000000000119b0b460e6ddb186beadd3bd50bc98cb30e516699820f844c81a20747b84e7161565ebb4fed281ea6a6e4a733da849a21747aaf63757122687d23a9c797109cf",
        "nonce": "0x89",
        "chainId": "0xaa36a7"
      },
      "additionalContracts": [],
      "isFixedGasLimit": false
    }
  ],
  "receipts": [
    {
      "status": "0x1",
      "cumulativeGasUsed": "0x772c17",
      "logs": [
        {
          "address": "0x5c80ec9703c4eb9491100239793a719cbf4a0bfe",
          "topics": [
            "0xaef6cc0ff23eedb61ccaf330581eaddca1ca879c1eaba41e47829a36c83050c5",
            "0x0000000000000000000000000000000000000000000000000000000000000001",
            "0x000000000000000000000000e2a5d3ee095de5039d42b00ddc2991bd61e48d55",
            "0x0000000000000000000000000000000000000000000000000000000000000003"
          ],
          "data": "0x0000000000000000000000000000000000000000000000000000000000000001000000000000000000000000000000000000000000000000de41ba4fc9d91ad900000000000000000000000091a936a3a3e4361e7f5b05270631c5e1d113f0d40000000000000000000000007541ceb8a6db4e8c8a58092e186f9d8abedc7ef29d4497cfba2ae74af161dc07fa6332739e3dbfcee43f1c855443f21465a3934a1565ebb4fed281ea6a6e4a733da849a21747aaf63757122687d23a9c797109cf",
          "blockHash": "0xf469ceeddaf4ced4716e528341ed19aa025b6b65638a196e27b6284c0c8c5ab2",
          "blockNumber": "0x9d6c90",
          "blockTimestamp": "0x699ba39c",
          "transactionHash": "0xcd7a08a708bceefa062185034674e539cfcdc94030c6aae30394b0cb2fd08802",
          "transactionIndex": "0x3d",
          "logIndex": "0x7b",
          "removed": false
        }
      ],
      "logsBloom": "0x00000000000000000000000000000000000000000000000000000000000080000000000000000000000000000000000000000400020000000000000000048000000000000000000000000000000000000000000000040000000000000000000000000000000000000000000000000020000000000000000400000000000000000000000000040000000000000000000000000000000000000000000000000000000000000000000000000000000000000000000000800000000000000000400000000000000000040000000000000000000000010000000000000000000040000000000000000000000000000000000000000200000000000000000000000000",
      "type": "0x2",
      "transactionHash": "0xcd7a08a708bceefa062185034674e539cfcdc94030c6aae30394b0cb2fd08802",
      "transactionIndex": "0x3d",
      "blockHash": "0xf469ceeddaf4ced4716e528341ed19aa025b6b65638a196e27b6284c0c8c5ab2",
      "blockNumber": "0x9d6c90",
      "gasUsed": "0x54e34",
      "effectiveGasPrice": "0xf508a",
      "from": "0xe2a5d3ee095de5039d42b00ddc2991bd61e48d55",
      "to": "0x5c80ec9703c4eb9491100239793a719cbf4a0bfe",
      "contractAddress": null
    }
  ],
  "libraries": [],
  "pending": [],
  "returns": {
    "recordId": {
      "internal_type": "uint256",
      "value": "1"
    }
  },
  "timestamp": 1771807646159,
  "chain": 11155111,
  "commit": "0187095"
}