{
  "transactions": [
    {
      "hash": "0xcd6128cbdd9615307b8447cdeedc1e02e13fd82652ae9c0443e70f9a2603c199",
      "transactionType": "CALL",
      "contractName": null,
      "contractAddress": "0x91a936a3a3e4361e7f5b05270631c5e1d113f0d4",
      "function": "performUpkeep(bytes)",
      "arguments": [
        "0x000000000000000000000000000000000000000000000000000000000000002000000000000000000000000000000000000000000000000000000000000000010000000000000000000000000000000000000000000000000000000000000002"
      ],
      "transaction": {
        "from": "0xe2a5d3ee095de5039d42b00ddc2991bd61e48d55",
        "to": "0x91a936a3a3e4361e7f5b05270631c5e1d113f0d4",
        "gas": "0x84714",
        "value": "0x0",
        "input": "0x4585e33b00000000000000000000000000000000000000000000000000000000000000200000000000000000000000000000000000000000000000000000000000000060000000000000000000000000000000000000000000000000000000000000002000000000000000000000000000000000000000000000000000000000000000010000000000000000000000000000000000000000000000000000000000000002",
        "nonce": "0x85",
        "chainId": "0xaa36a7"
      },
      "additionalContracts": [],
      "isFixedGasLimit": false
    }
  ],
  "receipts": [
    {
      "status": "0x1",
      "cumulativeGasUsed": "0x41f592",
      "logs": [
        {
          "address": "0x91a936a3a3e4361e7f5b05270631c5e1d113f0d4",
          "topics": [
            "0xe455e42a7cb2906ead85e89d1f0cb3071de5a1ccabc97956c9389b3780370c51",
            "0x000000000000000000000000e2a5d3ee095de5039d42b00ddc2991bd61e48d55"
          ],
          "data": "0x0000000000000000000000000000000000000000000000000000000000000001",
          "blockHash": "0x616ea9591fed3b703998092bde5b176dbce2659392bdbdad29a9bebd093bf1f2",
          "blockNumber": "0x9d52d6",
          "blockTimestamp": "0x699a64e8",
          "transactionHash": "0xcd6128cbdd9615307b8447cdeedc1e02e13fd82652ae9c0443e70f9a2603c199",
          "transactionIndex": "0x39",
          "logIndex": "0x47",
          "removed": false
        },
        {
          "address": "0x779877a7b0d9e8603169ddbd7836e478b4624789",
          "topics": [
            "0x8c5be1e5ebec7d5bd14f71427d1e84f3dd0314c0f7b2291e5b200ac8c7c3b925",
            "0x00000000000000000000000091a936a3a3e4361e7f5b05270631c5e1d113f0d4",
            "0x0000000000000000000000000bf3de8c5d3e8a2b34d2beeb17abfcebaf363a59"
          ],
          "data": "0x000000000000000000000000000000000000000000000000007544c62602d616",
          "blockHash": "0x616ea9591fed3b703998092bde5b176dbce2659392bdbdad29a9bebd093bf1f2",
          "blockNumber": "0x9d52d6",
          "blockTimestamp": "0x699a64e8",
          "transactionHash": "0xcd6128cbdd9615307b8447cdeedc1e02e13fd82652ae9c0443e70f9a2603c199",
          "transactionIndex": "0x39",
          "logIndex": "0x48",
          "removed": false
        },
        {
          "address": "0xfd57b4ddbf88a4e07ff4e34c487b99af2fe82a05",
          "topics": [
            "0x8c5be1e5ebec7d5bd14f71427d1e84f3dd0314c0f7b2291e5b200ac8c7c3b925",
            "0x00000000000000000000000091a936a3a3e4361e7f5b05270631c5e1d113f0d4",
            "0x0000000000000000000000000bf3de8c5d3e8a2b34d2beeb17abfcebaf363a59"
          ],
          "data": "0x000000000000000000000000000000000000000000000000016345785d8a0000",
          "blockHash": "0x616ea9591fed3b703998092bde5b176dbce2659392bdbdad29a9bebd093bf1f2",
          "blockNumber": "0x9d52d6",
          "blockTimestamp": "0x699a64e8",
          "transactionHash": "0xcd6128cbdd9615307b8447cdeedc1e02e13fd82652ae9c0443e70f9a2603c199",
          "transactionIndex": "0x39",
          "logIndex": "0x49",
          "removed": false
        },
        {
          "address": "0x779877a7b0d9e8603169ddbd7836e478b4624789",
          "topics": [
            "0xddf252ad1be2c89b69c2b068fc378daa952ba7f163c4a11628f55a4df523b3ef",
            "0x00000000000000000000000091a936a3a3e4361e7f5b05270631c5e1d113f0d4",
            "0x000000000000000000000000f9765c80f6448e6d4d02bef4a6b4152131a2f513"
          ],
          "data": "0x000000000000000000000000000000000000000000000000007544c62602d616",
          "blockHash": "0x616ea9591fed3b703998092bde5b176dbce2659392bdbdad29a9bebd093bf1f2",
          "blockNumber": "0x9d52d6",
          "blockTimestamp": "0x699a64e8",
          "transactionHash": "0xcd6128cbdd9615307b8447cdeedc1e02e13fd82652ae9c0443e70f9a2603c199",
          "transactionIndex": "0x39",
          "logIndex": "0x4a",
          "removed": false
        },
        {
          "address": "0x779877a7b0d9e8603169ddbd7836e478b4624789",
          "topics": [
            "0x8c5be1e5ebec7d5bd14f71427d1e84f3dd0314c0f7b2291e5b200ac8c7c3b925",
            "0x00000000000000000000000091a936a3a3e4361e7f5b05270631c5e1d113f0d4",
            "0x0000000000000000000000000bf3de8c5d3e8a2b34d2beeb17abfcebaf363a59"
          ],
          "data": "0x0000000000000000000000000000000000000000000000000000000000000000",
          "blockHash": "0x616ea9591fed3b703998092bde5b176dbce2659392bdbdad29a9bebd093bf1f2",
          "blockNumber": "0x9d52d6",
          "blockTimestamp": "0x699a64e8",
          "transactionHash": "0xcd6128cbdd9615307b8447cdeedc1e02e13fd82652ae9c0443e70f9a2603c199",
          "transactionIndex": "0x39",
          "logIndex": "0x4b",
          "removed": false
        },
        {
          "address": "0xfd57b4ddbf88a4e07ff4e34c487b99af2fe82a05",
          "topics": [
            "0x8c5be1e5ebec7d5bd14f71427d1e84f3dd0314c0f7b2291e5b200ac8c7c3b925",
            "0x00000000000000000000000091a936a3a3e4361e7f5b05270631c5e1d113f0d4",
            "0x0000000000000000000000000bf3de8c5d3e8a2b34d2beeb17abfcebaf363a59"
          ],
          "data": "0x0000000000000000000000000000000000000000000000000000000000000000",
          "blockHash": "0x616ea9591fed3b703998092bde5b176dbce2659392bdbdad29a9bebd093bf1f2",
          "blockNumber": "0x9d52d6",
          "blockTimestamp": "0x699a64e8",
          "transactionHash": "0xcd6128cbdd9615307b8447cdeedc1e02e13fd82652ae9c0443e70f9a2603c199",
          "transactionIndex": "0x39",
          "logIndex": "0x4c",
          "removed": false
        },
        {
          "address": "0xfd57b4ddbf88a4e07ff4e34c487b99af2fe82a05",
          "topics": [
            "0xddf252ad1be2c89b69c2b068fc378daa952ba7f163c4a11628f55a4df523b3ef",
            "0x00000000000000000000000091a936a3a3e4361e7f5b05270631c5e1d113f0d4",
            "0x0000000000000000000000004ccbdd6cf18800360161e4d2a519a2047176bdf0"
          ],
          "data": "0x000000000000000000000000000000000000000000000000016345785d8a0000",
          "blockHash": "0x616ea9591fed3b703998092bde5b176dbce2659392bdbdad29a9bebd093bf1f2",
          "blockNumber": "0x9d52d6",
          "blockTimestamp": "0x699a64e8",
          "transactionHash": "0xcd6128cbdd9615307b8447cdeedc1e02e13fd82652ae9c0443e70f9a2603c199",
          "transactionIndex": "0x39",
          "logIndex": "0x4d",
          "removed": false
        },
        {
          "address": "0x4ccbdd6cf18800360161e4d2a519a2047176bdf0",
          "topics": [
            "0x1871cdf8010e63f2eb8384381a68dfa7416dc571a5517e66e88b2d2d0c0a690a"
          ],
          "data": "0x000000000000000000000000000000000000000000000000016345785d8a0000",
          "blockHash": "0x616ea9591fed3b703998092bde5b176dbce2659392bdbdad29a9bebd093bf1f2",
          "blockNumber": "0x9d52d6",
          "blockTimestamp": "0x699a64e8",
          "transactionHash": "0xcd6128cbdd9615307b8447cdeedc1e02e13fd82652ae9c0443e70f9a2603c199",
          "transactionIndex": "0x39",
          "logIndex": "0x4e",
          "removed": false
        },
        {
          "address": "0xfd57b4ddbf88a4e07ff4e34c487b99af2fe82a05",
          "topics": [
            "0xddf252ad1be2c89b69c2b068fc378daa952ba7f163c4a11628f55a4df523b3ef",
            "0x0000000000000000000000004ccbdd6cf18800360161e4d2a519a2047176bdf0",
            "0x0000000000000000000000000000000000000000000000000000000000000000"
          ],
          "data": "0x000000000000000000000000000000000000000000000000016345785d8a0000",
          "blockHash": "0x616ea9591fed3b703998092bde5b176dbce2659392bdbdad29a9bebd093bf1f2",
          "blockNumber": "0x9d52d6",
          "blockTimestamp": "0x699a64e8",
          "transactionHash": "0xcd6128cbdd9615307b8447cdeedc1e02e13fd82652ae9c0443e70f9a2603c199",
          "transactionIndex": "0x39",
          "logIndex": "0x4f",
          "removed": false
        },
        {
          "address": "0x4ccbdd6cf18800360161e4d2a519a2047176bdf0",
          "topics": [
            "0x696de425f79f4a40bc6d2122ca50507f0efbeabbff86a84871b7196ab8ea8df7",
            "0x000000000000000000000000f9765c80f6448e6d4d02bef4a6b4152131a2f513"
          ],
          "data": "0x000000000000000000000000000000000000000000000000016345785d8a0000",
          "blockHash": "0x616ea9591fed3b703998092bde5b176dbce2659392bdbdad29a9bebd093bf1f2",
          "blockNumber": "0x9d52d6",
          "blockTimestamp": "0x699a64e8",
          "transactionHash": "0xcd6128cbdd9615307b8447cdeedc1e02e13fd82652ae9c0443e70f9a2603c199",
          "transactionIndex": "0x39",
          "logIndex": "0x50",
          "removed": false
        },
        {
          "address": "0xf9765c80f6448e6d4d02bef4a6b4152131a2f513",
          "topics": [
            "0xd0c3c799bf9e2639de44391e7f524d229b2b55f5b1ea94b2bf7da42f7243dddd"
          ],
          "data": "0x0000000000000000000000000000000000000000000000000000000000000020000000000000000000000000000000000000000000000000de41ba4fc9d91ad900000000000000000000000091a936a3a3e4361e7f5b05270631c5e1d113f0d40000000000000000000000007541ceb8a6db4e8c8a58092e186f9d8abedc7ef200000000000000000000000000000000000000000000000000000000000010c4000000000000000000000000000000000000000000000000000000000007a12000000000000000000000000000000000000000000000000000000000000000000000000000000000000000000000000000000000000000000000000000000003000000000000000000000000779877a7b0d9e8603169ddbd7836e478b4624789000000000000000000000000000000000000000000000000007544c62602d61600000000000000000000000000000000000000000000000000000000000001a000000000000000000000000000000000000000000000000000000000000002e000000000000000000000000000000000000000000000000000000000000003401bada16e07beadbc88b5a9e227ed90166648551e0e00bd800343113cd477089d00000000000000000000000000000000000000000000000000000000000001200000000000000000000000000000000000000000000000000000000000000040000000000000000000000000e2a5d3ee095de5039d42b00ddc2991bd61e48d55000000000000000000000000b3ccdfcc821fc7693e0cbf4b352f7ca51b33c89b000000000000000000000000000000000000000000000000000000000000008000000000000000000000000000000000000000000000000000000000000000c000000000000000000000000000000000000000000000000000000000699a72f800000000000000000000000000000000000000000000000000000000000000087472616e7366657200000000000000000000000000000000000000000000000000000000000000000000000000000000000000000000000000000000000000000000000000000000000000000000000000000000000000000000000000000001000000000000000000000000fd57b4ddbf88a4e07ff4e34c487b99af2fe82a05000000000000000000000000000000000000000000000000016345785d8a00000000000000000000000000000000000000000000000000000000000000000001000000000000000000000000000000000000000000000000000000000000002000000000000000000000000000000000000000000000000000000000000001600000000000000000000000000000000000000000000000000000000000000020000000000000000000000000000000000000000000000000000000000000008000000000000000000000000000000000000000000000000000000000000000c000000000000000000000000000000000000000000000000000000000000001000000000000000000000000000000000000000000000000000000000000015f9000000000000000000000000000000000000000000000000000000000000000200000000000000000000000004ccbdd6cf18800360161e4d2a519a2047176bdf00000000000000000000000000000000000000000000000000000000000000020000000000000000000000000cab0ef91bee323d1a617c0a027ee753afd6997e400000000000000000000000000000000000000000000000000000000000000200000000000000000000000000000000000000000000000000000000000000012",
          "blockHash": "0x616ea9591fed3b703998092bde5b176dbce2659392bdbdad29a9bebd093bf1f2",
          "blockNumber": "0x9d52d6",
          "blockTimestamp": "0x699a64e8",
          "transactionHash": "0xcd6128cbdd9615307b8447cdeedc1e02e13fd82652ae9c0443e70f9a2603c199",
          "transactionIndex": "0x39",
          "logIndex": "0x51",
          "removed": false
        },
        {
          "address": "0x91a936a3a3e4361e7f5b05270631c5e1d113f0d4",
          "topics": [
            "0xa68f0fed6ce717d7df1fce25f4346a6d8aaf28912bca40762a0ba2ea9443d6a5",
            "0x0000000000000000000000000000000000000000000000000000000000000002",
            "0x1bada16e07beadbc88b5a9e227ed90166648551e0e00bd800343113cd477089d"
          ],
          "data": "0x000000000000000000000000fd57b4ddbf88a4e07ff4e34c487b99af2fe82a05000000000000000000000000000000000000000000000000016345785d8a00000000000000000000000000000000000000000000000000000000000000000001",
          "blockHash": "0x616ea9591fed3b703998092bde5b176dbce2659392bdbdad29a9bebd093bf1f2",
          "blockNumber": "0x9d52d6",
          "blockTimestamp": "0x699a64e8",
          "transactionHash": "0xcd6128cbdd9615307b8447cdeedc1e02e13fd82652ae9c0443e70f9a2603c199",
          "transactionIndex": "0x39",
          "logIndex": "0x52",
          "removed": false
        },
        {
          "address": "0x91a936a3a3e4361e7f5b05270631c5e1d113f0d4",
          "topics": [
            "0x30e6eb642a6ddac1c044bb549caf35055324eb9346467a409890c6dbb7feb809"
          ],
          "data": "0x000000000000000000000000000000000000000000000000000000000000000100000000000000000000000000000000000000000000000000000000000000010000000000000000000000000000000000000000000000000000000000000000",
          "blockHash": "0x616ea9591fed3b703998092bde5b176dbce2659392bdbdad29a9bebd093bf1f2",
          "blockNumber": "0x9d52d6",
          "blockTimestamp": "0x699a64e8",
          "transactionHash": "0xcd6128cbdd9615307b8447cdeedc1e02e13fd82652ae9c0443e70f9a2603c199",
          "transactionIndex": "0x39",
          "logIndex": "0x53",
          "removed": false
        }
      ],
      "logsBloom": "0x04400007000040000000002000200000000000000000000000000000000080000000200000000000002000000000000000000000000000000000000000208000000000008100020000000008101000000000000000000000000000080000400000000000060100000000004000000802040000100200000400000050000400000000000000002000000000000000800000000000800008000000000000000000020000000000084440000900000000080000000000000000000100000000200000200002000000000000000000000000000100000010000120000000002020000010000000000000000000000000240004000000008004000000000000002000",
      "type": "0x2",
      "transactionHash": "0xcd6128cbdd9615307b8447cdeedc1e02e13fd82652ae9c0443e70f9a2603c199",
      "transactionIndex": "0x39",
      "blockHash": "0x616ea9591fed3b703998092bde5b176dbce2659392bdbdad29a9bebd093bf1f2",
      "blockNumber": "0x9d52d6",
      "gasUsed": "0x5a8f2",
      "effectiveGasPrice": "0xf4248",
      "from": "0xe2a5d3ee095de5039d42b00ddc2991bd61e48d55",
      "to": "0x91a936a3a3e4361e7f5b05270631c5e1d113f0d4",
      "contractAddress": null
    }
  ],
  "libraries": [],
  "pending": [],
  "returns": {},
  "timestamp": 1771726058032,
  "chain": 11155111,
  "commit": "13d36df"
}