{
  "transactions": [
    {
      "hash": "0x90297753e496a76b83811507ffe5fb22c4b67d50e1fa8d64a06f719b15b77053",
      "transactionType": "CREATE",
      "contractName": "MessagingReceiver",
      "contractAddress": "0x78aeed6279a58398a583ecc612a306b80d1c4857",
      "function": null,
      "arguments": [
        "0x9C32fCB86BF0f4a1A8921a9Fe46de3198bb884B2"
      ],
      "transaction": {
        "from": "0xe2a5d3ee095de5039d42b00ddc2991bd61e48d55",
        "gas": "0x1d5c30",
        "value": "0x0",
        "input": "0x60a060405234801561000f575f5ffd5b50604051611a5b380380611a5b83398101604081905261002e91610137565b33816001600160a01b03811661005e576040516335fdcccd60e21b81525f60048201526024015b60405180910390fd5b6001600160a01b03908116608052811661008d57604051631e4fbdf760e01b81525f6004820152602401610055565b610096816100e8565b5060017f9b779b17422d0df92223018b32b4d1fa46e071723d6817e2486d003becc55f00556001600160a01b0381166100e25760405163d92e233d60e01b815260040160405180910390fd5b50610164565b5f80546001600160a01b038381166001600160a01b0319831681178455604051919092169283917f8be0079c531659141344cd1fd0a4f28419497f9722a3daafe3b4186f6b6457e09190a35050565b5f60208284031215610147575f5ffd5b81516001600160a01b038116811461015d575f5ffd5b9392505050565b6080516118d86101835f395f8181610220015261065a01526118d85ff3fe608060405234801561000f575f5ffd5b5060043610610111575f3560e01c80639d17b9c51161009e578063db04fa491161006e578063db04fa491461026a578063e5711e8b1461027d578063f039a00914610290578063f2fde38b146102a3578063f69f8151146102b6575f5ffd5b80639d17b9c51461020b578063b0f479a11461021e578063c887624414610244578063cd3e126614610257575f5ffd5b80634030d521116100e45780634030d521146101a05780636a2e06ee146101c2578063715018a6146101ca57806385572ffb146101d45780638da5cb5b146101e7575f5ffd5b80630139a2211461011557806301ffc9a71461013e57806331933916146101615780633d408d3714610173575b5f5ffd5b6101286101233660046110ff565b6102db565b6040516101359190611178565b60405180910390f35b61015161014c3660046111e8565b610434565b6040519015158152602001610135565b6004545b604051908152602001610135565b610151610181366004611245565b600260209081525f928352604080842090915290825290205460ff1681565b6101516101ae36600461127a565b60016020525f908152604090205460ff1681565b61012861046a565b6101d261063c565b005b6101d26101e2366004611293565b61064f565b5f546001600160a01b03165b6040516001600160a01b039091168152602001610135565b6101656102193660046110ff565b6106ae565b7f00000000000000000000000000000000000000000000000000000000000000006101f3565b6101d26102523660046110ff565b6106cd565b6101d26102653660046110ff565b6107a1565b6101d26102783660046112d8565b61095f565b6101d261028b366004611309565b6109be565b6101d261029e366004611347565b610a53565b6101d26102b1366004611389565b610aef565b6102c96102c43660046110ff565b610b29565b604051610135969594939291906113a4565b61030f6040805160c0810182525f80825260208201819052918101829052606080820152608081018290529060a082015290565b5f82815260036020908152604091829020825160c0810184528154815260018201546001600160401b03811693820193909352600160401b9092046001600160a01b031692820192909252600282018054919291606084019190610372906113fc565b80601f016020809104026020016040519081016040528092919081815260200182805461039e906113fc565b80156103e95780601f106103c0576101008083540402835291602001916103e9565b820191905f5260205f20905b8154815290600101906020018083116103cc57829003601f168201915b50505091835250506003828101546020830152600483015460409092019160ff169081111561041a5761041a611144565b600381111561042b5761042b611144565b90525092915050565b5f6001600160e01b031982166385572ffb60e01b148061046457506001600160e01b031982166301ffc9a760e01b145b92915050565b61049e6040805160c0810182525f80825260208201819052918101829052606080820152608081018290529060a082015290565b6004546104e95760405162461bcd60e51b8152602060048201526014602482015273139bc81b595cdcd859d95cc81c9958d95a5d995960621b60448201526064015b60405180910390fd5b600480546003915f916104fe90600190611434565b8154811061050e5761050e611453565b5f9182526020808320919091015483528281019390935260409182019020815160c0810183528154815260018201546001600160401b03811694820194909452600160401b9093046001600160a01b03169183019190915260028101805460608401919061057b906113fc565b80601f01602080910402602001604051908101604052809291908181526020018280546105a7906113fc565b80156105f25780601f106105c9576101008083540402835291602001916105f2565b820191905f5260205f20905b8154815290600101906020018083116105d557829003601f168201915b50505091835250506003828101546020830152600483015460409092019160ff169081111561062357610623611144565b600381111561063457610634611144565b905250919050565b610644610bff565b61064d5f610c2b565b565b336001600160a01b037f0000000000000000000000000000000000000000000000000000000000000000161461069a576040516335fdcccd60e21b81523360048201526024016104e0565b6106ab6106a68261161a565b610c7a565b50565b600481815481106106bd575f80fd5b5f91825260209091200154905081565b6106d5610f46565b3330148015906106ef57505f546001600160a01b03163314155b1561070f5760405163d86ad9cf60e01b81523360048201526024016104e0565b5f818152600360205260409020805461073e57604051632ec01e6560e11b8152600481018390526024016104e0565b60048101805460ff1916600217905560405182907f1915d13f149e2654a02a939345885f8654759bd3347d96fe012c6913df7f86b8905f90a2506106ab60017f9b779b17422d0df92223018b32b4d1fa46e071723d6817e2486d003becc55f0055565b6107a9610bff565b5f818152600360205260409020546107d757604051632ec01e6560e11b8152600481018290526024016104e0565b604051339082907f23b27afda385de6f0060c2f52b1c98ad45fed026a3a6d93423b0858a25db062f905f90a3604051633221d89160e21b815260048101829052309063c8876244906024015f604051808303815f87803b158015610839575f5ffd5b505af192505050801561084a575060015b610911573d808015610877576040519150601f19603f3d011682016040523d82523d5f602084013e61087c565b606091505b505f828152600360208190526040808320600401805460ff19169092179091555183917f51cc14c4e4015dc247d8793848b64934829b4695098951cb1b60212c95b6e012916108cd919085906116cb565b60405180910390a2817f8da36757304218e07c0e3cb7d4523fbc93c207bac925bac5de7902aaccf252d68260405161090591906116ed565b60405180910390a25050565b807f51cc14c4e4015dc247d8793848b64934829b4695098951cb1b60212c95b6e012600160405161095491151581526040602082018190525f9082015260600190565b60405180910390a250565b610967610bff565b6001600160401b0382165f81815260016020908152604091829020805460ff191685151590811790915591519182527f1792cf82ab5a84d3a3694d8eb55ceb2c81f20e473604e72a0a63c83312c318b89101610905565b6109c6610bff565b6001600160a01b0382166109ed5760405163d92e233d60e01b815260040160405180910390fd5b610a016001600160a01b0384168383610f74565b816001600160a01b0316836001600160a01b03167f4143f7b5cb6ea007914c32b8a3e64cebc051d7f493fa0755454da1e47701e12583604051610a4691815260200190565b60405180910390a3505050565b610a5b610bff565b6001600160a01b038216610a825760405163d92e233d60e01b815260040160405180910390fd5b6001600160401b0383165f8181526002602090815260408083206001600160a01b03871680855290835292819020805460ff191686151590811790915590519081529192917f9a239a399a3630c36025f8c4b64b701240016edc1e1fdb83741c0c52f5d743d79101610a46565b610af7610bff565b6001600160a01b038116610b2057604051631e4fbdf760e01b81525f60048201526024016104e0565b6106ab81610c2b565b60036020525f908152604090208054600182015460028301805492936001600160401b03831693600160401b9093046001600160a01b031692909190610b6e906113fc565b80601f0160208091040260200160405190810160405280929190818152602001828054610b9a906113fc565b8015610be55780601f10610bbc57610100808354040283529160200191610be5565b820191905f5260205f20905b815481529060010190602001808311610bc857829003601f168201915b50505050600383015460049093015491929160ff16905086565b5f546001600160a01b0316331461064d5760405163118cdaa760e01b81523360048201526024016104e0565b5f80546001600160a01b038381166001600160a01b0319831681178455604051919092169283917f8be0079c531659141344cd1fd0a4f28419497f9722a3daafe3b4186f6b6457e09190a35050565b8060200151610c8881610fae565b81602001518260400151806020019051810190610ca591906116ff565b610caf8282610ff1565b8351604085015180515f91610ccc918101602090810191016116ff565b90505f8660600151806020019051810190610ce7919061171a565b90506040518060c0016040528084815260200188602001516001600160401b03168152602001836001600160a01b0316815260200182815260200142815260200160016003811115610d3b57610d3b611144565b90525f848152600360209081526040918290208351815590830151600182018054938501516001600160a01b0316600160401b026001600160e01b03199094166001600160401b03909216919091179290921790915560608201516002820190610da590826117e4565b506080820151816003015560a0820151816004015f6101000a81548160ff02191690836003811115610dd957610dd9611144565b021790555050600480546001810182555f919091527f8a35acfbc15ff81a39ae7d344fd709f28e8600b4aa8c65c6b64bfe7fe36bd19b018490555060208701516040516001600160a01b038416916001600160401b03169085907fb1e312a29937cc11967b0e4a346fef1ae132424ebaba9dc6d90249dba053e87c90610e609086906116ed565b60405180910390a4604051633221d89160e21b815260048101849052309063c8876244906024015f604051808303815f87803b158015610e9e575f5ffd5b505af1925050508015610eaf575060015b610f3d573d808015610edc576040519150601f19603f3d011682016040523d82523d5f602084013e610ee1565b606091505b505f848152600360208190526040909120600401805460ff19166001830217905550837f8da36757304218e07c0e3cb7d4523fbc93c207bac925bac5de7902aaccf252d682604051610f3391906116ed565b60405180910390a2505b50505050505050565b610f4e61105b565b60027f9b779b17422d0df92223018b32b4d1fa46e071723d6817e2486d003becc55f0055565b610f81838383600161109d565b610fa957604051635274afe760e01b81526001600160a01b03841660048201526024016104e0565b505050565b6001600160401b0381165f9081526001602052604090205460ff166106ab576040516326bfad9160e21b81526001600160401b03821660048201526024016104e0565b6001600160401b0382165f9081526002602090815260408083206001600160a01b038516845290915290205460ff166110575760405163338aab5d60e11b81526001600160401b03831660048201526001600160a01b03821660248201526044016104e0565b5050565b7f9b779b17422d0df92223018b32b4d1fa46e071723d6817e2486d003becc55f005460020361064d57604051633ee5aeb560e01b815260040160405180910390fd5b60405163a9059cbb60e01b5f8181526001600160a01b038616600452602485905291602083604481808b5af1925060015f511483166110f35783831516156110e7573d5f823e3d81fd5b5f873b113d1516831692505b60405250949350505050565b5f6020828403121561110f575f5ffd5b5035919050565b5f81518084528060208401602086015e5f602082860101526020601f19601f83011685010191505092915050565b634e487b7160e01b5f52602160045260245ffd5b6004811061117457634e487b7160e01b5f52602160045260245ffd5b9052565b60208152815160208201526001600160401b03602083015116604082015260018060a01b0360408301511660608201525f606083015160c060808401526111c260e0840182611116565b9050608084015160a084015260a08401516111e060c0850182611158565b509392505050565b5f602082840312156111f8575f5ffd5b81356001600160e01b03198116811461120f575f5ffd5b9392505050565b80356001600160401b038116811461122c575f5ffd5b919050565b6001600160a01b03811681146106ab575f5ffd5b5f5f60408385031215611256575f5ffd5b61125f83611216565b9150602083013561126f81611231565b809150509250929050565b5f6020828403121561128a575f5ffd5b61120f82611216565b5f602082840312156112a3575f5ffd5b81356001600160401b038111156112b8575f5ffd5b820160a0818503121561120f575f5ffd5b8035801515811461122c575f5ffd5b5f5f604083850312156112e9575f5ffd5b6112f283611216565b9150611300602084016112c9565b90509250929050565b5f5f5f6060848603121561131b575f5ffd5b833561132681611231565b9250602084013561133681611231565b929592945050506040919091013590565b5f5f5f60608486031215611359575f5ffd5b61136284611216565b9250602084013561137281611231565b9150611380604085016112c9565b90509250925092565b5f60208284031215611399575f5ffd5b813561120f81611231565b8681526001600160401b03861660208201526001600160a01b038516604082015260c0606082018190525f906113dc90830186611116565b90508360808301526113f160a0830184611158565b979650505050505050565b600181811c9082168061141057607f821691505b60208210810361142e57634e487b7160e01b5f52602260045260245ffd5b50919050565b8181038181111561046457634e487b7160e01b5f52601160045260245ffd5b634e487b7160e01b5f52603260045260245ffd5b634e487b7160e01b5f52604160045260245ffd5b604080519081016001600160401b038111828210171561149d5761149d611467565b60405290565b60405160a081016001600160401b038111828210171561149d5761149d611467565b604051601f8201601f191681016001600160401b03811182821017156114ed576114ed611467565b604052919050565b5f6001600160401b0382111561150d5761150d611467565b50601f01601f191660200190565b5f82601f83011261152a575f5ffd5b813561153d611538826114f5565b6114c5565b818152846020838601011115611551575f5ffd5b816020850160208301375f918101602001919091529392505050565b5f82601f83011261157c575f5ffd5b81356001600160401b0381111561159557611595611467565b6115a460208260051b016114c5565b8082825260208201915060208360061b8601019250858311156115c5575f5ffd5b602085015b8381101561161057604081880312156115e1575f5ffd5b6115e961147b565b81356115f481611231565b81526020828101358183015290845292909201916040016115ca565b5095945050505050565b5f60a0823603121561162a575f5ffd5b6116326114a3565b8235815261164260208401611216565b602082015260408301356001600160401b0381111561165f575f5ffd5b61166b3682860161151b565b60408301525060608301356001600160401b03811115611689575f5ffd5b6116953682860161151b565b60608301525060808301356001600160401b038111156116b3575f5ffd5b6116bf3682860161156d565b60808301525092915050565b8215158152604060208201525f6116e56040830184611116565b949350505050565b602081525f61120f6020830184611116565b5f6020828403121561170f575f5ffd5b815161120f81611231565b5f6020828403121561172a575f5ffd5b81516001600160401b0381111561173f575f5ffd5b8201601f8101841361174f575f5ffd5b805161175d611538826114f5565b818152856020838501011115611771575f5ffd5b8160208401602083015e5f91810160200191909152949350505050565b601f821115610fa95782821115610fa957805f5260205f20601f840160051c60208510156117b957505f5b90810190601f840160051c035f5b818110156117dc575f838201556001016117c7565b505050505050565b81516001600160401b038111156117fd576117fd611467565b6118118161180b84546113fc565b8461178e565b6020601f821160018114611843575f831561182c5750848201515b5f19600385901b1c1916600184901b17845561189b565b5f84815260208120601f198516915b828110156118725787850151825560209485019460019092019101611852565b508482101561188f57868401515f19600387901b60f8161c191681555b505060018360011b0184555b505050505056fea2646970667358221220d40d28c986b34aeb816270f95699ae96e4c4123b719f46af84b4e6e9990e27c064736f6c634300082100330000000000000000000000009c32fcb86bf0f4a1a8921a9fe46de3198bb884b2",
        "nonce": "0x12",
        "chainId": "0x13882"
      },
      "additionalContracts": [],
      "isFixedGasLimit": false
    },
    {
      "hash": "0x0aa171ae68d7fa1d2c78c420e4d5b9c5a8a30ddfe9c278f7066ecd11bf791019",
      "transactionType": "CALL",
      "contractName": "MessagingReceiver",
      "contractAddress": "0x78aeed6279a58398a583ecc612a306b80d1c4857",
      "function": "allowlistSourceChain(uint64,bool)",
      "arguments": [
        "16015286601757825753",
        "true"
      ],
      "transaction": {
        "from": "0xe2a5d3ee095de5039d42b00ddc2991bd61e48d55",
        "to": "0x78aeed6279a58398a583ecc612a306b80d1c4857",
        "gas": "0x10147",
        "value": "0x0",
        "input": "0xdb04fa49000000000000000000000000000000000000000000000000de41ba4fc9d91ad90000000000000000000000000000000000000000000000000000000000000001",
        "nonce": "0x13",
        "chainId": "0x13882"
      },
      "additionalContracts": [],
      "isFixedGasLimit": false
    },
    {
      "hash": "0xe605295d23fbcffb667b6868b7439227332e8764e0d4360cc96ccfdf56adf090",
      "transactionType": "CALL",
      "contractName": "MessagingReceiver",
      "contractAddress": "0x78aeed6279a58398a583ecc612a306b80d1c4857",
      "function": "allowlistSender(uint64,address,bool)",
      "arguments": [
        "16015286601757825753",
        "0x294ad4C5EB57A83bf13f2A92a5EaeDCe8d07acc9",
        "true"
      ],
      "transaction": {
        "from": "0xe2a5d3ee095de5039d42b00ddc2991bd61e48d55",
        "to": "0x78aeed6279a58398a583ecc612a306b80d1c4857",
        "gas": "0x106b8",
        "value": "0x0",
        "input": "0xf039a009000000000000000000000000000000000000000000000000de41ba4fc9d91ad9000000000000000000000000294ad4c5eb57a83bf13f2a92a5eaedce8d07acc90000000000000000000000000000000000000000000000000000000000000001",
        "nonce": "0x14",
        "chainId": "0x13882"
      },
      "additionalContracts": [],
      "isFixedGasLimit": false
    },
    {
      "hash": "0x78757f3e96d4997f7840bed7a7bc0283354373327229de346634c32474c15ee9",
      "transactionType": "CALL",
      "contractName": "MessagingReceiver",
      "contractAddress": "0x78aeed6279a58398a583ecc612a306b80d1c4857",
      "function": "allowlistSourceChain(uint64,bool)",
      "arguments": [
        "3478487238524512106",
        "true"
      ],
      "transaction": {
        "from": "0xe2a5d3ee095de5039d42b00ddc2991bd61e48d55",
        "to": "0x78aeed6279a58398a583ecc612a306b80d1c4857",
        "gas": "0x10147",
        "value": "0x0",
        "input": "0xdb04fa49000000000000000000000000000000000000000000000000304611b6affba76a0000000000000000000000000000000000000000000000000000000000000001",
        "nonce": "0x15",
        "chainId": "0x13882"
      },
      "additionalContracts": [],
      "isFixedGasLimit": false
    },
    {
      "hash": "0xc90eaccff0ebd4fa79d9f0da089ebb6f593aa8691880a3c19806b90a29986f0f",
      "transactionType": "CALL",
      "contractName": "MessagingReceiver",
      "contractAddress": "0x78aeed6279a58398a583ecc612a306b80d1c4857",
      "function": "allowlistSourceChain(uint64,bool)",
      "arguments": [
        "10344971235874465080",
        "true"
      ],
      "transaction": {
        "from": "0xe2a5d3ee095de5039d42b00ddc2991bd61e48d55",
        "to": "0x78aeed6279a58398a583ecc612a306b80d1c4857",
        "gas": "0x10147",
        "value": "0x0",
        "input": "0xdb04fa490000000000000000000000000000000000000000000000008f90b8876dee65380000000000000000000000000000000000000000000000000000000000000001",
        "nonce": "0x16",
        "chainId": "0x13882"
      },
      "additionalContracts": [],
      "isFixedGasLimit": false
    },
    {
      "hash": "0xd934f7a1562eec005427ebab248c2335be623fc5c74fedf1fde9b13b35c51f9f",
      "transactionType": "CALL",
      "contractName": "MessagingReceiver",
      "contractAddress": "0x78aeed6279a58398a583ecc612a306b80d1c4857",
      "function": "allowlistSourceChain(uint64,bool)",
      "arguments": [
        "5224473277236331295",
        "true"
      ],
      "transaction": {
        "from": "0xe2a5d3ee095de5039d42b00ddc2991bd61e48d55",
        "to": "0x78aeed6279a58398a583ecc612a306b80d1c4857",
        "gas": "0x10147",
        "value": "0x0",
        "input": "0xdb04fa4900000000000000000000000000000000000000000000000048810ec3e431431f0000000000000000000000000000000000000000000000000000000000000001",
        "nonce": "0x17",
        "chainId": "0x13882"
      },
      "additionalContracts": [],
      "isFixedGasLimit": false
    }
  ],
  "receipts": [
    {
      "status": "0x1",
      "cumulativeGasUsed": "0x1867db",
      "logs": [
        {
          "address": "0x78aeed6279a58398a583ecc612a306b80d1c4857",
          "topics": [
            "0x8be0079c531659141344cd1fd0a4f28419497f9722a3daafe3b4186f6b6457e0",
            "0x0000000000000000000000000000000000000000000000000000000000000000",
            "0x000000000000000000000000e2a5d3ee095de5039d42b00ddc2991bd61e48d55"
          ],
          "data": "0x",
          "blockHash": "0xa152b44ed0b18483f3879726ffbb5d4f13a2530306d1df86adc6c35052738e37",
          "blockNumber": "0x2095e04",
          "blockTimestamp": "0x69966599",
          "transactionHash": "0x0aa171ae68d7fa1d2c78c420e4d5b9c5a8a30ddfe9c278f7066ecd11bf791019",
          "transactionIndex": "0x1",
          "logIndex": "0x4",
          "removed": false
        },
        {
          "address": "0x0000000000000000000000000000000000001010",
          "topics": [
            "0x4dfe1bbbcf077ddc3e01291eea2d5c70c2b422b415d95645b9adcfd678cb1d63",
            "0x0000000000000000000000000000000000000000000000000000000000001010",
            "0x000000000000000000000000e2a5d3ee095de5039d42b00ddc2991bd61e48d55",
            "0x0000000000000000000000007ee41d8a25641000661b1ef5e6ae8a00400466b0"
          ],
          "data": "0x000000000000000000000000000000000000000000000000009dc097e77e94000000000000000000000000000000000000000000000000000ccc30742d21ba80000000000000000000000000000000000000000000002335f4b643e10c9ea2320000000000000000000000000000000000000000000000000c2e6fdc45a32680000000000000000000000000000000000000000000002335f5540478f41d3632",
          "blockHash": "0xa152b44ed0b18483f3879726ffbb5d4f13a2530306d1df86adc6c35052738e37",
          "blockNumber": "0x2095e04",
          "blockTimestamp": "0x69966599",
          "transactionHash": "0x0aa171ae68d7fa1d2c78c420e4d5b9c5a8a30ddfe9c278f7066ecd11bf791019",
          "transactionIndex": "0x1",
          "logIndex": "0x5",
          "removed": false
        }
      ],
      "logsBloom": "0x00000000000000000000000000000000000000000000000000800000000080000000000000000000000000000000000000008000000000000000000000008000000000000000000000000000000000800001000000000000000100000000000000000400020000000000000000000800000000000000000480000000000000400000000000000000020000000400000000000000000000000000000000000000200000000000000000000000000000000000000000000000000000000000004040000000000000000001000000000000000000400000000000100000000020000000000000000000000000000000000000000000000000400000000000100000",
      "type": "0x2",
      "transactionHash": "0x0aa171ae68d7fa1d2c78c420e4d5b9c5a8a30ddfe9c278f7066ecd11bf791019",
      "transactionIndex": "0x1",
      "blockHash": "0xa152b44ed0b18483f3879726ffbb5d4f13a2530306d1df86adc6c35052738e37",
      "blockNumber": "0x2095e04",
      "gasUsed": "0x1695af",
      "effectiveGasPrice": "0x6fc23ac3f",
      "from": "0xe2a5d3ee095de5039d42b00ddc2991bd61e48d55",
      "to": null,
      "contractAddress": "0x78aeed6279a58398a583ecc612a306b80d1c4857"
    },
    {
      "status": "0x1",
      "cumulativeGasUsed": "0x19221f",
      "logs": [
        {
          "address": "0x78aeed6279a58398a583ecc612a306b80d1c4857",
          "topics": [
            "0x1792cf82ab5a84d3a3694d8eb55ceb2c81f20e473604e72a0a63c83312c318b8",
            "0x000000000000000000000000000000000000000000000000de41ba4fc9d91ad9"
          ],
          "data": "0x0000000000000000000000000000000000000000000000000000000000000001",
          "blockHash": "0xa152b44ed0b18483f3879726ffbb5d4f13a2530306d1df86adc6c35052738e37",
          "blockNumber": "0x2095e04",
          "blockTimestamp": "0x69966599",
          "transactionHash": "0x90297753e496a76b83811507ffe5fb22c4b67d50e1fa8d64a06f719b15b77053",
          "transactionIndex": "0x2",
          "logIndex": "0x6",
          "removed": false
        },
        {
          "address": "0x0000000000000000000000000000000000001010",
          "topics": [
            "0x4dfe1bbbcf077ddc3e01291eea2d5c70c2b422b415d95645b9adcfd678cb1d63",
            "0x0000000000000000000000000000000000000000000000000000000000001010",
            "0x000000000000000000000000e2a5d3ee095de5039d42b00ddc2991bd61e48d55",
            "0x0000000000000000000000007ee41d8a25641000661b1ef5e6ae8a00400466b0"
          ],
          "data": "0x0000000000000000000000000000000000000000000000000005150ce471b0000000000000000000000000000000000000000000000000000c2e6fdc4014506f000000000000000000000000000000000000000000002335f5540478f41d36320000000000000000000000000000000000000000000000000c295acf5ba2a06f000000000000000000000000000000000000000000002335f5591985d88ee632",
          "blockHash": "0xa152b44ed0b18483f3879726ffbb5d4f13a2530306d1df86adc6c35052738e37",
          "blockNumber": "0x2095e04",
          "blockTimestamp": "0x69966599",
          "transactionHash": "0x90297753e496a76b83811507ffe5fb22c4b67d50e1fa8d64a06f719b15b77053",
          "transactionIndex": "0x2",
          "logIndex": "0x7",
          "removed": false
        }
      ],
      "logsBloom": "0x00000000000000000000000000000000000000000000000000000000000080000000000200004000080000000000000000008000000000000000000000008000000000000000000000000000000000800000000000000000000100000000000000000400000000000000000000010000000000000000000480000000800000000000000000000000020000000400000000000020000000000000000000000000200000000000000000000000000000000000000000000000000000000000004040000000000000000001000000000000000000400000000000100000000000000000000000000000000000000000000000000000000000400000000000100000",
      "type": "0x2",
      "transactionHash": "0x90297753e496a76b83811507ffe5fb22c4b67d50e1fa8d64a06f719b15b77053",
      "transactionIndex": "0x2",
      "blockHash": "0xa152b44ed0b18483f3879726ffbb5d4f13a2530306d1df86adc6c35052738e37",
      "blockNumber": "0x2095e04",
      "gasUsed": "0xba44",
      "effectiveGasPrice": "0x6fc23ac3f",
      "from": "0xe2a5d3ee095de5039d42b00ddc2991bd61e48d55",
      "to": "0x78aeed6279a58398a583ecc612a306b80d1c4857",
      "contractAddress": null
    },
    {
      "status": "0x1",
      "cumulativeGasUsed": "0x19e054",
      "logs": [
        {
          "address": "0x78aeed6279a58398a583ecc612a306b80d1c4857",
          "topics": [
            "0x9a239a399a3630c36025f8c4b64b701240016edc1e1fdb83741c0c52f5d743d7",
            "0x000000000000000000000000000000000000000000000000de41ba4fc9d91ad9",
            "0x000000000000000000000000294ad4c5eb57a83bf13f2a92a5eaedce8d07acc9"
          ],
          "data": "0x0000000000000000000000000000000000000000000000000000000000000001",
          "blockHash": "0xa152b44ed0b18483f3879726ffbb5d4f13a2530306d1df86adc6c35052738e37",
          "blockNumber": "0x2095e04",
          "blockTimestamp": "0x69966599",
          "transactionHash": "0xd934f7a1562eec005427ebab248c2335be623fc5c74fedf1fde9b13b35c51f9f",
          "transactionIndex": "0x3",
          "logIndex": "0x8",
          "removed": false
        },
        {
          "address": "0x0000000000000000000000000000000000001010",
          "topics": [
            "0x4dfe1bbbcf077ddc3e01291eea2d5c70c2b422b415d95645b9adcfd678cb1d63",
            "0x0000000000000000000000000000000000000000000000000000000000001010",
            "0x000000000000000000000000e2a5d3ee095de5039d42b00ddc2991bd61e48d55",
            "0x0000000000000000000000007ee41d8a25641000661b1ef5e6ae8a00400466b0"
          ],
          "data": "0x00000000000000000000000000000000000000000000000000053094ad0a9c000000000000000000000000000000000000000000000000000c295acf5b74c9b3000000000000000000000000000000000000000000002335f5591985d88ee6320000000000000000000000000000000000000000000000000c242a3aae6a2db3000000000000000000000000000000000000000000002335f55e4a1a85998232",
          "blockHash": "0xa152b44ed0b18483f3879726ffbb5d4f13a2530306d1df86adc6c35052738e37",
          "blockNumber": "0x2095e04",
          "blockTimestamp": "0x69966599",
          "transactionHash": "0xd934f7a1562eec005427ebab248c2335be623fc5c74fedf1fde9b13b35c51f9f",
          "transactionIndex": "0x3",
          "logIndex": "0x9",
          "removed": false
        }
      ],
      "logsBloom": "0x00000000000000000000000000010000000000000000000000000000000080000000000000004000000000000000000000008000000000000000000000008000000000000000000000000000000000800000000000000000000100000000001000800400000000000000000000010000000000000000000480000000000000000000000000000000020000000400000000000020000000000000000000000000200000000000000000000000000000000000000000000000000000800000004040020000000000000001000000000000000000400000000000100000000000000000000000000000000000000000000000000000000000400000000000100000",
      "type": "0x2",
      "transactionHash": "0xd934f7a1562eec005427ebab248c2335be623fc5c74fedf1fde9b13b35c51f9f",
      "transactionIndex": "0x3",
      "blockHash": "0xa152b44ed0b18483f3879726ffbb5d4f13a2530306d1df86adc6c35052738e37",
      "blockNumber": "0x2095e04",
      "gasUsed": "0xbe35",
      "effectiveGasPrice": "0x6fc23ac3f",
      "from": "0xe2a5d3ee095de5039d42b00ddc2991bd61e48d55",
      "to": "0x78aeed6279a58398a583ecc612a306b80d1c4857",
      "contractAddress": null
    },
    {
      "status": "0x1",
      "cumulativeGasUsed": "0x1a9a98",
      "logs": [
        {
          "address": "0x78aeed6279a58398a583ecc612a306b80d1c4857",
          "topics": [
            "0x1792cf82ab5a84d3a3694d8eb55ceb2c81f20e473604e72a0a63c83312c318b8",
            "0x000000000000000000000000000000000000000000000000304611b6affba76a"
          ],
          "data": "0x0000000000000000000000000000000000000000000000000000000000000001",
          "blockHash": "0xa152b44ed0b18483f3879726ffbb5d4f13a2530306d1df86adc6c35052738e37",
          "blockNumber": "0x2095e04",
          "blockTimestamp": "0x69966599",
          "transactionHash": "0x78757f3e96d4997f7840bed7a7bc0283354373327229de346634c32474c15ee9",
          "transactionIndex": "0x4",
          "logIndex": "0xa",
          "removed": false
        },
        {
          "address": "0x0000000000000000000000000000000000001010",
          "topics": [
            "0x4dfe1bbbcf077ddc3e01291eea2d5c70c2b422b415d95645b9adcfd678cb1d63",
            "0x0000000000000000000000000000000000000000000000000000000000001010",
            "0x000000000000000000000000e2a5d3ee095de5039d42b00ddc2991bd61e48d55",
            "0x0000000000000000000000007ee41d8a25641000661b1ef5e6ae8a00400466b0"
          ],
          "data": "0x0000000000000000000000000000000000000000000000000005150ce471b0000000000000000000000000000000000000000000000000000c242a3aae3b5ea8000000000000000000000000000000000000000000002335f55e4a1a859982320000000000000000000000000000000000000000000000000c1f152dc9c9aea8000000000000000000000000000000000000000000002335f5635f276a0b3232",
          "blockHash": "0xa152b44ed0b18483f3879726ffbb5d4f13a2530306d1df86adc6c35052738e37",
          "blockNumber": "0x2095e04",
          "blockTimestamp": "0x69966599",
          "transactionHash": "0x78757f3e96d4997f7840bed7a7bc0283354373327229de346634c32474c15ee9",
          "transactionIndex": "0x4",
          "logIndex": "0xb",
          "removed": false
        }
      ],
      "logsBloom": "0x00000000000000000000000000000000000000000000000000000000000080000000000200000000080000000000000000008000080000000000000000008000000000000000000000000000000000800000000000000000000100000000000000000400000000000000000000000000000000000000000480000000800000000000000000000000020000000400000000000000000000000000000000000000200000000000000000000000000000000000000000000000000000000000004040000000000000000001000000000000000000400000000000100000080000000000000000000000000000000000000000000000000000400000000000300000",
      "type": "0x2",
      "transactionHash": "0x78757f3e96d4997f7840bed7a7bc0283354373327229de346634c32474c15ee9",
      "transactionIndex": "0x4",
      "blockHash": "0xa152b44ed0b18483f3879726ffbb5d4f13a2530306d1df86adc6c35052738e37",
      "blockNumber": "0x2095e04",
      "gasUsed": "0xba44",
      "effectiveGasPrice": "0x6fc23ac3f",
      "from": "0xe2a5d3ee095de5039d42b00ddc2991bd61e48d55",
      "to": "0x78aeed6279a58398a583ecc612a306b80d1c4857",
      "contractAddress": null
    },
    {
      "status": "0x1",
      "cumulativeGasUsed": "0x1b54dc",
      "logs": [
        {
          "address": "0x78aeed6279a58398a583ecc612a306b80d1c4857",
          "topics": [
            "0x1792cf82ab5a84d3a3694d8eb55ceb2c81f20e473604e72a0a63c83312c318b8",
            "0x0000000000000000000000000000000000000000000000008f90b8876dee6538"
          ],
          "data": "0x0000000000000000000000000000000000000000000000000000000000000001",
          "blockHash": "0xa152b44ed0b18483f3879726ffbb5d4f13a2530306d1df86adc6c35052738e37",
          "blockNumber": "0x2095e04",
          "blockTimestamp": "0x69966599",
          "transactionHash": "0xc90eaccff0ebd4fa79d9f0da089ebb6f593aa8691880a3c19806b90a29986f0f",
          "transactionIndex": "0x5",
          "logIndex": "0xc",
          "removed": false
        },
        {
          "address": "0x0000000000000000000000000000000000001010",
          "topics": [
            "0x4dfe1bbbcf077ddc3e01291eea2d5c70c2b422b415d95645b9adcfd678cb1d63",
            "0x0000000000000000000000000000000000000000000000000000000000001010",
            "0x000000000000000000000000e2a5d3ee095de5039d42b00ddc2991bd61e48d55",
            "0x0000000000000000000000007ee41d8a25641000661b1ef5e6ae8a00400466b0"
          ],
          "data": "0x0000000000000000000000000000000000000000000000000005150ce471b0000000000000000000000000000000000000000000000000000c1f152dc99bd7ec000000000000000000000000000000000000000000002335f5635f276a0b32320000000000000000000000000000000000000000000000000c1a0020e52a27ec000000000000000000000000000000000000000000002335f56874344e7ce232",
          "blockHash": "0xa152b44ed0b18483f3879726ffbb5d4f13a2530306d1df86adc6c35052738e37",
          "blockNumber": "0x2095e04",
          "blockTimestamp": "0x69966599",
          "transactionHash": "0xc90eaccff0ebd4fa79d9f0da089ebb6f593aa8691880a3c19806b90a29986f0f",
          "transactionIndex": "0x5",
          "logIndex": "0xd",
          "removed": false
        }
      ],
      "logsBloom": "0x00000000000000000000000000000000000000000000000000000000000080000000000200000000080000000000000000008000000000000000000000008000000000000000000000000000000000800000000400000000000100000000200000000400000000000000000000000000000000000000000480000000800000004000000000000000020000000400000000000000000000000000000000000000200000000000000000000000000000000000000000000000000000000000004040000000000000000001000000000000000000400000000000100000000000000000000000000000000000000000000000000000000000400000000000100000",
      "type": "0x2",
      "transactionHash": "0xc90eaccff0ebd4fa79d9f0da089ebb6f593aa8691880a3c19806b90a29986f0f",
      "transactionIndex": "0x5",
      "blockHash": "0xa152b44ed0b18483f3879726ffbb5d4f13a2530306d1df86adc6c35052738e37",
      "blockNumber": "0x2095e04",
      "gasUsed": "0xba44",
      "effectiveGasPrice": "0x6fc23ac3f",
      "from": "0xe2a5d3ee095de5039d42b00ddc2991bd61e48d55",
      "to": "0x78aeed6279a58398a583ecc612a306b80d1c4857",
      "contractAddress": null
    },
    {
      "status": "0x1",
      "cumulativeGasUsed": "0x1c0f20",
      "logs": [
        {
          "address": "0x78aeed6279a58398a583ecc612a306b80d1c4857",
          "topics": [
            "0x1792cf82ab5a84d3a3694d8eb55ceb2c81f20e473604e72a0a63c83312c318b8",
            "0x00000000000000000000000000000000000000000000000048810ec3e431431f"
          ],
          "data": "0x0000000000000000000000000000000000000000000000000000000000000001",
          "blockHash": "0xa152b44ed0b18483f3879726ffbb5d4f13a2530306d1df86adc6c35052738e37",
          "blockNumber": "0x2095e04",
          "blockTimestamp": "0x69966599",
          "transactionHash": "0xe605295d23fbcffb667b6868b7439227332e8764e0d4360cc96ccfdf56adf090",
          "transactionIndex": "0x6",
          "logIndex": "0xe",
          "removed": false
        },
        {
          "address": "0x0000000000000000000000000000000000001010",
          "topics": [
            "0x4dfe1bbbcf077ddc3e01291eea2d5c70c2b422b415d95645b9adcfd678cb1d63",
            "0x0000000000000000000000000000000000000000000000000000000000001010",
            "0x000000000000000000000000e2a5d3ee095de5039d42b00ddc2991bd61e48d55",
            "0x0000000000000000000000007ee41d8a25641000661b1ef5e6ae8a00400466b0"
          ],
          "data": "0x0000000000000000000000000000000000000000000000000005150ce471b0000000000000000000000000000000000000000000000000000c1a0020e4fc5130000000000000000000000000000000000000000000002335f56874344e7ce2320000000000000000000000000000000000000000000000000c14eb14008aa130000000000000000000000000000000000000000000002335f56d894132ee9232",
          "blockHash": "0xa152b44ed0b18483f3879726ffbb5d4f13a2530306d1df86adc6c35052738e37",
          "blockNumber": "0x2095e04",
          "blockTimestamp": "0x69966599",
          "transactionHash": "0xe605295d23fbcffb667b6868b7439227332e8764e0d4360cc96ccfdf56adf090",
          "transactionIndex": "0x6",
          "logIndex": "0xf",
          "removed": false
        }
      ],
      "logsBloom": "0x00000000000000000000000000100000000000000000000000000000000080000000000200000000080000000000000000008000000000000000000000008000000000000000000000000000000000800000000000000000000100000000000000000400000000000000000000000000000000000000000480000000800000000000000000000000020000000400000000000000000000000000000000000000200000000000000000000000000000000000000000000000000000000000004040000000080000000001000000000000000000400000000000100000000000000000000000000000000000000000000000000000000000420000000000100000",
      "type": "0x2",
      "transactionHash": "0xe605295d23fbcffb667b6868b7439227332e8764e0d4360cc96ccfdf56adf090",
      "transactionIndex": "0x6",
      "blockHash": "0xa152b44ed0b18483f3879726ffbb5d4f13a2530306d1df86adc6c35052738e37",
      "blockNumber": "0x2095e04",
      "gasUsed": "0xba44",
      "effectiveGasPrice": "0x6fc23ac3f",
      "from": "0xe2a5d3ee095de5039d42b00ddc2991bd61e48d55",
      "to": "0x78aeed6279a58398a583ecc612a306b80d1c4857",
      "contractAddress": null
    }
  ],
  "libraries": [],
  "pending": [],
  "returns": {
    "receiverContract": {
      "internal_type": "contract MessagingReceiver",
      "value": "0x78aEeD6279a58398a583ECC612A306b80d1c4857"
    }
  },
  "timestamp": 1771464091870,
  "chain": 80002,
  "commit": "0d77024"
}