{
  "transactions": [
    {
      "hash": "0x689b5b3bc6f8e775a9020ed7866eb3e40fa7b7711a95ce694ca653f0143ad23a",
      "transactionType": "CREATE",
      "contractName": "ProgrammableTokenReceiver",
      "contractAddress": "0x7e050e0d771dbcf0bcbd6f00b8beaa781667319c",
      "function": null,
      "arguments": [
        "0x9C32fCB86BF0f4a1A8921a9Fe46de3198bb884B2"
      ],
      "transaction": {
        "from": "0xe2a5d3ee095de5039d42b00ddc2991bd61e48d55",
        "gas": "0x27dfc0",
        "value": "0x0",
        "input": "0x60a060405234801561000f575f5ffd5b506040516123ee3803806123ee83398101604081905261002e91610137565b33816001600160a01b03811661005e576040516335fdcccd60e21b81525f60048201526024015b60405180910390fd5b6001600160a01b03908116608052811661008d57604051631e4fbdf760e01b81525f6004820152602401610055565b610096816100e8565b5060017f9b779b17422d0df92223018b32b4d1fa46e071723d6817e2486d003becc55f00556001600160a01b0381166100e25760405163d92e233d60e01b815260040160405180910390fd5b50610164565b5f80546001600160a01b038381166001600160a01b0319831681178455604051919092169283917f8be0079c531659141344cd1fd0a4f28419497f9722a3daafe3b4186f6b6457e09190a35050565b5f60208284031215610147575f5ffd5b81516001600160a01b038116811461015d575f5ffd5b9392505050565b60805161226b6101835f395f81816102bd0152610d67015261226b5ff3fe608060405234801561000f575f5ffd5b5060043610610132575f3560e01c8063512de5d9116100b4578063b0f479a111610079578063b0f479a1146102bb578063db04fa49146102e1578063e2de9a8b146102f4578063f039a00914610313578063f2fde38b14610326578063ff58f71814610339575f5ffd5b8063512de5d914610241578063715018a61461025457806385572ffb1461025c5780638da5cb5b1461026f5780639686388614610293575f5ffd5b80633aeac4e1116100fa5780633aeac4e1146101ad5780633aecd0e3146101c05780633d408d37146101d35780634030d521146102005780634df9cfb314610222575f5ffd5b806301ffc9a714610136578063040e55f51461015e578063260958a51461017057806338d8552514610190578063393a9a8e14610198575b5f5ffd5b61014961014436600461185e565b61034c565b60405190151581526020015b60405180910390f35b6004545b604051908152602001610155565b61018361017e36600461188c565b610382565b604051610155919061195b565b610183610589565b6101ab6101a636600461188c565b61080d565b005b6101ab6101bb366004611a23565b610b71565b6101626101ce366004611a5a565b610cc2565b6101496101e1366004611a90565b600260209081525f928352604080842090915290825290205460ff1681565b61014961020e366004611aaa565b60016020525f908152604090205460ff1681565b610162610230366004611a5a565b60056020525f908152604090205481565b61016261024f36600461188c565b610d2a565b6101ab610d49565b6101ab61026a366004611ac3565b610d5c565b5f546001600160a01b03165b6040516001600160a01b039091168152602001610155565b6102a66102a136600461188c565b610db8565b60405161015599989796959493929190611af9565b7f000000000000000000000000000000000000000000000000000000000000000061027b565b6101ab6102ef366004611b7c565b610f62565b610162610302366004611a5a565b60066020525f908152604090205481565b6101ab610321366004611bad565b610fc8565b6101ab610334366004611a5a565b61106c565b6101ab610347366004611bef565b6110a6565b5f6001600160e01b031982166385572ffb60e01b148061037c57506001600160e01b031982166301ffc9a760e01b145b92915050565b61038a6117b6565b5f828152600360208181526040928390208351610120810185528154815260018201546001600160401b038116828501526001600160a01b03600160401b909104811682870152600283015481166060830152938201548416608080830191909152600483015460a0830152855190810190955260058201805490941685526006820180549195929460c08701949092908401919061042890611c12565b80601f016020809104026020016040519081016040528092919081815260200182805461045490611c12565b801561049f5780601f106104765761010080835404028352916020019161049f565b820191905f5260205f20905b81548152906001019060200180831161048257829003601f168201915b505050505081526020016002820180546104b890611c12565b80601f01602080910402602001604051908101604052809291908181526020018280546104e490611c12565b801561052f5780601f106105065761010080835404028352916020019161052f565b820191905f5260205f20905b81548152906001019060200180831161051257829003601f168201915b505050918352505060039190910154602091820152908252600983015490820152600a82015460409091019060ff16600481111561056f5761056f611927565b600481111561058057610580611927565b90525092915050565b6105916117b6565b6004546105dd5760405162461bcd60e51b8152602060048201526015602482015274139bc81d1c985b9cd9995c9cc81c9958d95a5d9959605a1b60448201526064015b60405180910390fd5b600480546003915f916105f290600190611c5e565b8154811061060257610602611c71565b5f918252602080832090910154835282810193909352604091820190208151610120810183528154815260018201546001600160401b038116828601526001600160a01b03600160401b90910481168285015260028301548116606083015260038301548116608080840191909152600484015460a0840152845190810190945260058301805490911684526006830180549295939460c0870194909390840191906106ad90611c12565b80601f01602080910402602001604051908101604052809291908181526020018280546106d990611c12565b80156107245780601f106106fb57610100808354040283529160200191610724565b820191905f5260205f20905b81548152906001019060200180831161070757829003601f168201915b5050505050815260200160028201805461073d90611c12565b80601f016020809104026020016040519081016040528092919081815260200182805461076990611c12565b80156107b45780601f1061078b576101008083540402835291602001916107b4565b820191905f5260205f20905b81548152906001019060200180831161079757829003601f168201915b505050918352505060039190910154602091820152908252600983015490820152600a82015460409091019060ff1660048111156107f4576107f4611927565b600481111561080557610805611927565b905250919050565b61081561119b565b33301480159061082f57505f546001600160a01b03163314155b1561084f5760405163d86ad9cf60e01b81523360048201526024016105d4565b5f818152600360205260409020805461087e57604051632392259b60e11b8152600481018390526024016105d4565b6008810154158015906108945750600881015442115b156108c15760088101546040516302a07ebf60e31b815260048101919091524260248201526044016105d4565b5f8160050160010180546108d490611c12565b80601f016020809104026020016040519081016040528092919081815260200182805461090090611c12565b801561094b5780601f106109225761010080835404028352916020019161094b565b820191905f5260205f20905b81548152906001019060200180831161092e57829003601f168201915b505050506005840154600385015460048601546040805180820190915260088152673a3930b739b332b960c11b6020918201528551908601209495506001600160a01b0392831694929091169250907fb483afd3f4caedc6eebf44246fe54e38c95e3179a5ec9ea81740eca5b482d12e1480610a0857506040805180820190915260058152647374616b6560d81b6020918201528451908501207fc3a04795accb4b73d12f13b05a1e0e240cefeb9a89d008676730867a819d2f79145b80610a5357506040805180820190915260048152630737761760e41b6020918201528451908501207f695543c3708653cda9d418b4ccd3be11368e40636c10c44b18cfe756b6d88b29145b80610aa1575060408051808201909152600781526619195c1bdcda5d60ca1b6020918201528451908501207f48c73f681176fc7b3f9693986fd7b14581e8d540519e27400e88b8713932be01145b15610abf57610aba6001600160a01b03831684836111b6565b610ada565b836040516321c2778b60e21b81526004016105d49190611c85565b600a8501805460ff191660021790556001600160a01b0382165f9081526006602052604081208054839290610b10908490611c97565b92505081905550857ffa65e30d9c6fd156f26c5e38f77a40dcbc7e03eea0d265268574e77409a71fbe858584604051610b4b93929190611caa565b60405180910390a25050505050610b6e60015f5160206122165f395f51905f5255565b50565b610b796111f0565b610b8161119b565b6001600160a01b0382161580610b9e57506001600160a01b038116155b15610bbc5760405163d92e233d60e01b815260040160405180910390fd5b6040516370a0823160e01b81523060048201525f906001600160a01b038416906370a0823190602401602060405180830381865afa158015610c00573d5f5f3e3d5ffd5b505050506040513d601f19601f82011682018060405250810190610c249190611cd7565b9050805f03610c4657604051630686827b60e51b815260040160405180910390fd5b610c5a6001600160a01b03841683836111b6565b816001600160a01b0316836001600160a01b03167f8210728e7c071f615b840ee026032693858fbcd5e5359e67e438c890f59e562083604051610c9f91815260200190565b60405180910390a350610cbe60015f5160206122165f395f51905f5255565b5050565b6040516370a0823160e01b81523060048201525f906001600160a01b038316906370a0823190602401602060405180830381865afa158015610d06573d5f5f3e3d5ffd5b505050506040513d601f19601f8201168201806040525081019061037c9190611cd7565b60048181548110610d39575f80fd5b5f91825260209091200154905081565b610d516111f0565b610d5a5f61121c565b565b336001600160a01b037f00000000000000000000000000000000000000000000000000000000000000001614610da7576040516335fdcccd60e21b81523360048201526024016105d4565b610b6e610db382611ec3565b61126b565b600360208181525f9283526040928390208054600182015460028301549483015460048401548751608081019098526005850180546001600160a01b039081168a52600687018054969a6001600160401b0387169a600160401b9097048316999683169895909216969395919391840191610e3290611c12565b80601f0160208091040260200160405190810160405280929190818152602001828054610e5e90611c12565b8015610ea95780601f10610e8057610100808354040283529160200191610ea9565b820191905f5260205f20905b815481529060010190602001808311610e8c57829003601f168201915b50505050508152602001600282018054610ec290611c12565b80601f0160208091040260200160405190810160405280929190818152602001828054610eee90611c12565b8015610f395780601f10610f1057610100808354040283529160200191610f39565b820191905f5260205f20905b815481529060010190602001808311610f1c57829003601f168201915b5050509183525050600391909101546020909101526009820154600a9092015490919060ff1689565b610f6a6111f0565b6001600160401b0382165f81815260016020908152604091829020805460ff191685151590811790915591519182527f1792cf82ab5a84d3a3694d8eb55ceb2c81f20e473604e72a0a63c83312c318b8910160405180910390a25050565b610fd06111f0565b6001600160a01b038216610ff75760405163d92e233d60e01b815260040160405180910390fd5b6001600160401b0383165f8181526002602090815260408083206001600160a01b03871680855290835292819020805460ff191686151590811790915590519081529192917f9a239a399a3630c36025f8c4b64b701240016edc1e1fdb83741c0c52f5d743d7910160405180910390a3505050565b6110746111f0565b6001600160a01b03811661109d57604051631e4fbdf760e01b81525f60048201526024016105d4565b610b6e8161121c565b6110ae6111f0565b6110b661119b565b6001600160a01b0381166110dd5760405163d92e233d60e01b815260040160405180910390fd5b5f828152600360205260409020805461110c57604051632392259b60e11b8152600481018490526024016105d4565b6003810154600480830154600a8401805460ff19169092179091556001600160a01b039091169061113e8285836111b6565b604080516001600160a01b03861681526020810183905286917fdd2c43da9a64ede945df2f605de6e1549f554282312976c5521d639b58cd00ff910160405180910390a2505050610cbe60015f5160206122165f395f51905f5255565b6111a361167c565b60025f5160206122165f395f51905f5255565b6111c383838360016116ab565b6111eb57604051635274afe760e01b81526001600160a01b03841660048201526024016105d4565b505050565b5f546001600160a01b03163314610d5a5760405163118cdaa760e01b81523360048201526024016105d4565b5f80546001600160a01b038381166001600160a01b0319831681178455604051919092169283917f8be0079c531659141344cd1fd0a4f28419497f9722a3daafe3b4186f6b6457e09190a35050565b80602001516112798161170d565b816020015182604001518060200190518101906112969190611f7f565b6112a08282611750565b8360800151515f036112c557604051638806636560e01b815260040160405180910390fd5b8351604085015180515f916112e291810160209081019101611f7f565b90505f5f87606001518060200190518101906112fe9190611fee565b915091505f88608001515f8151811061131957611319611c71565b60200260200101515f015190505f89608001515f8151811061133d5761133d611c71565b60200260200101516020015190506040518061012001604052808781526020018b602001516001600160401b03168152602001866001600160a01b03168152602001846001600160a01b03168152602001836001600160a01b03168152602001828152602001858152602001428152602001600160048111156113c2576113c2611927565b90525f878152600360208181526040928390208451815584820151600182018054958701516001600160401b039092166001600160e01b031990961695909517600160401b6001600160a01b03928316021790945560608501516002820180546001600160a01b03199081169287169290921790556080860151938201805482169486169490941790935560a0850151600482015560c085015180516005830180549095169516949094178355908301519092919060068401906114869082612112565b506040820151600282019061149b9082612112565b506060919091015160039091015560e08201516009820155610100820151600a8201805460ff191660018360048111156114d7576114d7611927565b02179055505060048054600181019091557f8a35acfbc15ff81a39ae7d344fd709f28e8600b4aa8c65c6b64bfe7fe36bd19b01879055506001600160a01b0382165f9081526005602052604081208054839290611535908490611c97565b92505081905550846001600160a01b03168a602001516001600160401b0316877f345801750d6cdfbe0742d75c2a4f2bba795c033422df0da72cd31a8662715ef78686868a5f01518b602001516040516115939594939291906121d0565b60405180910390a4604051631c9d4d4760e11b815260048101879052309063393a9a8e906024015f604051808303815f87803b1580156115d1575f5ffd5b505af19250505080156115e2575060015b611670573d80801561160f576040519150601f19603f3d011682016040523d82523d5f602084013e611614565b606091505b505f878152600360208190526040909120600a01805460ff19166001830217905550867f9ef16cdea353d00b75523d0c6c923f5f8f3c7f580c4944e52edd8106b0b38b3e826040516116669190611c85565b60405180910390a2505b50505050505050505050565b5f5160206122165f395f51905f5254600203610d5a57604051633ee5aeb560e01b815260040160405180910390fd5b60405163a9059cbb60e01b5f8181526001600160a01b038616600452602485905291602083604481808b5af1925060015f511483166117015783831516156116f5573d5f823e3d81fd5b5f873b113d1516831692505b60405250949350505050565b6001600160401b0381165f9081526001602052604090205460ff16610b6e576040516326bfad9160e21b81526001600160401b03821660048201526024016105d4565b6001600160401b0382165f9081526002602090815260408083206001600160a01b038516845290915290205460ff16610cbe5760405163338aab5d60e11b81526001600160401b03831660048201526001600160a01b03821660248201526044016105d4565b6040518061012001604052805f81526020015f6001600160401b031681526020015f6001600160a01b031681526020015f6001600160a01b031681526020015f6001600160a01b031681526020015f815260200161183c60405180608001604052805f6001600160a01b0316815260200160608152602001606081526020015f81525090565b81526020015f81526020015f600481111561185957611859611927565b905290565b5f6020828403121561186e575f5ffd5b81356001600160e01b031981168114611885575f5ffd5b9392505050565b5f6020828403121561189c575f5ffd5b5035919050565b5f81518084528060208401602086015e5f602082860101526020601f19601f83011685010191505092915050565b60018060a01b0381511682525f6020820151608060208501526118f760808501826118a3565b90506040830151848203604086015261191082826118a3565b915050606083015160608501528091505092915050565b634e487b7160e01b5f52602160045260245ffd5b6005811061195757634e487b7160e01b5f52602160045260245ffd5b9052565b60208152815160208201525f602083015161198160408401826001600160401b03169052565b5060408301516001600160a01b03811660608401525060608301516001600160a01b03811660808401525060808301516001600160a01b03811660a08401525060a083015160c083015260c083015161012060e08401526119e66101408401826118d1565b905060e0840151610100840152610100840151611a0761012085018261193b565b509392505050565b6001600160a01b0381168114610b6e575f5ffd5b5f5f60408385031215611a34575f5ffd5b8235611a3f81611a0f565b91506020830135611a4f81611a0f565b809150509250929050565b5f60208284031215611a6a575f5ffd5b813561188581611a0f565b80356001600160401b0381168114611a8b575f5ffd5b919050565b5f5f60408385031215611aa1575f5ffd5b611a3f83611a75565b5f60208284031215611aba575f5ffd5b61188582611a75565b5f60208284031215611ad3575f5ffd5b81356001600160401b03811115611ae8575f5ffd5b820160a08185031215611885575f5ffd5b8981526001600160401b03891660208201526001600160a01b03888116604083015287811660608301528616608082015260a0810185905261012060c082018190525f90611b49908301866118d1565b90508360e0830152611b5f61010083018461193b565b9a9950505050505050505050565b80358015158114611a8b575f5ffd5b5f5f60408385031215611b8d575f5ffd5b611b9683611a75565b9150611ba460208401611b6d565b90509250929050565b5f5f5f60608486031215611bbf575f5ffd5b611bc884611a75565b92506020840135611bd881611a0f565b9150611be660408501611b6d565b90509250925092565b5f5f60408385031215611c00575f5ffd5b823591506020830135611a4f81611a0f565b600181811c90821680611c2657607f821691505b602082108103611c4457634e487b7160e01b5f52602260045260245ffd5b50919050565b634e487b7160e01b5f52601160045260245ffd5b8181038181111561037c5761037c611c4a565b634e487b7160e01b5f52603260045260245ffd5b602081525f61188560208301846118a3565b8082018082111561037c5761037c611c4a565b606081525f611cbc60608301866118a3565b6001600160a01b039490941660208301525060400152919050565b5f60208284031215611ce7575f5ffd5b5051919050565b634e487b7160e01b5f52604160045260245ffd5b604080519081016001600160401b0381118282101715611d2457611d24611cee565b60405290565b60405160a081016001600160401b0381118282101715611d2457611d24611cee565b604051608081016001600160401b0381118282101715611d2457611d24611cee565b604051601f8201601f191681016001600160401b0381118282101715611d9657611d96611cee565b604052919050565b5f6001600160401b03821115611db657611db6611cee565b50601f01601f191660200190565b5f82601f830112611dd3575f5ffd5b8135611de6611de182611d9e565b611d6e565b818152846020838601011115611dfa575f5ffd5b816020850160208301375f918101602001919091529392505050565b5f82601f830112611e25575f5ffd5b81356001600160401b03811115611e3e57611e3e611cee565b611e4d60208260051b01611d6e565b8082825260208201915060208360061b860101925085831115611e6e575f5ffd5b602085015b83811015611eb95760408188031215611e8a575f5ffd5b611e92611d02565b8135611e9d81611a0f565b8152602082810135818301529084529290920191604001611e73565b5095945050505050565b5f60a08236031215611ed3575f5ffd5b611edb611d2a565b82358152611eeb60208401611a75565b602082015260408301356001600160401b03811115611f08575f5ffd5b611f1436828601611dc4565b60408301525060608301356001600160401b03811115611f32575f5ffd5b611f3e36828601611dc4565b60608301525060808301356001600160401b03811115611f5c575f5ffd5b611f6836828601611e16565b60808301525092915050565b8051611a8b81611a0f565b5f60208284031215611f8f575f5ffd5b815161188581611a0f565b5f611fa7611de184611d9e565b9050828152838383011115611fba575f5ffd5b8282602083015e5f602084830101529392505050565b5f82601f830112611fdf575f5ffd5b61188583835160208501611f9a565b5f5f60408385031215611fff575f5ffd5b82516001600160401b03811115612014575f5ffd5b830160808186031215612025575f5ffd5b61202d611d4c565b815161203881611a0f565b815260208201516001600160401b03811115612052575f5ffd5b8201601f81018713612062575f5ffd5b61207187825160208401611f9a565b60208301525060408201516001600160401b0381111561208f575f5ffd5b61209b87828501611fd0565b604083015250606091820151918101919091529150611ba460208401611f74565b601f8211156111eb57828211156111eb57805f5260205f20601f840160051c60208510156120e757505f5b90810190601f840160051c035f5b8181101561210a575f838201556001016120f5565b505050505050565b81516001600160401b0381111561212b5761212b611cee565b61213f816121398454611c12565b846120bc565b6020601f821160018114612171575f831561215a5750848201515b5f19600385901b1c1916600184901b1784556121c9565b5f84815260208120601f198516915b828110156121a05787850151825560209485019460019092019101612180565b50848210156121bd57868401515f19600387901b60f8161c191681555b505060018360011b0184555b5050505050565b6001600160a01b0386811682528581166020830152604082018590528316606082015260a0608082018190525f9061220a908301846118a3565b97965050505050505056fe9b779b17422d0df92223018b32b4d1fa46e071723d6817e2486d003becc55f00a2646970667358221220764445d343f8a9ddb9453a0fb255da48fb0841244560a1c4ca3db5fa1a130f3e64736f6c634300082100330000000000000000000000009c32fcb86bf0f4a1a8921a9fe46de3198bb884b2",
        "nonce": "0x24",
        "chainId": "0x13882"
      },
      "additionalContracts": [],
      "isFixedGasLimit": false
    },
    {
      "hash": "0x072905cbdf6d3e8668704527f0aef82c569ab14a2d478aff019b7b8f659c1c81",
      "transactionType": "CALL",
      "contractName": "ProgrammableTokenReceiver",
      "contractAddress": "0x7e050e0d771dbcf0bcbd6f00b8beaa781667319c",
      "function": "allowlistSourceChain(uint64,bool)",
      "arguments": [
        "16015286601757825753",
        "true"
      ],
      "transaction": {
        "from": "0xe2a5d3ee095de5039d42b00ddc2991bd61e48d55",
        "to": "0x7e050e0d771dbcf0bcbd6f00b8beaa781667319c",
        "gas": "0x10154",
        "value": "0x0",
        "input": "0xdb04fa49000000000000000000000000000000000000000000000000de41ba4fc9d91ad90000000000000000000000000000000000000000000000000000000000000001",
        "nonce": "0x25",
        "chainId": "0x13882"
      },
      "additionalContracts": [],
      "isFixedGasLimit": false
    },
    {
      "hash": "0xc1444ddce559832847aed7f70fba1e955d35e940d16134fe53210ee56a7bad24",
      "transactionType": "CALL",
      "contractName": "ProgrammableTokenReceiver",
      "contractAddress": "0x7e050e0d771dbcf0bcbd6f00b8beaa781667319c",
      "function": "allowlistSender(uint64,address,bool)",
      "arguments": [
        "16015286601757825753",
        "0xc93A5d3BdA648bb99B8F6990e4E88C94241Cd838",
        "true"
      ],
      "transaction": {
        "from": "0xe2a5d3ee095de5039d42b00ddc2991bd61e48d55",
        "to": "0x7e050e0d771dbcf0bcbd6f00b8beaa781667319c",
        "gas": "0x106c5",
        "value": "0x0",
        "input": "0xf039a009000000000000000000000000000000000000000000000000de41ba4fc9d91ad9000000000000000000000000c93a5d3bda648bb99b8f6990e4e88c94241cd8380000000000000000000000000000000000000000000000000000000000000001",
        "nonce": "0x26",
        "chainId": "0x13882"
      },
      "additionalContracts": [],
      "isFixedGasLimit": false
    },
    {
      "hash": "0xee4524f2abeb5dd4d68176669964b72654b9d58fb5452755e3bffcd12e85eb96",
      "transactionType": "CALL",
      "contractName": "ProgrammableTokenReceiver",
      "contractAddress": "0x7e050e0d771dbcf0bcbd6f00b8beaa781667319c",
      "function": "allowlistSourceChain(uint64,bool)",
      "arguments": [
        "3478487238524512106",
        "true"
      ],
      "transaction": {
        "from": "0xe2a5d3ee095de5039d42b00ddc2991bd61e48d55",
        "to": "0x7e050e0d771dbcf0bcbd6f00b8beaa781667319c",
        "gas": "0x10154",
        "value": "0x0",
        "input": "0xdb04fa49000000000000000000000000000000000000000000000000304611b6affba76a0000000000000000000000000000000000000000000000000000000000000001",
        "nonce": "0x27",
        "chainId": "0x13882"
      },
      "additionalContracts": [],
      "isFixedGasLimit": false
    },
    {
      "hash": "0x0fb2ea68c1ffa45281e047156609ca5d0c00ad9e76c619cef8aab61ef2a734b9",
      "transactionType": "CALL",
      "contractName": "ProgrammableTokenReceiver",
      "contractAddress": "0x7e050e0d771dbcf0bcbd6f00b8beaa781667319c",
      "function": "allowlistSourceChain(uint64,bool)",
      "arguments": [
        "10344971235874465080",
        "true"
      ],
      "transaction": {
        "from": "0xe2a5d3ee095de5039d42b00ddc2991bd61e48d55",
        "to": "0x7e050e0d771dbcf0bcbd6f00b8beaa781667319c",
        "gas": "0x10154",
        "value": "0x0",
        "input": "0xdb04fa490000000000000000000000000000000000000000000000008f90b8876dee65380000000000000000000000000000000000000000000000000000000000000001",
        "nonce": "0x28",
        "chainId": "0x13882"
      },
      "additionalContracts": [],
      "isFixedGasLimit": false
    },
    {
      "hash": "0xd512edbd1d8b46d366f5909fe41f4a550882dcc982fcd7d60da0f6a407afbcff",
      "transactionType": "CALL",
      "contractName": "ProgrammableTokenReceiver",
      "contractAddress": "0x7e050e0d771dbcf0bcbd6f00b8beaa781667319c",
      "function": "allowlistSourceChain(uint64,bool)",
      "arguments": [
        "5224473277236331295",
        "true"
      ],
      "transaction": {
        "from": "0xe2a5d3ee095de5039d42b00ddc2991bd61e48d55",
        "to": "0x7e050e0d771dbcf0bcbd6f00b8beaa781667319c",
        "gas": "0x10154",
        "value": "0x0",
        "input": "0xdb04fa4900000000000000000000000000000000000000000000000048810ec3e431431f0000000000000000000000000000000000000000000000000000000000000001",
        "nonce": "0x29",
        "chainId": "0x13882"
      },
      "additionalContracts": [],
      "isFixedGasLimit": false
    }
  ],
  "receipts": [
    {
      "status": "0x1",
      "cumulativeGasUsed": "0x67af7a",
      "logs": [
        {
          "address": "0x7e050e0d771dbcf0bcbd6f00b8beaa781667319c",
          "topics": [
            "0x8be0079c531659141344cd1fd0a4f28419497f9722a3daafe3b4186f6b6457e0",
            "0x0000000000000000000000000000000000000000000000000000000000000000",
            "0x000000000000000000000000e2a5d3ee095de5039d42b00ddc2991bd61e48d55"
          ],
          "data": "0x",
          "blockHash": "0xe947b4974c66628c9487a00e32a3960b8577df2463aa34fbb3893e5e2cc56ff9",
          "blockNumber": "0x20a9f88",
          "blockTimestamp": "0x6998e8c3",
          "transactionHash": "0x072905cbdf6d3e8668704527f0aef82c569ab14a2d478aff019b7b8f659c1c81",
          "transactionIndex": "0xf",
          "logIndex": "0x9c",
          "removed": false
        },
        {
          "address": "0x0000000000000000000000000000000000001010",
          "topics": [
            "0x4dfe1bbbcf077ddc3e01291eea2d5c70c2b422b415d95645b9adcfd678cb1d63",
            "0x0000000000000000000000000000000000000000000000000000000000001010",
            "0x000000000000000000000000e2a5d3ee095de5039d42b00ddc2991bd61e48d55",
            "0x0000000000000000000000007ee41d8a25641000661b1ef5e6ae8a00400466b0"
          ],
          "data": "0x000000000000000000000000000000000000000000000000022d08a724ee68000000000000000000000000000000000000000000000000000af81756ff282e680000000000000000000000000000000000000000000024297d28b7dc70e2571700000000000000000000000000000000000000000000000008cb0eafda39c6680000000000000000000000000000000000000000000024297f55c08395d0bf17",
          "blockHash": "0xe947b4974c66628c9487a00e32a3960b8577df2463aa34fbb3893e5e2cc56ff9",
          "blockNumber": "0x20a9f88",
          "blockTimestamp": "0x6998e8c3",
          "transactionHash": "0x072905cbdf6d3e8668704527f0aef82c569ab14a2d478aff019b7b8f659c1c81",
          "transactionIndex": "0xf",
          "logIndex": "0x9d",
          "removed": false
        }
      ],
      "logsBloom": "0x00000000000000000000000000000000000000000000000000800000000080000000000000000000000000000000000000008008000000000000000000008000000000000000000000000000000000800001000000000000010100000000800000000000020000000000000000000800000000000000000480000000000000400000000000000000020000000400000000000000000000000000000000000000200000000000000000000000000000000000000000000000000000000000004000000000000000000001000000000000000000400000000000100000000020000000000000000000000000000000000000000000000000000000000000100000",
      "type": "0x2",
      "transactionHash": "0x072905cbdf6d3e8668704527f0aef82c569ab14a2d478aff019b7b8f659c1c81",
      "transactionIndex": "0xf",
      "blockHash": "0xe947b4974c66628c9487a00e32a3960b8577df2463aa34fbb3893e5e2cc56ff9",
      "blockNumber": "0x20a9f88",
      "gasUsed": "0x1eac1e",
      "effectiveGasPrice": "0x1229298c3f",
      "from": "0xe2a5d3ee095de5039d42b00ddc2991bd61e48d55",
      "to": null,
      "contractAddress": "0x7e050e0d771dbcf0bcbd6f00b8beaa781667319c"
    },
    {
      "status": "0x1",
      "cumulativeGasUsed": "0x6869c8",
      "logs": [
        {
          "address": "0x7e050e0d771dbcf0bcbd6f00b8beaa781667319c",
          "topics": [
            "0x1792cf82ab5a84d3a3694d8eb55ceb2c81f20e473604e72a0a63c83312c318b8",
            "0x000000000000000000000000000000000000000000000000de41ba4fc9d91ad9"
          ],
          "data": "0x0000000000000000000000000000000000000000000000000000000000000001",
          "blockHash": "0xe947b4974c66628c9487a00e32a3960b8577df2463aa34fbb3893e5e2cc56ff9",
          "blockNumber": "0x20a9f88",
          "blockTimestamp": "0x6998e8c3",
          "transactionHash": "0xc1444ddce559832847aed7f70fba1e955d35e940d16134fe53210ee56a7bad24",
          "transactionIndex": "0x10",
          "logIndex": "0x9e",
          "removed": false
        },
        {
          "address": "0x0000000000000000000000000000000000001010",
          "topics": [
            "0x4dfe1bbbcf077ddc3e01291eea2d5c70c2b422b415d95645b9adcfd678cb1d63",
            "0x0000000000000000000000000000000000000000000000000000000000001010",
            "0x000000000000000000000000e2a5d3ee095de5039d42b00ddc2991bd61e48d55",
            "0x0000000000000000000000007ee41d8a25641000661b1ef5e6ae8a00400466b0"
          ],
          "data": "0x000000000000000000000000000000000000000000000000000d3770ba60a80000000000000000000000000000000000000000000000000008cb0eafd2ad6b060000000000000000000000000000000000000000000024297f55c08395d0bf1700000000000000000000000000000000000000000000000008bdd73f184cc3060000000000000000000000000000000000000000000024297f62f7f450316717",
          "blockHash": "0xe947b4974c66628c9487a00e32a3960b8577df2463aa34fbb3893e5e2cc56ff9",
          "blockNumber": "0x20a9f88",
          "blockTimestamp": "0x6998e8c3",
          "transactionHash": "0xc1444ddce559832847aed7f70fba1e955d35e940d16134fe53210ee56a7bad24",
          "transactionIndex": "0x10",
          "logIndex": "0x9f",
          "removed": false
        }
      ],
      "logsBloom": "0x00000000000000000000000000000000000000000000000000000000000080000000000200004000080000000000000000008008000000000000000000008000000000000000000000000000000000800000000000000000010100000000800000000000000000000000000000010000000000000000000480000000800000000000000000000000020000000400000000000020000000000000000000000000200000000000000000000000000000000000000000000000000000000000004000000000000000000001000000000000000000400000000000100000000000000000000000000000000000000000000000000000000000000000000000100000",
      "type": "0x2",
      "transactionHash": "0xc1444ddce559832847aed7f70fba1e955d35e940d16134fe53210ee56a7bad24",
      "transactionIndex": "0x10",
      "blockHash": "0xe947b4974c66628c9487a00e32a3960b8577df2463aa34fbb3893e5e2cc56ff9",
      "blockNumber": "0x20a9f88",
      "gasUsed": "0xba4e",
      "effectiveGasPrice": "0x1229298c3f",
      "from": "0xe2a5d3ee095de5039d42b00ddc2991bd61e48d55",
      "to": "0x7e050e0d771dbcf0bcbd6f00b8beaa781667319c",
      "contractAddress": null
    },
    {
      "status": "0x1",
      "cumulativeGasUsed": "0x692807",
      "logs": [
        {
          "address": "0x7e050e0d771dbcf0bcbd6f00b8beaa781667319c",
          "topics": [
            "0x9a239a399a3630c36025f8c4b64b701240016edc1e1fdb83741c0c52f5d743d7",
            "0x000000000000000000000000000000000000000000000000de41ba4fc9d91ad9",
            "0x000000000000000000000000c93a5d3bda648bb99b8f6990e4e88c94241cd838"
          ],
          "data": "0x0000000000000000000000000000000000000000000000000000000000000001",
          "blockHash": "0xe947b4974c66628c9487a00e32a3960b8577df2463aa34fbb3893e5e2cc56ff9",
          "blockNumber": "0x20a9f88",
          "blockTimestamp": "0x6998e8c3",
          "transactionHash": "0xee4524f2abeb5dd4d68176669964b72654b9d58fb5452755e3bffcd12e85eb96",
          "transactionIndex": "0x11",
          "logIndex": "0xa0",
          "removed": false
        },
        {
          "address": "0x0000000000000000000000000000000000001010",
          "topics": [
            "0x4dfe1bbbcf077ddc3e01291eea2d5c70c2b422b415d95645b9adcfd678cb1d63",
            "0x0000000000000000000000000000000000000000000000000000000000001010",
            "0x000000000000000000000000e2a5d3ee095de5039d42b00ddc2991bd61e48d55",
            "0x0000000000000000000000007ee41d8a25641000661b1ef5e6ae8a00400466b0"
          ],
          "data": "0x000000000000000000000000000000000000000000000000000d7f04f721740000000000000000000000000000000000000000000000000008bdd73f181ee9d40000000000000000000000000000000000000000000024297f62f7f45031671700000000000000000000000000000000000000000000000008b0583a20fd75d40000000000000000000000000000000000000000000024297f7076f94752db17",
          "blockHash": "0xe947b4974c66628c9487a00e32a3960b8577df2463aa34fbb3893e5e2cc56ff9",
          "blockNumber": "0x20a9f88",
          "blockTimestamp": "0x6998e8c3",
          "transactionHash": "0xee4524f2abeb5dd4d68176669964b72654b9d58fb5452755e3bffcd12e85eb96",
          "transactionIndex": "0x11",
          "logIndex": "0xa1",
          "removed": false
        }
      ],
      "logsBloom": "0x00000000000000000000000000010000000000000000000000000000000080000000000000004000000000000000000000008008000000000000000000008000000000000000000000000000000004800000000080000000010100000000801000000000000000000000000000090000000000000000000480000000000000000000000000000000020000000400000000000020000000000000000000000000200000000000000000000000000000000000000000000000000000000000004000020000000000000001000000000000000000400000000000100000000000000000000000000000000000000000000000000000000000000000000000100000",
      "type": "0x2",
      "transactionHash": "0xee4524f2abeb5dd4d68176669964b72654b9d58fb5452755e3bffcd12e85eb96",
      "transactionIndex": "0x11",
      "blockHash": "0xe947b4974c66628c9487a00e32a3960b8577df2463aa34fbb3893e5e2cc56ff9",
      "blockNumber": "0x20a9f88",
      "gasUsed": "0xbe3f",
      "effectiveGasPrice": "0x1229298c3f",
      "from": "0xe2a5d3ee095de5039d42b00ddc2991bd61e48d55",
      "to": "0x7e050e0d771dbcf0bcbd6f00b8beaa781667319c",
      "contractAddress": null
    },
    {
      "status": "0x1",
      "cumulativeGasUsed": "0x69e255",
      "logs": [
        {
          "address": "0x7e050e0d771dbcf0bcbd6f00b8beaa781667319c",
          "topics": [
            "0x1792cf82ab5a84d3a3694d8eb55ceb2c81f20e473604e72a0a63c83312c318b8",
            "0x000000000000000000000000000000000000000000000000304611b6affba76a"
          ],
          "data": "0x0000000000000000000000000000000000000000000000000000000000000001",
          "blockHash": "0xe947b4974c66628c9487a00e32a3960b8577df2463aa34fbb3893e5e2cc56ff9",
          "blockNumber": "0x20a9f88",
          "blockTimestamp": "0x6998e8c3",
          "transactionHash": "0x689b5b3bc6f8e775a9020ed7866eb3e40fa7b7711a95ce694ca653f0143ad23a",
          "transactionIndex": "0x12",
          "logIndex": "0xa2",
          "removed": false
        },
        {
          "address": "0x0000000000000000000000000000000000001010",
          "topics": [
            "0x4dfe1bbbcf077ddc3e01291eea2d5c70c2b422b415d95645b9adcfd678cb1d63",
            "0x0000000000000000000000000000000000000000000000000000000000001010",
            "0x000000000000000000000000e2a5d3ee095de5039d42b00ddc2991bd61e48d55",
            "0x0000000000000000000000007ee41d8a25641000661b1ef5e6ae8a00400466b0"
          ],
          "data": "0x000000000000000000000000000000000000000000000000000d3770ba60a80000000000000000000000000000000000000000000000000008b0583a20cea4530000000000000000000000000000000000000000000024297f7076f94752db1700000000000000000000000000000000000000000000000008a320c9666dfc530000000000000000000000000000000000000000000024297f7dae6a01b38317",
          "blockHash": "0xe947b4974c66628c9487a00e32a3960b8577df2463aa34fbb3893e5e2cc56ff9",
          "blockNumber": "0x20a9f88",
          "blockTimestamp": "0x6998e8c3",
          "transactionHash": "0x689b5b3bc6f8e775a9020ed7866eb3e40fa7b7711a95ce694ca653f0143ad23a",
          "transactionIndex": "0x12",
          "logIndex": "0xa3",
          "removed": false
        }
      ],
      "logsBloom": "0x00000000000000000000000000000000000000000000000000000000000080000000000200000000080000000000000000008008080000000000000000008000000000000000000000000000000000800000000000000000010100000000800000000000000000000000000000000000000000000000000480000000800000000000000000000000020000000400000000000000000000000000000000000000200000000000000000000000000000000000000000000000000000000000004000000000000000000001000000000000000000400000000000100000080000000000000000000000000000000000000000000000000000000000000000300000",
      "type": "0x2",
      "transactionHash": "0x689b5b3bc6f8e775a9020ed7866eb3e40fa7b7711a95ce694ca653f0143ad23a",
      "transactionIndex": "0x12",
      "blockHash": "0xe947b4974c66628c9487a00e32a3960b8577df2463aa34fbb3893e5e2cc56ff9",
      "blockNumber": "0x20a9f88",
      "gasUsed": "0xba4e",
      "effectiveGasPrice": "0x1229298c3f",
      "from": "0xe2a5d3ee095de5039d42b00ddc2991bd61e48d55",
      "to": "0x7e050e0d771dbcf0bcbd6f00b8beaa781667319c",
      "contractAddress": null
    },
    {
      "status": "0x1",
      "cumulativeGasUsed": "0x6a9ca3",
      "logs": [
        {
          "address": "0x7e050e0d771dbcf0bcbd6f00b8beaa781667319c",
          "topics": [
            "0x1792cf82ab5a84d3a3694d8eb55ceb2c81f20e473604e72a0a63c83312c318b8",
            "0x0000000000000000000000000000000000000000000000008f90b8876dee6538"
          ],
          "data": "0x0000000000000000000000000000000000000000000000000000000000000001",
          "blockHash": "0xe947b4974c66628c9487a00e32a3960b8577df2463aa34fbb3893e5e2cc56ff9",
          "blockNumber": "0x20a9f88",
          "blockTimestamp": "0x6998e8c3",
          "transactionHash": "0xd512edbd1d8b46d366f5909fe41f4a550882dcc982fcd7d60da0f6a407afbcff",
          "transactionIndex": "0x13",
          "logIndex": "0xa4",
          "removed": false
        },
        {
          "address": "0x0000000000000000000000000000000000001010",
          "topics": [
            "0x4dfe1bbbcf077ddc3e01291eea2d5c70c2b422b415d95645b9adcfd678cb1d63",
            "0x0000000000000000000000000000000000000000000000000000000000001010",
            "0x000000000000000000000000e2a5d3ee095de5039d42b00ddc2991bd61e48d55",
            "0x0000000000000000000000007ee41d8a25641000661b1ef5e6ae8a00400466b0"
          ],
          "data": "0x000000000000000000000000000000000000000000000000000d3770ba60a80000000000000000000000000000000000000000000000000008a320c9664023210000000000000000000000000000000000000000000024297f7dae6a01b383170000000000000000000000000000000000000000000000000895e958abdf7b210000000000000000000000000000000000000000000024297f8ae5dabc142b17",
          "blockHash": "0xe947b4974c66628c9487a00e32a3960b8577df2463aa34fbb3893e5e2cc56ff9",
          "blockNumber": "0x20a9f88",
          "blockTimestamp": "0x6998e8c3",
          "transactionHash": "0xd512edbd1d8b46d366f5909fe41f4a550882dcc982fcd7d60da0f6a407afbcff",
          "transactionIndex": "0x13",
          "logIndex": "0xa5",
          "removed": false
        }
      ],
      "logsBloom": "0x00000000000000000000000000000000000000000000000000000000000080000000000200000000080000000000000000008008000000000000000000008000000000000000000000000000000000800000000400000000010100000000a00000000000000000000000000000000000000000000000000480000000800000004000000000000000020000000400000000000000000000000000000000000000200000000000000000000000000000000000000000000000000000000000004000000000000000000001000000000000000000400000000000100000000000000000000000000000000000000000000000000000000000000000000000100000",
      "type": "0x2",
      "transactionHash": "0xd512edbd1d8b46d366f5909fe41f4a550882dcc982fcd7d60da0f6a407afbcff",
      "transactionIndex": "0x13",
      "blockHash": "0xe947b4974c66628c9487a00e32a3960b8577df2463aa34fbb3893e5e2cc56ff9",
      "blockNumber": "0x20a9f88",
      "gasUsed": "0xba4e",
      "effectiveGasPrice": "0x1229298c3f",
      "from": "0xe2a5d3ee095de5039d42b00ddc2991bd61e48d55",
      "to": "0x7e050e0d771dbcf0bcbd6f00b8beaa781667319c",
      "contractAddress": null
    },
    {
      "status": "0x1",
      "cumulativeGasUsed": "0x6b56f1",
      "logs": [
        {
          "address": "0x7e050e0d771dbcf0bcbd6f00b8beaa781667319c",
          "topics": [
            "0x1792cf82ab5a84d3a3694d8eb55ceb2c81f20e473604e72a0a63c83312c318b8",
            "0x00000000000000000000000000000000000000000000000048810ec3e431431f"
          ],
          "data": "0x0000000000000000000000000000000000000000000000000000000000000001",
          "blockHash": "0xe947b4974c66628c9487a00e32a3960b8577df2463aa34fbb3893e5e2cc56ff9",
          "blockNumber": "0x20a9f88",
          "blockTimestamp": "0x6998e8c3",
          "transactionHash": "0x0fb2ea68c1ffa45281e047156609ca5d0c00ad9e76c619cef8aab61ef2a734b9",
          "transactionIndex": "0x14",
          "logIndex": "0xa6",
          "removed": false
        },
        {
          "address": "0x0000000000000000000000000000000000001010",
          "topics": [
            "0x4dfe1bbbcf077ddc3e01291eea2d5c70c2b422b415d95645b9adcfd678cb1d63",
            "0x0000000000000000000000000000000000000000000000000000000000001010",
            "0x000000000000000000000000e2a5d3ee095de5039d42b00ddc2991bd61e48d55",
            "0x0000000000000000000000007ee41d8a25641000661b1ef5e6ae8a00400466b0"
          ],
          "data": "0x000000000000000000000000000000000000000000000000000d3770ba60a8000000000000000000000000000000000000000000000000000895e958abb1a1ef0000000000000000000000000000000000000000000024297f8ae5dabc142b170000000000000000000000000000000000000000000000000888b1e7f150f9ef0000000000000000000000000000000000000000000024297f981d4b7674d317",
          "blockHash": "0xe947b4974c66628c9487a00e32a3960b8577df2463aa34fbb3893e5e2cc56ff9",
          "blockNumber": "0x20a9f88",
          "blockTimestamp": "0x6998e8c3",
          "transactionHash": "0x0fb2ea68c1ffa45281e047156609ca5d0c00ad9e76c619cef8aab61ef2a734b9",
          "transactionIndex": "0x14",
          "logIndex": "0xa7",
          "removed": false
        }
      ],
      "logsBloom": "0x00000000000000000000000000100000000000000000000000000000000080000000000200000000080000000000000000008008000000000000000000008000000000000000000000000000000000800000000000000000010100000000800000000000000000000000000000000000000000000000000480000000800000000000000000000000020000000400000000000000000000000000000000000000200000000000000000000000000000000000000000000000000000000000004000000000080000000001000000000000000000400000000000100000000000000000000000000000000000000000000000000000000000020000000000100000",
      "type": "0x2",
      "transactionHash": "0x0fb2ea68c1ffa45281e047156609ca5d0c00ad9e76c619cef8aab61ef2a734b9",
      "transactionIndex": "0x14",
      "blockHash": "0xe947b4974c66628c9487a00e32a3960b8577df2463aa34fbb3893e5e2cc56ff9",
      "blockNumber": "0x20a9f88",
      "gasUsed": "0xba4e",
      "effectiveGasPrice": "0x1229298c3f",
      "from": "0xe2a5d3ee095de5039d42b00ddc2991bd61e48d55",
      "to": "0x7e050e0d771dbcf0bcbd6f00b8beaa781667319c",
      "contractAddress": null
    }
  ],
  "libraries": [],
  "pending": [],
  "returns": {
    "receiverContract": {
      "internal_type": "contract ProgrammableTokenReceiver",
      "value": "0x7E050e0D771dBcf0BcBD6f00b8beAa781667319c"
    }
  },
  "timestamp": 1771628739234,
  "chain": 80002,
  "commit": "667a8dd"
}