{
  "transactions": [
    {
      "hash": "0xc6dcb0ba5dd2f2dd81d3724c498e7c2149ef5c367be44b9874c227d683676284",
      "transactionType": "CREATE",
      "contractName": "ProgrammableTokenReceiver",
      "contractAddress": "0xc79b68de65c997de1b5231c6a8c6ad15b0df7c83",
      "function": null,
      "arguments": [
        "0x9C32fCB86BF0f4a1A8921a9Fe46de3198bb884B2"
      ],
      "transaction": {
        "from": "0xe2a5d3ee095de5039d42b00ddc2991bd61e48d55",
        "gas": "0x22caad",
        "value": "0x0",
        "input": "0x60a03461010b57601f611ef638819003918201601f19168301916001600160401b0383118484101761010f5780849260209460405283398101031261010b57516001600160a01b03811680820361010b57156100f85760805233156100e5575f8054336001600160a01b03198216811783556040519290916001600160a01b0316907f8be0079c531659141344cd1fd0a4f28419497f9722a3daafe3b4186f6b6457e09080a360017f9b779b17422d0df92223018b32b4d1fa46e071723d6817e2486d003becc55f0055611dd29081610124823960805181818161040a015261055a0152f35b631e4fbdf760e01b5f525f60045260245ffd5b6335fdcccd60e21b5f525f60045260245ffd5b5f80fd5b634e487b7160e01b5f52604160045260245ffdfe6080806040526004361015610012575f80fd5b5f905f3560e01c90816301ffc9a71461136957508063040e55f51461134c578063260958a51461130d57806338d85525146111da578063393a9a8e146111a35780633aeac4e1146110825780633aecd0e314610fed5780633d408d3714610f955780634030d52114610f58578063443c5d7b14610f005780634df9cfb314610ec8578063512de5d914610e90578063715018a614610e3957806371a787b314610d8657806385572ffb146105275780638da5cb5b146105005780639686388614610439578063b0f479a1146103f4578063db04fa4914610367578063e2de9a8b1461032e578063f039a00914610288578063f2fde38b146102025763ff58f7181461011b575f80fd5b346101ff5760403660031901126101ff576004356101376114e2565b61013f611ca1565b610147611be8565b6001600160a01b0381169081156101f057828452600460205260408420908154156101dc5791600a6101bd6040937fdd2c43da9a64ede945df2f605de6e1549f554282312976c5521d639b58cd00ff9560018060a01b03600383015416600483015494859301600560ff19825416179055611c20565b82519182526020820152a260015f516020611d7d5f395f51905f525580f35b632392259b60e11b85526004849052602485fd5b63d92e233d60e01b8452600484fd5b80fd5b50346101ff5760203660031901126101ff5761021c6114cc565b610224611ca1565b6001600160a01b031680156102745781546001600160a01b03198116821783556001600160a01b03167f8be0079c531659141344cd1fd0a4f28419497f9722a3daafe3b4186f6b6457e08380a380f35b631e4fbdf760e01b82526004829052602482fd5b50346101ff5760603660031901126101ff576102a26114f8565b6102aa6114e2565b6102b261153a565b906102bb611ca1565b6001600160a01b03169182156101f05760206001600160401b037f9a239a399a3630c36025f8c4b64b701240016edc1e1fdb83741c0c52f5d743d79216928386526002825260408620855f5282526103228160405f209060ff801983541691151516179055565b6040519015158152a380f35b50346101ff5760203660031901126101ff576020906040906001600160a01b036103566114cc565b168152600783522054604051908152f35b50346101ff5760403660031901126101ff576103816114f8565b60243590811515908183036103f0577f1792cf82ab5a84d3a3694d8eb55ceb2c81f20e473604e72a0a63c83312c318b8916103e66001600160401b036020936103c8611ca1565b169485875260018452604087209060ff801983541691151516179055565b604051908152a280f35b8380fd5b50346101ff57806003193601126101ff576040517f00000000000000000000000000000000000000000000000000000000000000006001600160a01b03168152602090f35b50346101ff5760203660031901126101ff57604090600435815260046020522080546001820154916104fc60018060a01b036002830154166104eb60018060a01b036003850154166004850154610492600587016116fa565b9160ff600a60098901549801541694604051998a998a526001600160401b03811660208b015260018060a01b039060401c1660408a01526060890152608088015260a087015261012060c08701526101208601906113e0565b9260e0850152610100840190611427565b0390f35b50346101ff57806003193601126101ff57546040516001600160a01b039091168152602090f35b5034610be3576020366003190112610be3576004356001600160401b038111610be35760a06003198236030112610be3577f00000000000000000000000000000000000000000000000000000000000000006001600160a01b03163303610d73576040519060a082018281106001600160401b03821117610be7576040528060040135825260248101356001600160401b0381168103610be3576020830190815260448201356001600160401b038111610be3576105eb9060043691850101611ba2565b926040810193845260648301356001600160401b038111610be3576106169060043691860101611ba2565b92606082019384526084810135906001600160401b038211610be357019036602383011215610be35760048201356001600160401b038111610be7576040519261066660208360051b01856115b8565b818452602060048186019360061b8301010190368211610be357602401915b818310610d1e57505050608081019182526001600160401b03835116805f52600160205260ff60405f20541615610d0c57506001600160401b038351168551602081805181010312610be3576001600160a01b03906106e690602001611cc7565b1690805f52600260205260405f2060018060a01b0383165f5260205260ff60405f20541615610cf757505081515115610ce857519351602081805181010312610be3576001600160a01b039061073e90602001611cc7565b1692519182518301916020830193604081850312610be35760208101516001600160401b038111610be35781019360809085900312610be357604051946107848661159d565b60208501516001600160a01b0381168103610be357865260408501516001600160401b038111610be35760209086010181601f82011215610be357818160206107cf93519101611cdb565b946020870195865260608101516001600160401b038111610be35760209082010182601f82011215610be35760809281602061080d93519101611cdb565b60408801520151606086015261082c604060018060a01b039201611cc7565b16602061084d60018060a01b036108438551611d11565b5151169351611d11565b51015192876001600160401b038251166040519061086a82611581565b828252602080830191825260408084018c815260608501888152608086018a815260a087018c815260c088018f81524260e08a0190815260016101008b018181525f9c8d526004808b529c8990209b518c559951908b01805497516001600160e01b03199098166001600160401b03928316179790981b68010000000000000000600160e01b03169690961790965592516002890180546001600160a01b03199081166001600160a01b0393841617909155925160038a0180548516918316919091179055905198880198909855905180516005880180549093169816979097179055918501518051939591939192600686019291908211610be75761097a826109748554611549565b85611d1e565b602090601f8311600114610c85576109a992915f9183610c0f575b50508160011b915f199060031b1c19161790565b90555b6007830160408201518051906001600160401b038211610be7576109d4826109748554611549565b602090601f8311600114610c1a5782600a9796959360609593610a0b935f92610c0f5750508160011b915f199060031b1c19161790565b90555b015160088301555160098201550190516006811015610bfb5760ff801983541691161790556005549368010000000000000000851015610be75788956001600160401b03610aec93610a878860017f345801750d6cdfbe0742d75c2a4f2bba795c033422df0da72cd31a8662715ef79a0160055561150e565b81549060031b908b821b915f19901b1916179055865f52600660205260405f20610ab28582546117e1565b905551169760018060a01b03905116905191604051958695865260208601526040850152606084015260a0608084015260a08301906113bc565b0390a4303b15610be357604051631c9d4d4760e11b8152600481018290525f8160248183305af19081610bce575b50610bca573d15610b9f577f9ef16cdea353d00b75523d0c6c923f5f8f3c7f580c4944e52edd8106b0b38b3e610b993d610b53816117c6565b90610b6160405192836115b8565b81523d85602083013e5b8385526004602052600a6040862001600460ff198254161790556040519182916020835260208301906113bc565b0390a280f35b7f9ef16cdea353d00b75523d0c6c923f5f8f3c7f580c4944e52edd8106b0b38b3e610b996060610b6b565b5080f35b610bdb9193505f906115b8565b5f915f610b1a565b5f80fd5b634e487b7160e01b5f52604160045260245ffd5b634e487b7160e01b5f52602160045260245ffd5b015190505f80610995565b90601f19831691845f52815f20925f5b818110610c6d5750926001928592600a9a9998966060989610610c55575b505050811b019055610a0e565b01515f1960f88460031b161c191690555f8080610c48565b92936020600181928786015181550195019301610c2a565b90601f19831691845f52815f20925f5b818110610cd05750908460019594939210610cb8575b505050811b0190556109ac565b01515f1960f88460031b161c191690555f8080610cab565b92936020600181928786015181550195019301610c95565b638806636560e01b5f5260045ffd5b63338aab5d60e11b5f5260045260245260445ffd5b6326bfad9160e21b5f5260045260245ffd5b604083360312610be35760405190604082018281106001600160401b03821117610be7576040528335906001600160a01b0382168203610be35782602092604094528286013583820152815201920191610685565b6335fdcccd60e21b5f523360045260245ffd5b34610be3576060366003190112610be357610d9f6114f8565b610da76114e2565b610daf61153a565b90610db8611ca1565b6001600160a01b0316918215610e2a5760206001600160401b037f0a1d1dfba71eeafb77f038be33a594c3f21ace62341bcf6dd8e1867de29ac27b921692835f526003825260405f20855f528252610e1f8160405f209060ff801983541691151516179055565b6040519015158152a3005b63d92e233d60e01b5f5260045ffd5b34610be3575f366003190112610be357610e51611ca1565b5f80546001600160a01b0319811682556001600160a01b03167f8be0079c531659141344cd1fd0a4f28419497f9722a3daafe3b4186f6b6457e08280a3005b34610be3576020366003190112610be357600435600554811015610be357610eb960209161150e565b90549060031b1c604051908152f35b34610be3576020366003190112610be3576001600160a01b03610ee96114cc565b165f526006602052602060405f2054604051908152f35b34610be3576040366003190112610be357610f196114f8565b6001600160401b03610f296114e2565b91165f52600360205260405f209060018060a01b03165f52602052602060ff60405f2054166040519015158152f35b34610be3576020366003190112610be3576001600160401b03610f796114f8565b165f526001602052602060ff60405f2054166040519015158152f35b34610be3576040366003190112610be357610fae6114f8565b6001600160401b03610fbe6114e2565b91165f52600260205260405f209060018060a01b03165f52602052602060ff60405f2054166040519015158152f35b34610be3576020366003190112610be357602460206001600160a01b036110126114cc565b16604051928380926370a0823160e01b82523060048301525afa8015611077575f90611044575b602090604051908152f35b506020813d60201161106f575b8161105e602093836115b8565b81010312610be35760209051611039565b3d9150611051565b6040513d5f823e3d90fd5b34610be3576040366003190112610be35761109b6114cc565b6110a36114e2565b906110ac611ca1565b6110b4611be8565b6001600160a01b031680158015611192575b610e2a576040516370a0823160e01b815230600482015291602083602481855afa928315611077575f9361115e575b50821561114f5760208161112b857f8210728e7c071f615b840ee026032693858fbcd5e5359e67e438c890f59e56209486611c20565b6040519485526001600160a01b031693a360015f516020611d7d5f395f51905f5255005b630686827b60e51b5f5260045ffd5b9092506020813d60201161118a575b8161117a602093836115b8565b81010312610be3575191836110f5565b3d915061116d565b506001600160a01b038216156110c6565b34610be3576020366003190112610be3576111bc611be8565b6111c760043561181a565b60015f516020611d7d5f395f51905f5255005b34610be3575f366003190112610be3576111f2611755565b5060055480156112d0575f1981019081116112bc576112109061150e565b90549060031b1c5f5260046020526104fc60405f206112b060ff600a6040519361123985611581565b8054855260018101546001600160401b03811660208701526001600160a01b03604091821c8116918701919091526002820154811660608701526003820154166080860152600481015460a0860152611294600582016116fa565b60c0860152600981015460e086015201541661010083016117ba565b60405191829182611434565b634e487b7160e01b5f52601160045260245ffd5b60405162461bcd60e51b8152602060048201526015602482015274139bc81d1c985b9cd9995c9cc81c9958d95a5d9959605a1b6044820152606490fd5b34610be3576020366003190112610be357611326611755565b506004355f5260046020526104fc60405f206112b060ff600a6040519361123985611581565b34610be3575f366003190112610be3576020600554604051908152f35b34610be3576020366003190112610be3576004359063ffffffff60e01b8216809203610be3576020916385572ffb60e01b81149081156113ab575b5015158152f35b6301ffc9a760e01b149050836113a4565b805180835260209291819084018484015e5f828201840152601f01601f1916010190565b9060018060a01b03825116815260608061141e61140c60208601516080602087015260808601906113bc565b604086015185820360408701526113bc565b93015191015290565b906006821015610bfb5752565b6114c99060208152825160208201526001600160401b03602084015116604082015260018060a01b03604084015116606082015260018060a01b03606084015116608082015260018060a01b0360808401511660a082015260a083015160c08201526101206101006114b560c08601518360e08601526101408501906113e0565b9460e0810151828501520151910190611427565b90565b600435906001600160a01b0382168203610be357565b602435906001600160a01b0382168203610be357565b600435906001600160401b0382168203610be357565b6005548110156115265760055f5260205f2001905f90565b634e487b7160e01b5f52603260045260245ffd5b604435908115158203610be357565b90600182811c92168015611577575b602083101461156357565b634e487b7160e01b5f52602260045260245ffd5b91607f1691611558565b61012081019081106001600160401b03821117610be757604052565b608081019081106001600160401b03821117610be757604052565b90601f801991011681019081106001600160401b03821117610be757604052565b9060405191825f8254926115ec84611549565b80845293600181169081156116575750600114611613575b50611611925003836115b8565b565b90505f9291925260205f20905f915b81831061163b575050906020611611928201015f611604565b6020919350806001915483858901015201910190918492611622565b90506020925061161194915060ff191682840152151560051b8201015f611604565b5f929181549161168883611549565b80835292600181169081156116dd57506001146116a457505050565b5f9081526020812093945091925b8383106116c3575060209250010190565b6001816020929493945483858701015201910191906116b2565b915050602093945060ff929192191683830152151560051b010190565b906040516117078161159d565b82546001600160a01b03168152918290606090600390611729600182016115d9565b6020850152604051611749816117428160028601611679565b03826115b8565b60408501520154910152565b6040519061176282611581565b5f610100838281528260208201528260408201528260608201528260808201528260a08201526040516117948161159d565b838152606060208201526060604082015283606082015260c08201528260e08201520152565b6006821015610bfb5752565b6001600160401b038111610be757601f01601f191660200190565b919082018092116112bc57565b611806604092959493956060835260608301906113bc565b6001600160a01b0390951660208201520152565b3033141580611b8e575b611b7b57805f52600460205260405f20805415611b6857600881015480151580611b5f575b611b49575061185a600682016115d9565b9160018060a01b0360058301541660018060a01b03600384015416906004840154916040946118cf865161188e88826115b8565b60088152673a3930b739b332b960c11b6020918201528851908901207fb483afd3f4caedc6eebf44246fe54e38c95e3179a5ec9ea81740eca5b482d12e1490565b611b115761192086516118e288826115b8565b60058152647374616b6560d81b6020918201528851908901207fc3a04795accb4b73d12f13b05a1e0e240cefeb9a89d008676730867a819d2f791490565b8015611abf575b8015611a6a575b6119575785516321c2778b60e21b81526020600482015280611953602482018a6113bc565b0390fd5b60018101546001600160401b0381165f9081526003602090815288822092891c6001600160a01b03168252919091528690205494969395929460ff166119fe579181600a6119f9946119cc89897ffa65e30d9c6fd156f26c5e38f77a40dcbc7e03eea0d265268574e77409a71fbe9b97611c20565b01600260ff198254161790555f526007602052805f206119ed8382546117e1565b905551938493846117ee565b0390a2565b807fe8cf3c50372f733a3b7b98ace33d7d807a6151179cb70eaf21c1ab5db32e6b4b96611a4e96936119f995600a60079501600360ff19825416179055805198899860a08a5260a08a01906113bc565b9560208901528701526060860152848303608086015201611679565b50611aba8651611a7a88826115b8565b600781526619195c1bdcda5d60ca1b6020918201528851908901207f48c73f681176fc7b3f9693986fd7b14581e8d540519e27400e88b8713932be011490565b61192e565b50611b0c8651611acf88826115b8565b60048152630737761760e41b6020918201528851908901207f695543c3708653cda9d418b4ccd3be11368e40636c10c44b18cfe756b6d88b291490565b611927565b9481600a7ffa65e30d9c6fd156f26c5e38f77a40dcbc7e03eea0d265268574e77409a71fbe976119cc87876119f9989a9c9997611c20565b6302a07ebf60e31b5f526004524260245260445ffd5b50804211611849565b50632392259b60e11b5f5260045260245ffd5b63d86ad9cf60e01b5f523360045260245ffd5b505f546001600160a01b0316331415611824565b81601f82011215610be357803590611bb9826117c6565b92611bc760405194856115b8565b82845260208383010111610be357815f926020809301838601378301015290565b60025f516020611d7d5f395f51905f525414611c115760025f516020611d7d5f395f51905f5255565b633ee5aeb560e01b5f5260045ffd5b916040519163a9059cbb60e01b5f5260018060a01b031660045260245260205f60448180865af19060015f5114821615611c80575b60405215611c605750565b635274afe760e01b5f9081526001600160a01b0391909116600452602490fd5b906001811516611c9857823b15153d15161690611c55565b503d5f823e3d90fd5b5f546001600160a01b03163303611cb457565b63118cdaa760e01b5f523360045260245ffd5b51906001600160a01b0382168203610be357565b929192611ce7826117c6565b91611cf560405193846115b8565b829481845281830111610be3578281602093845f96015e010152565b8051156115265760200190565b919091601f8311611d2f575b505050565b818311611d3b57505050565b5f5260205f206020601f830160051c9210611d74575b81601f9101920160051c03905f5b82811015611d2a575f82820155600101611d5f565b5f9150611d5156fe9b779b17422d0df92223018b32b4d1fa46e071723d6817e2486d003becc55f00a2646970667358221220d573a56bca6fafb806cbb6c181251638962b04047661ad12f42019c513ce051d64736f6c634300082100330000000000000000000000009c32fcb86bf0f4a1a8921a9fe46de3198bb884b2",
        "nonce": "0x2f",
        "chainId": "0x13882"
      },
      "additionalContracts": [],
      "isFixedGasLimit": false
    },
    {
      "hash": "0x2e78cf573ef93d7f224b50919aba3d314555fc0be5afab0aff95aee04995fcba",
      "transactionType": "CALL",
      "contractName": "ProgrammableTokenReceiver",
      "contractAddress": "0xc79b68de65c997de1b5231c6a8c6ad15b0df7c83",
      "function": "allowlistSourceChain(uint64,bool)",
      "arguments": [
        "16015286601757825753",
        "true"
      ],
      "transaction": {
        "from": "0xe2a5d3ee095de5039d42b00ddc2991bd61e48d55",
        "to": "0xc79b68de65c997de1b5231c6a8c6ad15b0df7c83",
        "gas": "0x11198",
        "value": "0x0",
        "input": "0xdb04fa49000000000000000000000000000000000000000000000000de41ba4fc9d91ad90000000000000000000000000000000000000000000000000000000000000001",
        "nonce": "0x30",
        "chainId": "0x13882"
      },
      "additionalContracts": [],
      "isFixedGasLimit": false
    },
    {
      "hash": "0x0de545886e0b95f9d8cb6565a0b714341889777a07e8b71087099228ac8ff432",
      "transactionType": "CALL",
      "contractName": "ProgrammableTokenReceiver",
      "contractAddress": "0xc79b68de65c997de1b5231c6a8c6ad15b0df7c83",
      "function": "allowlistSourceChain(uint64,bool)",
      "arguments": [
        "3478487238524512106",
        "true"
      ],
      "transaction": {
        "from": "0xe2a5d3ee095de5039d42b00ddc2991bd61e48d55",
        "to": "0xc79b68de65c997de1b5231c6a8c6ad15b0df7c83",
        "gas": "0x11198",
        "value": "0x0",
        "input": "0xdb04fa49000000000000000000000000000000000000000000000000304611b6affba76a0000000000000000000000000000000000000000000000000000000000000001",
        "nonce": "0x31",
        "chainId": "0x13882"
      },
      "additionalContracts": [],
      "isFixedGasLimit": false
    },
    {
      "hash": "0x98fd33ee5437712ef4ae5153e58951395a4be4755602570930b7dda510bb7b2d",
      "transactionType": "CALL",
      "contractName": "ProgrammableTokenReceiver",
      "contractAddress": "0xc79b68de65c997de1b5231c6a8c6ad15b0df7c83",
      "function": "allowlistSourceChain(uint64,bool)",
      "arguments": [
        "10344971235874465080",
        "true"
      ],
      "transaction": {
        "from": "0xe2a5d3ee095de5039d42b00ddc2991bd61e48d55",
        "to": "0xc79b68de65c997de1b5231c6a8c6ad15b0df7c83",
        "gas": "0x11198",
        "value": "0x0",
        "input": "0xdb04fa490000000000000000000000000000000000000000000000008f90b8876dee65380000000000000000000000000000000000000000000000000000000000000001",
        "nonce": "0x32",
        "chainId": "0x13882"
      },
      "additionalContracts": [],
      "isFixedGasLimit": false
    },
    {
      "hash": "0x7ccde4c1bb7ef0e7145ba4cb0343bdfeed148ffa8c129993526c7ba15208f109",
      "transactionType": "CALL",
      "contractName": "ProgrammableTokenReceiver",
      "contractAddress": "0xc79b68de65c997de1b5231c6a8c6ad15b0df7c83",
      "function": "allowlistSourceChain(uint64,bool)",
      "arguments": [
        "5224473277236331295",
        "true"
      ],
      "transaction": {
        "from": "0xe2a5d3ee095de5039d42b00ddc2991bd61e48d55",
        "to": "0xc79b68de65c997de1b5231c6a8c6ad15b0df7c83",
        "gas": "0x11198",
        "value": "0x0",
        "input": "0xdb04fa4900000000000000000000000000000000000000000000000048810ec3e431431f0000000000000000000000000000000000000000000000000000000000000001",
        "nonce": "0x33",
        "chainId": "0x13882"
      },
      "additionalContracts": [],
      "isFixedGasLimit": false
    }
  ],
  "receipts": [
    {
      "status": "0x1",
      "cumulativeGasUsed": "0x1b8f14",
      "logs": [
        {
          "address": "0xc79b68de65c997de1b5231c6a8c6ad15b0df7c83",
          "topics": [
            "0x8be0079c531659141344cd1fd0a4f28419497f9722a3daafe3b4186f6b6457e0",
            "0x0000000000000000000000000000000000000000000000000000000000000000",
            "0x000000000000000000000000e2a5d3ee095de5039d42b00ddc2991bd61e48d55"
          ],
          "data": "0x",
          "blockHash": "0x6756ef4b3fe1f82dcfea7bf1b8192d6851b3fd95f14d5d2431b98e781f42e722",
          "blockNumber": "0x20b5008",
          "blockTimestamp": "0x699a49c3",
          "transactionHash": "0xc6dcb0ba5dd2f2dd81d3724c498e7c2149ef5c367be44b9874c227d683676284",
          "transactionIndex": "0x1",
          "logIndex": "0x2",
          "removed": false
        },
        {
          "address": "0x0000000000000000000000000000000000001010",
          "topics": [
            "0x4dfe1bbbcf077ddc3e01291eea2d5c70c2b422b415d95645b9adcfd678cb1d63",
            "0x0000000000000000000000000000000000000000000000000000000000001010",
            "0x000000000000000000000000e2a5d3ee095de5039d42b00ddc2991bd61e48d55",
            "0x0000000000000000000000007ee41d8a25641000661b1ef5e6ae8a00400466b0"
          ],
          "data": "0x0000000000000000000000000000000000000000000000000154b3d453fffd08000000000000000000000000000000000000000000000000088e87187fad3d5f00000000000000000000000000000000000000000000244703aa4321e73fa4e10000000000000000000000000000000000000000000000000739d3442bad405700000000000000000000000000000000000000000000244704fef6f63b3fa1e9",
          "blockHash": "0x6756ef4b3fe1f82dcfea7bf1b8192d6851b3fd95f14d5d2431b98e781f42e722",
          "blockNumber": "0x20b5008",
          "blockTimestamp": "0x699a49c3",
          "transactionHash": "0xc6dcb0ba5dd2f2dd81d3724c498e7c2149ef5c367be44b9874c227d683676284",
          "transactionIndex": "0x1",
          "logIndex": "0x3",
          "removed": false
        }
      ],
      "logsBloom": "0x00000000000000000000000000000000000000000000000000800000000080000000000000000000000000000000000000008000000000000000000000008000000000000000000000000000000000800001000000000000000100000000000000000000020000000000000000000800000000000000000480000000000000400000000000000000020000000400000000000000000000000000000000000000200000000000000000000000000000020000000000000000000000000000004000000000000000000001000000000000000010400000000000100000000020000000000000000000000000000000000002000000000000000000000000100000",
      "type": "0x2",
      "transactionHash": "0xc6dcb0ba5dd2f2dd81d3724c498e7c2149ef5c367be44b9874c227d683676284",
      "transactionIndex": "0x1",
      "blockHash": "0x6756ef4b3fe1f82dcfea7bf1b8192d6851b3fd95f14d5d2431b98e781f42e722",
      "blockNumber": "0x20b5008",
      "gasUsed": "0x1ac34a",
      "effectiveGasPrice": "0xcbafd3573",
      "from": "0xe2a5d3ee095de5039d42b00ddc2991bd61e48d55",
      "to": null,
      "contractAddress": "0xc79b68de65c997de1b5231c6a8c6ad15b0df7c83"
    },
    {
      "status": "0x1",
      "cumulativeGasUsed": "0x1c4a27",
      "logs": [
        {
          "address": "0xc79b68de65c997de1b5231c6a8c6ad15b0df7c83",
          "topics": [
            "0x1792cf82ab5a84d3a3694d8eb55ceb2c81f20e473604e72a0a63c83312c318b8",
            "0x000000000000000000000000000000000000000000000000de41ba4fc9d91ad9"
          ],
          "data": "0x0000000000000000000000000000000000000000000000000000000000000001",
          "blockHash": "0x6756ef4b3fe1f82dcfea7bf1b8192d6851b3fd95f14d5d2431b98e781f42e722",
          "blockNumber": "0x20b5008",
          "blockTimestamp": "0x699a49c3",
          "transactionHash": "0x0de545886e0b95f9d8cb6565a0b714341889777a07e8b71087099228ac8ff432",
          "transactionIndex": "0x2",
          "logIndex": "0x4",
          "removed": false
        },
        {
          "address": "0x0000000000000000000000000000000000001010",
          "topics": [
            "0x4dfe1bbbcf077ddc3e01291eea2d5c70c2b422b415d95645b9adcfd678cb1d63",
            "0x0000000000000000000000000000000000000000000000000000000000001010",
            "0x000000000000000000000000e2a5d3ee095de5039d42b00ddc2991bd61e48d55",
            "0x0000000000000000000000007ee41d8a25641000661b1ef5e6ae8a00400466b0"
          ],
          "data": "0x00000000000000000000000000000000000000000000000000094d88d6a7eedc0000000000000000000000000000000000000000000000000739d3442517312100000000000000000000000000000000000000000000244704fef6f63b3fa1e9000000000000000000000000000000000000000000000000073085bb4e6f42450000000000000000000000000000000000000000000024470508447f11e790c5",
          "blockHash": "0x6756ef4b3fe1f82dcfea7bf1b8192d6851b3fd95f14d5d2431b98e781f42e722",
          "blockNumber": "0x20b5008",
          "blockTimestamp": "0x699a49c3",
          "transactionHash": "0x0de545886e0b95f9d8cb6565a0b714341889777a07e8b71087099228ac8ff432",
          "transactionIndex": "0x2",
          "logIndex": "0x5",
          "removed": false
        }
      ],
      "logsBloom": "0x00000000000000000000000000000000000000000000000000000000000080000000000200004000080000000000000000008000000000000000000000008000000000000000000000000000000000800000000000000000000100000000000000000000000000000000000000010000000000000000000480000000800000000000000000000000020000000400000000000020000000000000000000000000200000000000000000000000000000020000000000000000000000000000004000000000000000000001000000000000000010400000000000100000000000000000000000000000000000000000000002000000000000000000000000100000",
      "type": "0x2",
      "transactionHash": "0x0de545886e0b95f9d8cb6565a0b714341889777a07e8b71087099228ac8ff432",
      "transactionIndex": "0x2",
      "blockHash": "0x6756ef4b3fe1f82dcfea7bf1b8192d6851b3fd95f14d5d2431b98e781f42e722",
      "blockNumber": "0x20b5008",
      "gasUsed": "0xbb13",
      "effectiveGasPrice": "0xcbafd3573",
      "from": "0xe2a5d3ee095de5039d42b00ddc2991bd61e48d55",
      "to": "0xc79b68de65c997de1b5231c6a8c6ad15b0df7c83",
      "contractAddress": null
    },
    {
      "status": "0x1",
      "cumulativeGasUsed": "0x1d053a",
      "logs": [
        {
          "address": "0xc79b68de65c997de1b5231c6a8c6ad15b0df7c83",
          "topics": [
            "0x1792cf82ab5a84d3a3694d8eb55ceb2c81f20e473604e72a0a63c83312c318b8",
            "0x000000000000000000000000000000000000000000000000304611b6affba76a"
          ],
          "data": "0x0000000000000000000000000000000000000000000000000000000000000001",
          "blockHash": "0x6756ef4b3fe1f82dcfea7bf1b8192d6851b3fd95f14d5d2431b98e781f42e722",
          "blockNumber": "0x20b5008",
          "blockTimestamp": "0x699a49c3",
          "transactionHash": "0x2e78cf573ef93d7f224b50919aba3d314555fc0be5afab0aff95aee04995fcba",
          "transactionIndex": "0x3",
          "logIndex": "0x6",
          "removed": false
        },
        {
          "address": "0x0000000000000000000000000000000000001010",
          "topics": [
            "0x4dfe1bbbcf077ddc3e01291eea2d5c70c2b422b415d95645b9adcfd678cb1d63",
            "0x0000000000000000000000000000000000000000000000000000000000001010",
            "0x000000000000000000000000e2a5d3ee095de5039d42b00ddc2991bd61e48d55",
            "0x0000000000000000000000007ee41d8a25641000661b1ef5e6ae8a00400466b0"
          ],
          "data": "0x00000000000000000000000000000000000000000000000000094d88d6a7eedc000000000000000000000000000000000000000000000000073085bb4e4138980000000000000000000000000000000000000000000024470508447f11e790c500000000000000000000000000000000000000000000000007273832779949bc00000000000000000000000000000000000000000000244705119207e88f7fa1",
          "blockHash": "0x6756ef4b3fe1f82dcfea7bf1b8192d6851b3fd95f14d5d2431b98e781f42e722",
          "blockNumber": "0x20b5008",
          "blockTimestamp": "0x699a49c3",
          "transactionHash": "0x2e78cf573ef93d7f224b50919aba3d314555fc0be5afab0aff95aee04995fcba",
          "transactionIndex": "0x3",
          "logIndex": "0x7",
          "removed": false
        }
      ],
      "logsBloom": "0x00000000000000000000000000000000000000000000000000000000000080000000000200000000080000000000000000008000080000000000000000008000000000000000000000000000000000800000000000000000000100000000000000000000000000000000000000000000000000000000000480000000800000000000000000000000020000000400000000000000000000000000000000000000200000000000000000000000000000020000000000000000000000000000004000000000000000000001000000000000000010400000000000100000080000000000000000000000000000000000000002000000000000000000000000300000",
      "type": "0x2",
      "transactionHash": "0x2e78cf573ef93d7f224b50919aba3d314555fc0be5afab0aff95aee04995fcba",
      "transactionIndex": "0x3",
      "blockHash": "0x6756ef4b3fe1f82dcfea7bf1b8192d6851b3fd95f14d5d2431b98e781f42e722",
      "blockNumber": "0x20b5008",
      "gasUsed": "0xbb13",
      "effectiveGasPrice": "0xcbafd3573",
      "from": "0xe2a5d3ee095de5039d42b00ddc2991bd61e48d55",
      "to": "0xc79b68de65c997de1b5231c6a8c6ad15b0df7c83",
      "contractAddress": null
    },
    {
      "status": "0x1",
      "cumulativeGasUsed": "0x1dc04d",
      "logs": [
        {
          "address": "0xc79b68de65c997de1b5231c6a8c6ad15b0df7c83",
          "topics": [
            "0x1792cf82ab5a84d3a3694d8eb55ceb2c81f20e473604e72a0a63c83312c318b8",
            "0x0000000000000000000000000000000000000000000000008f90b8876dee6538"
          ],
          "data": "0x0000000000000000000000000000000000000000000000000000000000000001",
          "blockHash": "0x6756ef4b3fe1f82dcfea7bf1b8192d6851b3fd95f14d5d2431b98e781f42e722",
          "blockNumber": "0x20b5008",
          "blockTimestamp": "0x699a49c3",
          "transactionHash": "0x98fd33ee5437712ef4ae5153e58951395a4be4755602570930b7dda510bb7b2d",
          "transactionIndex": "0x4",
          "logIndex": "0x8",
          "removed": false
        },
        {
          "address": "0x0000000000000000000000000000000000001010",
          "topics": [
            "0x4dfe1bbbcf077ddc3e01291eea2d5c70c2b422b415d95645b9adcfd678cb1d63",
            "0x0000000000000000000000000000000000000000000000000000000000001010",
            "0x000000000000000000000000e2a5d3ee095de5039d42b00ddc2991bd61e48d55",
            "0x0000000000000000000000007ee41d8a25641000661b1ef5e6ae8a00400466b0"
          ],
          "data": "0x00000000000000000000000000000000000000000000000000094d88d6a7eedc00000000000000000000000000000000000000000000000007273832776b400f00000000000000000000000000000000000000000000244705119207e88f7fa1000000000000000000000000000000000000000000000000071deaa9a0c35133000000000000000000000000000000000000000000002447051adf90bf376e7d",
          "blockHash": "0x6756ef4b3fe1f82dcfea7bf1b8192d6851b3fd95f14d5d2431b98e781f42e722",
          "blockNumber": "0x20b5008",
          "blockTimestamp": "0x699a49c3",
          "transactionHash": "0x98fd33ee5437712ef4ae5153e58951395a4be4755602570930b7dda510bb7b2d",
          "transactionIndex": "0x4",
          "logIndex": "0x9",
          "removed": false
        }
      ],
      "logsBloom": "0x00000000000000000000000000000000000000000000000000000000000080000000000200000000080000000000000000008000000000000000000000008000000000000000000000000000000000800000000400000000000100000000200000000000000000000000000000000000000000000000000480000000800000004000000000000000020000000400000000000000000000000000000000000000200000000000000000000000000000020000000000000000000000000000004000000000000000000001000000000000000010400000000000100000000000000000000000000000000000000000000002000000000000000000000000100000",
      "type": "0x2",
      "transactionHash": "0x98fd33ee5437712ef4ae5153e58951395a4be4755602570930b7dda510bb7b2d",
      "transactionIndex": "0x4",
      "blockHash": "0x6756ef4b3fe1f82dcfea7bf1b8192d6851b3fd95f14d5d2431b98e781f42e722",
      "blockNumber": "0x20b5008",
      "gasUsed": "0xbb13",
      "effectiveGasPrice": "0xcbafd3573",
      "from": "0xe2a5d3ee095de5039d42b00ddc2991bd61e48d55",
      "to": "0xc79b68de65c997de1b5231c6a8c6ad15b0df7c83",
      "contractAddress": null
    },
    {
      "status": "0x1",
      "cumulativeGasUsed": "0x1e7b60",
      "logs": [
        {
          "address": "0xc79b68de65c997de1b5231c6a8c6ad15b0df7c83",
          "topics": [
            "0x1792cf82ab5a84d3a3694d8eb55ceb2c81f20e473604e72a0a63c83312c318b8",
            "0x00000000000000000000000000000000000000000000000048810ec3e431431f"
          ],
          "data": "0x0000000000000000000000000000000000000000000000000000000000000001",
          "blockHash": "0x6756ef4b3fe1f82dcfea7bf1b8192d6851b3fd95f14d5d2431b98e781f42e722",
          "blockNumber": "0x20b5008",
          "blockTimestamp": "0x699a49c3",
          "transactionHash": "0x7ccde4c1bb7ef0e7145ba4cb0343bdfeed148ffa8c129993526c7ba15208f109",
          "transactionIndex": "0x5",
          "logIndex": "0xa",
          "removed": false
        },
        {
          "address": "0x0000000000000000000000000000000000001010",
          "topics": [
            "0x4dfe1bbbcf077ddc3e01291eea2d5c70c2b422b415d95645b9adcfd678cb1d63",
            "0x0000000000000000000000000000000000000000000000000000000000001010",
            "0x000000000000000000000000e2a5d3ee095de5039d42b00ddc2991bd61e48d55",
            "0x0000000000000000000000007ee41d8a25641000661b1ef5e6ae8a00400466b0"
          ],
          "data": "0x00000000000000000000000000000000000000000000000000094d88d6a7eedc000000000000000000000000000000000000000000000000071deaa9a0954786000000000000000000000000000000000000000000002447051adf90bf376e7d00000000000000000000000000000000000000000000000007149d20c9ed58aa00000000000000000000000000000000000000000000244705242d1995df5d59",
          "blockHash": "0x6756ef4b3fe1f82dcfea7bf1b8192d6851b3fd95f14d5d2431b98e781f42e722",
          "blockNumber": "0x20b5008",
          "blockTimestamp": "0x699a49c3",
          "transactionHash": "0x7ccde4c1bb7ef0e7145ba4cb0343bdfeed148ffa8c129993526c7ba15208f109",
          "transactionIndex": "0x5",
          "logIndex": "0xb",
          "removed": false
        }
      ],
      "logsBloom": "0x00000000000000000000000000100000000000000000000000000000000080000000000200000000080000000000000000008000000000000000000000008000000000000000000000000000000000800000000000000000000100000000000000000000000000000000000000000000000000000000000480000000800000000000000000000000020000000400000000000000000000000000000000000000200000000000000000000000000000020000000000000000000000000000004000000000080000000001000000000000000010400000000000100000000000000000000000000000000000000000000002000000000000020000000000100000",
      "type": "0x2",
      "transactionHash": "0x7ccde4c1bb7ef0e7145ba4cb0343bdfeed148ffa8c129993526c7ba15208f109",
      "transactionIndex": "0x5",
      "blockHash": "0x6756ef4b3fe1f82dcfea7bf1b8192d6851b3fd95f14d5d2431b98e781f42e722",
      "blockNumber": "0x20b5008",
      "gasUsed": "0xbb13",
      "effectiveGasPrice": "0xcbafd3573",
      "from": "0xe2a5d3ee095de5039d42b00ddc2991bd61e48d55",
      "to": "0xc79b68de65c997de1b5231c6a8c6ad15b0df7c83",
      "contractAddress": null
    }
  ],
  "libraries": [],
  "pending": [],
  "returns": {
    "receiverContract": {
      "internal_type": "contract ProgrammableTokenReceiver",
      "value": "0xC79b68De65C997DE1b5231c6A8C6Ad15B0Df7C83"
    }
  },
  "timestamp": 1771719110247,
  "chain": 80002,
  "commit": "13d36df"
}