{
  "transactions": [
    {
      "hash": "0x0eb39cabc4db5d69595faa389c4820ad1a9d7b42911270e57ff4965f49e999b2",
      "transactionType": "CALL",
      "contractName": null,
      "contractAddress": "0x7541ceb8a6db4e8c8a58092e186f9d8abedc7ef2",
      "function": "allowlistSourceChain(uint64,bool)",
      "arguments": [
        "16015286601757825753",
        "true"
      ],
      "transaction": {
        "from": "0xe2a5d3ee095de5039d42b00ddc2991bd61e48d55",
        "to": "0x7541ceb8a6db4e8c8a58092e186f9d8abedc7ef2",
        "gas": "0x9706",
        "value": "0x0",
        "input": "0xdb04fa49000000000000000000000000000000000000000000000000de41ba4fc9d91ad90000000000000000000000000000000000000000000000000000000000000001",
        "nonce": "0x3a",
        "chainId": "0x13882"
      },
      "additionalContracts": [],
      "isFixedGasLimit": false
    },
    {
      "hash": "0xd9d0395b3d1d175de68216d20163cab7377303fb01acd77f1f296cb664ce7649",
      "transactionType": "CALL",
      "contractName": null,
      "contractAddress": "0x7541ceb8a6db4e8c8a58092e186f9d8abedc7ef2",
      "function": "allowlistSender(uint64,address,bool)",
      "arguments": [
        "16015286601757825753",
        "0x91a936a3a3e4361e7F5b05270631c5e1d113f0d4",
        "true"
      ],
      "transaction": {
        "from": "0xe2a5d3ee095de5039d42b00ddc2991bd61e48d55",
        "to": "0x7541ceb8a6db4e8c8a58092e186f9d8abedc7ef2",
        "gas": "0xa58d",
        "value": "0x0",
        "input": "0xf039a009000000000000000000000000000000000000000000000000de41ba4fc9d91ad900000000000000000000000091a936a3a3e4361e7f5b05270631c5e1d113f0d40000000000000000000000000000000000000000000000000000000000000001",
        "nonce": "0x3b",
        "chainId": "0x13882"
      },
      "additionalContracts": [],
      "isFixedGasLimit": false
    },
    {
      "hash": "0x28ff687ddc672245d41d2723d8ed2732cb588f2d37d4cb2303e6a4ddfe72879d",
      "transactionType": "CALL",
      "contractName": null,
      "contractAddress": "0x7541ceb8a6db4e8c8a58092e186f9d8abedc7ef2",
      "function": "setManualActionSender(uint64,address,bool)",
      "arguments": [
        "16015286601757825753",
        "0x91a936a3a3e4361e7F5b05270631c5e1d113f0d4",
        "true"
      ],
      "transaction": {
        "from": "0xe2a5d3ee095de5039d42b00ddc2991bd61e48d55",
        "to": "0x7541ceb8a6db4e8c8a58092e186f9d8abedc7ef2",
        "gas": "0xa4a2",
        "value": "0x0",
        "input": "0x71a787b3000000000000000000000000000000000000000000000000de41ba4fc9d91ad900000000000000000000000091a936a3a3e4361e7f5b05270631c5e1d113f0d40000000000000000000000000000000000000000000000000000000000000001",
        "nonce": "0x3c",
        "chainId": "0x13882"
      },
      "additionalContracts": [],
      "isFixedGasLimit": false
    }
  ],
  "receipts": [
    {
      "status": "0x1",
      "cumulativeGasUsed": "0x6d57",
      "logs": [
        {
          "address": "0x7541ceb8a6db4e8c8a58092e186f9d8abedc7ef2",
          "topics": [
            "0x1792cf82ab5a84d3a3694d8eb55ceb2c81f20e473604e72a0a63c83312c318b8",
            "0x000000000000000000000000000000000000000000000000de41ba4fc9d91ad9"
          ],
          "data": "0x0000000000000000000000000000000000000000000000000000000000000001",
          "blockHash": "0xc14e781d89a02fd0e2a5d40ad56adb5377b92689b15e0b1af831e8e8912852fa",
          "blockNumber": "0x20b5d3e",
          "blockTimestamp": "0x699a642f",
          "transactionHash": "0x0eb39cabc4db5d69595faa389c4820ad1a9d7b42911270e57ff4965f49e999b2",
          "transactionIndex": "0x0",
          "logIndex": "0x0",
          "removed": false
        },
        {
          "address": "0x0000000000000000000000000000000000001010",
          "topics": [
            "0x4dfe1bbbcf077ddc3e01291eea2d5c70c2b422b415d95645b9adcfd678cb1d63",
            "0x0000000000000000000000000000000000000000000000000000000000001010",
            "0x000000000000000000000000e2a5d3ee095de5039d42b00ddc2991bd61e48d55",
            "0x0000000000000000000000007ee41d8a25641000661b1ef5e6ae8a00400466b0"
          ],
          "data": "0x0000000000000000000000000000000000000000000000000003b96a3aafaaa800000000000000000000000000000000000000000000000014cec2585f91d5e9000000000000000000000000000000000000000000002447bfd8c0af5d9649b800000000000000000000000000000000000000000000000014cb08ee24e22b41000000000000000000000000000000000000000000002447bfdc7a199845f460",
          "blockHash": "0xc14e781d89a02fd0e2a5d40ad56adb5377b92689b15e0b1af831e8e8912852fa",
          "blockNumber": "0x20b5d3e",
          "blockTimestamp": "0x699a642f",
          "transactionHash": "0x0eb39cabc4db5d69595faa389c4820ad1a9d7b42911270e57ff4965f49e999b2",
          "transactionIndex": "0x0",
          "logIndex": "0x1",
          "removed": false
        }
      ],
      "logsBloom": "0x00000000000000000000000000000000000000000000000000000000000080000000000200004000080001000000000000008000000000000000000008008000000000000000000000000000000000800000000000000000000100000000000000000000000000000000000000010000000000000000000480000000800000000000000000000000020000000400000000000020000000000000000000000000200000000000000010000000000000000000000000000000000000000000004000000000000000000001000000000000000000400000000000100000000000000000000000000000000000000000000000000000000000000000000000100000",
      "type": "0x2",
      "transactionHash": "0x0eb39cabc4db5d69595faa389c4820ad1a9d7b42911270e57ff4965f49e999b2",
      "transactionIndex": "0x0",
      "blockHash": "0xc14e781d89a02fd0e2a5d40ad56adb5377b92689b15e0b1af831e8e8912852fa",
      "blockNumber": "0x20b5d3e",
      "gasUsed": "0x6d57",
      "effectiveGasPrice": "0x8b840d9d7",
      "from": "0xe2a5d3ee095de5039d42b00ddc2991bd61e48d55",
      "to": "0x7541ceb8a6db4e8c8a58092e186f9d8abedc7ef2",
      "contractAddress": null
    },
    {
      "status": "0x1",
      "cumulativeGasUsed": "0x7133",
      "logs": [
        {
          "address": "0x7541ceb8a6db4e8c8a58092e186f9d8abedc7ef2",
          "topics": [
            "0x9a239a399a3630c36025f8c4b64b701240016edc1e1fdb83741c0c52f5d743d7",
            "0x000000000000000000000000000000000000000000000000de41ba4fc9d91ad9",
            "0x00000000000000000000000091a936a3a3e4361e7f5b05270631c5e1d113f0d4"
          ],
          "data": "0x0000000000000000000000000000000000000000000000000000000000000001",
          "blockHash": "0x7a5884f68ec95dadd558d058ca10b2b0729b502d4d2d0d19342ca2f280ebe9a7",
          "blockNumber": "0x20b5d40",
          "blockTimestamp": "0x699a6433",
          "transactionHash": "0xd9d0395b3d1d175de68216d20163cab7377303fb01acd77f1f296cb664ce7649",
          "transactionIndex": "0x0",
          "logIndex": "0x0",
          "removed": false
        },
        {
          "address": "0x0000000000000000000000000000000000001010",
          "topics": [
            "0x4dfe1bbbcf077ddc3e01291eea2d5c70c2b422b415d95645b9adcfd678cb1d63",
            "0x0000000000000000000000000000000000000000000000000000000000001010",
            "0x000000000000000000000000e2a5d3ee095de5039d42b00ddc2991bd61e48d55",
            "0x0000000000000000000000007ee41d8a25641000661b1ef5e6ae8a00400466b0"
          ],
          "data": "0x0000000000000000000000000000000000000000000000000003db1154f7714800000000000000000000000000000000000000000000000014cb08ee24c742d8000000000000000000000000000000000000000000002447bfec5bd0959670c000000000000000000000000000000000000000000000000014c72ddccfcfd190000000000000000000000000000000000000000000002447bff036e1ea8de208",
          "blockHash": "0x7a5884f68ec95dadd558d058ca10b2b0729b502d4d2d0d19342ca2f280ebe9a7",
          "blockNumber": "0x20b5d40",
          "blockTimestamp": "0x699a6433",
          "transactionHash": "0xd9d0395b3d1d175de68216d20163cab7377303fb01acd77f1f296cb664ce7649",
          "transactionIndex": "0x0",
          "logIndex": "0x1",
          "removed": false
        }
      ],
      "logsBloom": "0x00000000000000000000000000010000000000000000000000000000000080000000000000004000000001000000000000008000000000000000000008008000000000000000000000000000000000800000000000000000000100000000001000000000000000000000000000010000000000000000000480000000000000000000000000000000020000000400000000000020000000000000000000000000200000000000004010000800000000000000000000000000000000000000204000020000000000000001000000000000000000400000000000100000000000000000000000000000000000000000000000000000000000000000000000100000",
      "type": "0x2",
      "transactionHash": "0xd9d0395b3d1d175de68216d20163cab7377303fb01acd77f1f296cb664ce7649",
      "transactionIndex": "0x0",
      "blockHash": "0x7a5884f68ec95dadd558d058ca10b2b0729b502d4d2d0d19342ca2f280ebe9a7",
      "blockNumber": "0x20b5d40",
      "gasUsed": "0x7133",
      "effectiveGasPrice": "0x8b840d9d7",
      "from": "0xe2a5d3ee095de5039d42b00ddc2991bd61e48d55",
      "to": "0x7541ceb8a6db4e8c8a58092e186f9d8abedc7ef2",
      "contractAddress": null
    },
    {
      "status": "0x1",
      "cumulativeGasUsed": "0x2542a",
      "logs": [
        {
          "address": "0x7541ceb8a6db4e8c8a58092e186f9d8abedc7ef2",
          "topics": [
            "0x0a1d1dfba71eeafb77f038be33a594c3f21ace62341bcf6dd8e1867de29ac27b",
            "0x000000000000000000000000000000000000000000000000de41ba4fc9d91ad9",
            "0x00000000000000000000000091a936a3a3e4361e7f5b05270631c5e1d113f0d4"
          ],
          "data": "0x0000000000000000000000000000000000000000000000000000000000000001",
          "blockHash": "0xfd25fb9504e0e257e4ddd5646f106710c44b213e517c106be3e36f0fee16d4cc",
          "blockNumber": "0x20b5d42",
          "blockTimestamp": "0x699a6437",
          "transactionHash": "0x28ff687ddc672245d41d2723d8ed2732cb588f2d37d4cb2303e6a4ddfe72879d",
          "transactionIndex": "0x1",
          "logIndex": "0x4",
          "removed": false
        },
        {
          "address": "0x0000000000000000000000000000000000001010",
          "topics": [
            "0x4dfe1bbbcf077ddc3e01291eea2d5c70c2b422b415d95645b9adcfd678cb1d63",
            "0x0000000000000000000000000000000000000000000000000000000000001010",
            "0x000000000000000000000000e2a5d3ee095de5039d42b00ddc2991bd61e48d55",
            "0x0000000000000000000000007ee41d8a25641000661b1ef5e6ae8a00400466b0"
          ],
          "data": "0x0000000000000000000000000000000000000000000000000003d595742e98b000000000000000000000000000000000000000000000000014c72ddccfb3f603000000000000000000000000000000000000000000002447c00d5ce6daae48d000000000000000000000000000000000000000000000000014c358475b855d53000000000000000000000000000000000000000000002447c011327c4edce180",
          "blockHash": "0xfd25fb9504e0e257e4ddd5646f106710c44b213e517c106be3e36f0fee16d4cc",
          "blockNumber": "0x20b5d42",
          "blockTimestamp": "0x699a6437",
          "transactionHash": "0x28ff687ddc672245d41d2723d8ed2732cb588f2d37d4cb2303e6a4ddfe72879d",
          "transactionIndex": "0x1",
          "logIndex": "0x5",
          "removed": false
        }
      ],
      "logsBloom": "0x00000000000000000000000000000000000000000000000000000000000080000000000000004000000001004000000000008000000000000000000008008000000000000000000000000000000000800000000000000000000100000000000000000000000000000000000000010000000000000000000480000004000000000000000000000000020000000400000000000020000000000000000000000000200000000000004010000800000000000000000000000000000000000000204000000000040000000001000000000000000000400000000000100000000000000000000000000000000000000000000000000000000000000000000000100000",
      "type": "0x2",
      "transactionHash": "0x28ff687ddc672245d41d2723d8ed2732cb588f2d37d4cb2303e6a4ddfe72879d",
      "transactionIndex": "0x1",
      "blockHash": "0xfd25fb9504e0e257e4ddd5646f106710c44b213e517c106be3e36f0fee16d4cc",
      "blockNumber": "0x20b5d42",
      "gasUsed": "0x7092",
      "effectiveGasPrice": "0x8b840d9d7",
      "from": "0xe2a5d3ee095de5039d42b00ddc2991bd61e48d55",
      "to": "0x7541ceb8a6db4e8c8a58092e186f9d8abedc7ef2",
      "contractAddress": null
    }
  ],
  "libraries": [],
  "pending": [],
  "returns": {},
  "timestamp": 1771725880757,
  "chain": 80002,
  "commit": "13d36df"
}