{
  "transactions": [
    {
      "hash": "0x7aa04b0414ac7a7231841435d10ea6382ebe184fec836cfcf56e6ff6883272d6",
      "transactionType": "CALL",
      "contractName": null,
      "contractAddress": "0xc93a5d3bda648bb99b8f6990e4e88c94241cd838",
      "function": "updateExtraArgs(bytes)",
      "arguments": [
        "0x181dcf10000000000000000000000000000000000000000000000000000000000007a1200000000000000000000000000000000000000000000000000000000000000000"
      ],
      "transaction": {
        "from": "0xe2a5d3ee095de5039d42b00ddc2991bd61e48d55",
        "to": "0xc93a5d3bda648bb99b8f6990e4e88c94241cd838",
        "gas": "0xcedc",
        "value": "0x0",
        "input": "0xe12853f900000000000000000000000000000000000000000000000000000000000000200000000000000000000000000000000000000000000000000000000000000044181dcf10000000000000000000000000000000000000000000000000000000000007a120000000000000000000000000000000000000000000000000000000000000000000000000000000000000000000000000000000000000000000000000",
        "nonce": "0x49",
        "chainId": "0xaa36a7"
      },
      "additionalContracts": [],
      "isFixedGasLimit": false
    },
    {
      "hash": "0xe941abc7e24563e451771fb566d1eb80e4ca0a8f8be5a84af9a801403e3fd0bd",
      "transactionType": "CALL",
      "contractName": null,
      "contractAddress": "0xfd57b4ddbf88a4e07ff4e34c487b99af2fe82a05",
      "function": "approve(address,uint256)",
      "arguments": [
        "0xc93A5d3BdA648bb99B8F6990e4E88C94241Cd838",
        "1000000000000000000"
      ],
      "transaction": {
        "from": "0xe2a5d3ee095de5039d42b00ddc2991bd61e48d55",
        "to": "0xfd57b4ddbf88a4e07ff4e34c487b99af2fe82a05",
        "gas": "0x108ad",
        "value": "0x0",
        "input": "0x095ea7b3000000000000000000000000c93a5d3bda648bb99b8f6990e4e88c94241cd8380000000000000000000000000000000000000000000000000de0b6b3a7640000",
        "nonce": "0x4a",
        "chainId": "0xaa36a7"
      },
      "additionalContracts": [],
      "isFixedGasLimit": false
    },
    {
      "hash": "0x71f5d34dcf2a5c86ba2125e2d4d10b0a160d4ce3b655911dad1def7f72b9ed5f",
      "transactionType": "CALL",
      "contractName": null,
      "contractAddress": "0xc93a5d3bda648bb99b8f6990e4e88c94241cd838",
      "function": "sendPayLink(uint64,address,address,uint256,(address,string,bytes,uint256))",
      "arguments": [
        "16281711391670634445",
        "0x7E050e0D771dBcf0BcBD6f00b8beAa781667319c",
        "0xFd57b4ddBf88a4e07fF4e34C487b99af2Fe82a05",
        "1000000000000000000",
        "(0xb3CcDfCC821fC7693e0CbF4b352f7Ca51b33c89B, transfer, 0x, 1771716888)"
      ],
      "transaction": {
        "from": "0xe2a5d3ee095de5039d42b00ddc2991bd61e48d55",
        "to": "0xc93a5d3bda648bb99b8f6990e4e88c94241cd838",
        "gas": "0x648fb",
        "value": "0x0",
        "input": "0xc41c5bca000000000000000000000000000000000000000000000000e1f4423f1bf587cd0000000000000000000000007e050e0d771dbcf0bcbd6f00b8beaa781667319c000000000000000000000000fd57b4ddbf88a4e07ff4e34c487b99af2fe82a050000000000000000000000000000000000000000000000000de0b6b3a764000000000000000000000000000000000000000000000000000000000000000000a0000000000000000000000000b3ccdfcc821fc7693e0cbf4b352f7ca51b33c89b000000000000000000000000000000000000000000000000000000000000008000000000000000000000000000000000000000000000000000000000000000c000000000000000000000000000000000000000000000000000000000699a411800000000000000000000000000000000000000000000000000000000000000087472616e736665720000000000000000000000000000000000000000000000000000000000000000000000000000000000000000000000000000000000000000",
        "nonce": "0x4b",
        "chainId": "0xaa36a7"
      },
      "additionalContracts": [],
      "isFixedGasLimit": false
    }
  ],
  "receipts": [
    {
      "status": "0x1",
      "cumulativeGasUsed": "0x3323b3",
      "logs": [
        {
          "address": "0xc93a5d3bda648bb99b8f6990e4e88c94241cd838",
          "topics": [
            "0xd7693fa685e87b95e7bd6dc60982f82ce2510fe103f2b5bfa0f842c392c4f060"
          ],
          "data": "0x00000000000000000000000000000000000000000000000000000000000000200000000000000000000000000000000000000000000000000000000000000044181dcf10000000000000000000000000000000000000000000000000000000000007a120000000000000000000000000000000000000000000000000000000000000000000000000000000000000000000000000000000000000000000000000",
          "blockHash": "0x3aab8a4d491a44007a2049870fcd632b4f801400cdf7931eaa58ed9ddf7a8241",
          "blockNumber": "0x9d34bb",
          "blockTimestamp": "0x6998efc8",
          "transactionHash": "0x7aa04b0414ac7a7231841435d10ea6382ebe184fec836cfcf56e6ff6883272d6",
          "transactionIndex": "0x23",
          "logIndex": "0x2c",
          "removed": false
        }
      ],
      "logsBloom": "0x00000000000000080000000000000000000000000000000000000000000000000000000000000000000000000000000000000000000000000000000000000000000000000000000000000000000000000000000000000000000000010000000000000002000000000000000000000000000000000000000000000000000000000000000000000000000000000000000000000000000000000000000000000000000000000000000000000000000000000000000000000000200000000000000000000000002000000000000000000000000000000000000000000000000000000000000000000000000000000000000000000000000000000000000000010000",
      "type": "0x2",
      "transactionHash": "0x7aa04b0414ac7a7231841435d10ea6382ebe184fec836cfcf56e6ff6883272d6",
      "transactionIndex": "0x23",
      "blockHash": "0x3aab8a4d491a44007a2049870fcd632b4f801400cdf7931eaa58ed9ddf7a8241",
      "blockNumber": "0x9d34bb",
      "gasUsed": "0x8d72",
      "effectiveGasPrice": "0x1ccbdde",
      "from": "0xe2a5d3ee095de5039d42b00ddc2991bd61e48d55",
      "to": "0xc93a5d3bda648bb99b8f6990e4e88c94241cd838",
      "contractAddress": null
    },
    {
      "status": "0x1",
      "cumulativeGasUsed": "0x97d48d",
      "logs": [
        {
          "address": "0xfd57b4ddbf88a4e07ff4e34c487b99af2fe82a05",
          "topics": [
            "0x8c5be1e5ebec7d5bd14f71427d1e84f3dd0314c0f7b2291e5b200ac8c7c3b925",
            "0x000000000000000000000000e2a5d3ee095de5039d42b00ddc2991bd61e48d55",
            "0x000000000000000000000000c93a5d3bda648bb99b8f6990e4e88c94241cd838"
          ],
          "data": "0x0000000000000000000000000000000000000000000000000de0b6b3a7640000",
          "blockHash": "0x6b9083ad238e0f32e7bda1fe851f4a1c892a7fc469c0f1e540df49254a6e2070",
          "blockNumber": "0x9d34be",
          "blockTimestamp": "0x6998eff8",
          "transactionHash": "0xe941abc7e24563e451771fb566d1eb80e4ca0a8f8be5a84af9a801403e3fd0bd",
          "transactionIndex": "0x28",
          "logIndex": "0xa6",
          "removed": false
        }
      ],
      "logsBloom": "0x00000002000000000000000000000000000000000000000000000000000080000000000000000000000000000000000000000000000000000000000000208000000000000000000000000000000004000000000080000000000000000000000000000000000000000000000000080000000000000000000400000000000000000000000000000000000000000000000000000000000000000000000000000000020000000000000040000000000000080000000000000000000000000000000000000000000000000000000000000000000000000000000000000000000000000010000000000000000000000000000000000000000000000000000000000000",
      "type": "0x2",
      "transactionHash": "0xe941abc7e24563e451771fb566d1eb80e4ca0a8f8be5a84af9a801403e3fd0bd",
      "transactionIndex": "0x28",
      "blockHash": "0x6b9083ad238e0f32e7bda1fe851f4a1c892a7fc469c0f1e540df49254a6e2070",
      "blockNumber": "0x9d34be",
      "gasUsed": "0xb4fa",
      "effectiveGasPrice": "0x1cca8b8",
      "from": "0xe2a5d3ee095de5039d42b00ddc2991bd61e48d55",
      "to": "0xfd57b4ddbf88a4e07ff4e34c487b99af2fe82a05",
      "contractAddress": null
    },
    {
      "status": "0x1",
      "cumulativeGasUsed": "0x3c25fb",
      "logs": [
        {
          "address": "0xfd57b4ddbf88a4e07ff4e34c487b99af2fe82a05",
          "topics": [
            "0x8c5be1e5ebec7d5bd14f71427d1e84f3dd0314c0f7b2291e5b200ac8c7c3b925",
            "0x000000000000000000000000e2a5d3ee095de5039d42b00ddc2991bd61e48d55",
            "0x000000000000000000000000c93a5d3bda648bb99b8f6990e4e88c94241cd838"
          ],
          "data": "0x0000000000000000000000000000000000000000000000000000000000000000",
          "blockHash": "0xbd44eb996291f7926856c33f8352e48764bdf570bdbbdd44e16598d86dded378",
          "blockNumber": "0x9d34c3",
          "blockTimestamp": "0x6998f034",
          "transactionHash": "0x71f5d34dcf2a5c86ba2125e2d4d10b0a160d4ce3b655911dad1def7f72b9ed5f",
          "transactionIndex": "0x23",
          "logIndex": "0x2f",
          "removed": false
        },
        {
          "address": "0xfd57b4ddbf88a4e07ff4e34c487b99af2fe82a05",
          "topics": [
            "0xddf252ad1be2c89b69c2b068fc378daa952ba7f163c4a11628f55a4df523b3ef",
            "0x000000000000000000000000e2a5d3ee095de5039d42b00ddc2991bd61e48d55",
            "0x000000000000000000000000c93a5d3bda648bb99b8f6990e4e88c94241cd838"
          ],
          "data": "0x0000000000000000000000000000000000000000000000000de0b6b3a7640000",
          "blockHash": "0xbd44eb996291f7926856c33f8352e48764bdf570bdbbdd44e16598d86dded378",
          "blockNumber": "0x9d34c3",
          "blockTimestamp": "0x6998f034",
          "transactionHash": "0x71f5d34dcf2a5c86ba2125e2d4d10b0a160d4ce3b655911dad1def7f72b9ed5f",
          "transactionIndex": "0x23",
          "logIndex": "0x30",
          "removed": false
        },
        {
          "address": "0x779877a7b0d9e8603169ddbd7836e478b4624789",
          "topics": [
            "0x8c5be1e5ebec7d5bd14f71427d1e84f3dd0314c0f7b2291e5b200ac8c7c3b925",
            "0x000000000000000000000000c93a5d3bda648bb99b8f6990e4e88c94241cd838",
            "0x0000000000000000000000000bf3de8c5d3e8a2b34d2beeb17abfcebaf363a59"
          ],
          "data": "0x00000000000000000000000000000000000000000000000000788858fd1991cd",
          "blockHash": "0xbd44eb996291f7926856c33f8352e48764bdf570bdbbdd44e16598d86dded378",
          "blockNumber": "0x9d34c3",
          "blockTimestamp": "0x6998f034",
          "transactionHash": "0x71f5d34dcf2a5c86ba2125e2d4d10b0a160d4ce3b655911dad1def7f72b9ed5f",
          "transactionIndex": "0x23",
          "logIndex": "0x31",
          "removed": false
        },
        {
          "address": "0xfd57b4ddbf88a4e07ff4e34c487b99af2fe82a05",
          "topics": [
            "0x8c5be1e5ebec7d5bd14f71427d1e84f3dd0314c0f7b2291e5b200ac8c7c3b925",
            "0x000000000000000000000000c93a5d3bda648bb99b8f6990e4e88c94241cd838",
            "0x0000000000000000000000000bf3de8c5d3e8a2b34d2beeb17abfcebaf363a59"
          ],
          "data": "0x0000000000000000000000000000000000000000000000000de0b6b3a7640000",
          "blockHash": "0xbd44eb996291f7926856c33f8352e48764bdf570bdbbdd44e16598d86dded378",
          "blockNumber": "0x9d34c3",
          "blockTimestamp": "0x6998f034",
          "transactionHash": "0x71f5d34dcf2a5c86ba2125e2d4d10b0a160d4ce3b655911dad1def7f72b9ed5f",
          "transactionIndex": "0x23",
          "logIndex": "0x32",
          "removed": false
        },
        {
          "address": "0x779877a7b0d9e8603169ddbd7836e478b4624789",
          "topics": [
            "0xddf252ad1be2c89b69c2b068fc378daa952ba7f163c4a11628f55a4df523b3ef",
            "0x000000000000000000000000c93a5d3bda648bb99b8f6990e4e88c94241cd838",
            "0x000000000000000000000000f9765c80f6448e6d4d02bef4a6b4152131a2f513"
          ],
          "data": "0x00000000000000000000000000000000000000000000000000788858fd1991cd",
          "blockHash": "0xbd44eb996291f7926856c33f8352e48764bdf570bdbbdd44e16598d86dded378",
          "blockNumber": "0x9d34c3",
          "blockTimestamp": "0x6998f034",
          "transactionHash": "0x71f5d34dcf2a5c86ba2125e2d4d10b0a160d4ce3b655911dad1def7f72b9ed5f",
          "transactionIndex": "0x23",
          "logIndex": "0x33",
          "removed": false
        },
        {
          "address": "0x779877a7b0d9e8603169ddbd7836e478b4624789",
          "topics": [
            "0x8c5be1e5ebec7d5bd14f71427d1e84f3dd0314c0f7b2291e5b200ac8c7c3b925",
            "0x000000000000000000000000c93a5d3bda648bb99b8f6990e4e88c94241cd838",
            "0x0000000000000000000000000bf3de8c5d3e8a2b34d2beeb17abfcebaf363a59"
          ],
          "data": "0x0000000000000000000000000000000000000000000000000000000000000000",
          "blockHash": "0xbd44eb996291f7926856c33f8352e48764bdf570bdbbdd44e16598d86dded378",
          "blockNumber": "0x9d34c3",
          "blockTimestamp": "0x6998f034",
          "transactionHash": "0x71f5d34dcf2a5c86ba2125e2d4d10b0a160d4ce3b655911dad1def7f72b9ed5f",
          "transactionIndex": "0x23",
          "logIndex": "0x34",
          "removed": false
        },
        {
          "address": "0xfd57b4ddbf88a4e07ff4e34c487b99af2fe82a05",
          "topics": [
            "0x8c5be1e5ebec7d5bd14f71427d1e84f3dd0314c0f7b2291e5b200ac8c7c3b925",
            "0x000000000000000000000000c93a5d3bda648bb99b8f6990e4e88c94241cd838",
            "0x0000000000000000000000000bf3de8c5d3e8a2b34d2beeb17abfcebaf363a59"
          ],
          "data": "0x0000000000000000000000000000000000000000000000000000000000000000",
          "blockHash": "0xbd44eb996291f7926856c33f8352e48764bdf570bdbbdd44e16598d86dded378",
          "blockNumber": "0x9d34c3",
          "blockTimestamp": "0x6998f034",
          "transactionHash": "0x71f5d34dcf2a5c86ba2125e2d4d10b0a160d4ce3b655911dad1def7f72b9ed5f",
          "transactionIndex": "0x23",
          "logIndex": "0x35",
          "removed": false
        },
        {
          "address": "0xfd57b4ddbf88a4e07ff4e34c487b99af2fe82a05",
          "topics": [
            "0xddf252ad1be2c89b69c2b068fc378daa952ba7f163c4a11628f55a4df523b3ef",
            "0x000000000000000000000000c93a5d3bda648bb99b8f6990e4e88c94241cd838",
            "0x0000000000000000000000004ccbdd6cf18800360161e4d2a519a2047176bdf0"
          ],
          "data": "0x0000000000000000000000000000000000000000000000000de0b6b3a7640000",
          "blockHash": "0xbd44eb996291f7926856c33f8352e48764bdf570bdbbdd44e16598d86dded378",
          "blockNumber": "0x9d34c3",
          "blockTimestamp": "0x6998f034",
          "transactionHash": "0x71f5d34dcf2a5c86ba2125e2d4d10b0a160d4ce3b655911dad1def7f72b9ed5f",
          "transactionIndex": "0x23",
          "logIndex": "0x36",
          "removed": false
        },
        {
          "address": "0x4ccbdd6cf18800360161e4d2a519a2047176bdf0",
          "topics": [
            "0x1871cdf8010e63f2eb8384381a68dfa7416dc571a5517e66e88b2d2d0c0a690a"
          ],
          "data": "0x0000000000000000000000000000000000000000000000000de0b6b3a7640000",
          "blockHash": "0xbd44eb996291f7926856c33f8352e48764bdf570bdbbdd44e16598d86dded378",
          "blockNumber": "0x9d34c3",
          "blockTimestamp": "0x6998f034",
          "transactionHash": "0x71f5d34dcf2a5c86ba2125e2d4d10b0a160d4ce3b655911dad1def7f72b9ed5f",
          "transactionIndex": "0x23",
          "logIndex": "0x37",
          "removed": false
        },
        {
          "address": "0xfd57b4ddbf88a4e07ff4e34c487b99af2fe82a05",
          "topics": [
            "0xddf252ad1be2c89b69c2b068fc378daa952ba7f163c4a11628f55a4df523b3ef",
            "0x0000000000000000000000004ccbdd6cf18800360161e4d2a519a2047176bdf0",
            "0x0000000000000000000000000000000000000000000000000000000000000000"
          ],
          "data": "0x0000000000000000000000000000000000000000000000000de0b6b3a7640000",
          "blockHash": "0xbd44eb996291f7926856c33f8352e48764bdf570bdbbdd44e16598d86dded378",
          "blockNumber": "0x9d34c3",
          "blockTimestamp": "0x6998f034",
          "transactionHash": "0x71f5d34dcf2a5c86ba2125e2d4d10b0a160d4ce3b655911dad1def7f72b9ed5f",
          "transactionIndex": "0x23",
          "logIndex": "0x38",
          "removed": false
        },
        {
          "address": "0x4ccbdd6cf18800360161e4d2a519a2047176bdf0",
          "topics": [
            "0x696de425f79f4a40bc6d2122ca50507f0efbeabbff86a84871b7196ab8ea8df7",
            "0x000000000000000000000000f9765c80f6448e6d4d02bef4a6b4152131a2f513"
          ],
          "data": "0x0000000000000000000000000000000000000000000000000de0b6b3a7640000",
          "blockHash": "0xbd44eb996291f7926856c33f8352e48764bdf570bdbbdd44e16598d86dded378",
          "blockNumber": "0x9d34c3",
          "blockTimestamp": "0x6998f034",
          "transactionHash": "0x71f5d34dcf2a5c86ba2125e2d4d10b0a160d4ce3b655911dad1def7f72b9ed5f",
          "transactionIndex": "0x23",
          "logIndex": "0x39",
          "removed": false
        },
        {
          "address": "0xf9765c80f6448e6d4d02bef4a6b4152131a2f513",
          "topics": [
            "0xd0c3c799bf9e2639de44391e7f524d229b2b55f5b1ea94b2bf7da42f7243dddd"
          ],
          "data": "0x0000000000000000000000000000000000000000000000000000000000000020000000000000000000000000000000000000000000000000de41ba4fc9d91ad9000000000000000000000000c93a5d3bda648bb99b8f6990e4e88c94241cd8380000000000000000000000007e050e0d771dbcf0bcbd6f00b8beaa781667319c00000000000000000000000000000000000000000000000000000000000010c1000000000000000000000000000000000000000000000000000000000007a12000000000000000000000000000000000000000000000000000000000000000000000000000000000000000000000000000000000000000000000000000000001000000000000000000000000779877a7b0d9e8603169ddbd7836e478b462478900000000000000000000000000000000000000000000000000788858fd1991cd00000000000000000000000000000000000000000000000000000000000001a000000000000000000000000000000000000000000000000000000000000002e000000000000000000000000000000000000000000000000000000000000003405236c01c1c57b2a74261935a14b54cee7e06947a7ed8212f6a952207e908ca2500000000000000000000000000000000000000000000000000000000000001200000000000000000000000000000000000000000000000000000000000000040000000000000000000000000e2a5d3ee095de5039d42b00ddc2991bd61e48d55000000000000000000000000b3ccdfcc821fc7693e0cbf4b352f7ca51b33c89b000000000000000000000000000000000000000000000000000000000000008000000000000000000000000000000000000000000000000000000000000000c000000000000000000000000000000000000000000000000000000000699a411800000000000000000000000000000000000000000000000000000000000000087472616e7366657200000000000000000000000000000000000000000000000000000000000000000000000000000000000000000000000000000000000000000000000000000000000000000000000000000000000000000000000000000001000000000000000000000000fd57b4ddbf88a4e07ff4e34c487b99af2fe82a050000000000000000000000000000000000000000000000000de0b6b3a76400000000000000000000000000000000000000000000000000000000000000000001000000000000000000000000000000000000000000000000000000000000002000000000000000000000000000000000000000000000000000000000000001600000000000000000000000000000000000000000000000000000000000000020000000000000000000000000000000000000000000000000000000000000008000000000000000000000000000000000000000000000000000000000000000c000000000000000000000000000000000000000000000000000000000000001000000000000000000000000000000000000000000000000000000000000015f9000000000000000000000000000000000000000000000000000000000000000200000000000000000000000004ccbdd6cf18800360161e4d2a519a2047176bdf00000000000000000000000000000000000000000000000000000000000000020000000000000000000000000cab0ef91bee323d1a617c0a027ee753afd6997e400000000000000000000000000000000000000000000000000000000000000200000000000000000000000000000000000000000000000000000000000000012",
          "blockHash": "0xbd44eb996291f7926856c33f8352e48764bdf570bdbbdd44e16598d86dded378",
          "blockNumber": "0x9d34c3",
          "blockTimestamp": "0x6998f034",
          "transactionHash": "0x71f5d34dcf2a5c86ba2125e2d4d10b0a160d4ce3b655911dad1def7f72b9ed5f",
          "transactionIndex": "0x23",
          "logIndex": "0x3a",
          "removed": false
        },
        {
          "address": "0xc93a5d3bda648bb99b8f6990e4e88c94241cd838",
          "topics": [
            "0x8eaea28f391fe0afa81501eabdb6242b796a0a7993726ce041e6ac18dd4eaaae",
            "0x5236c01c1c57b2a74261935a14b54cee7e06947a7ed8212f6a952207e908ca25",
            "0x000000000000000000000000000000000000000000000000e1f4423f1bf587cd",
            "0x0000000000000000000000007e050e0d771dbcf0bcbd6f00b8beaa781667319c"
          ],
          "data": "0x000000000000000000000000e2a5d3ee095de5039d42b00ddc2991bd61e48d55000000000000000000000000fd57b4ddbf88a4e07ff4e34c487b99af2fe82a050000000000000000000000000000000000000000000000000de0b6b3a7640000000000000000000000000000b3ccdfcc821fc7693e0cbf4b352f7ca51b33c89b0000000000000000000000000000000000000000000000000000000000000100000000000000000000000000779877a7b0d9e8603169ddbd7836e478b462478900000000000000000000000000000000000000000000000000788858fd1991cd49074260e824fa6e836215aeb3eed6615fcaafddd05a77cf9026f929acde0c5800000000000000000000000000000000000000000000000000000000000000087472616e73666572000000000000000000000000000000000000000000000000",
          "blockHash": "0xbd44eb996291f7926856c33f8352e48764bdf570bdbbdd44e16598d86dded378",
          "blockNumber": "0x9d34c3",
          "blockTimestamp": "0x6998f034",
          "transactionHash": "0x71f5d34dcf2a5c86ba2125e2d4d10b0a160d4ce3b655911dad1def7f72b9ed5f",
          "transactionIndex": "0x23",
          "logIndex": "0x3b",
          "removed": false
        }
      ],
      "logsBloom": "0x0040000700004008000000200000000000000000008000000000400000008000000020000000000000200000000000000000000000000000000000000020800000000000000002000000000800000400000000008080000000000008000000000000000206010000000000400008080a040040000200000400000010000000000000000000002000000000000000800000000000800008000000000000000000020000000000080440000000000000080000010000200000200100000000000000200002000000000000080000000000000000000010000100000004000420008010000000000000000000000000000004000000000004000000000000020000",
      "type": "0x2",
      "transactionHash": "0x71f5d34dcf2a5c86ba2125e2d4d10b0a160d4ce3b655911dad1def7f72b9ed5f",
      "transactionIndex": "0x23",
      "blockHash": "0xbd44eb996291f7926856c33f8352e48764bdf570bdbbdd44e16598d86dded378",
      "blockNumber": "0x9d34c3",
      "gasUsed": "0x48ce0",
      "effectiveGasPrice": "0x1c58d14",
      "from": "0xe2a5d3ee095de5039d42b00ddc2991bd61e48d55",
      "to": "0xc93a5d3bda648bb99b8f6990e4e88c94241cd838",
      "contractAddress": null
    }
  ],
  "libraries": [],
  "pending": [],
  "returns": {
    "messageId": {
      "internal_type": "bytes32",
      "value": "0x5236c01c1c57b2a74261935a14b54cee7e06947a7ed8212f6a952207e908ca25"
    }
  },
  "timestamp": 1771630645903,
  "chain": 11155111,
  "commit": "667a8dd"
}