{
  "transactions": [
    {
      "hash": "0xb889359058d9a0cf110ff33635760c20b43ed61965f2602d4021df94a09d417c",
      "transactionType": "CREATE",
      "contractName": "TokenTransferReceiver",
      "contractAddress": "0x434031d144a9f5751a23fb5c96003a387580abda",
      "function": null,
      "arguments": [
        "0x9C32fCB86BF0f4a1A8921a9Fe46de3198bb884B2"
      ],
      "transaction": {
        "from": "0xe2a5d3ee095de5039d42b00ddc2991bd61e48d55",
        "gas": "0x164df2",
        "value": "0x0",
        "input": "0x60a060405234801561000f575f5ffd5b506040516113ee3803806113ee83398101604081905261002e91610137565b33816001600160a01b03811661005e576040516335fdcccd60e21b81525f60048201526024015b60405180910390fd5b6001600160a01b03908116608052811661008d57604051631e4fbdf760e01b81525f6004820152602401610055565b610096816100e8565b5060017f9b779b17422d0df92223018b32b4d1fa46e071723d6817e2486d003becc55f00556001600160a01b0381166100e25760405163d92e233d60e01b815260040160405180910390fd5b50610164565b5f80546001600160a01b038381166001600160a01b0319831681178455604051919092169283917f8be0079c531659141344cd1fd0a4f28419497f9722a3daafe3b4186f6b6457e09190a35050565b5f60208284031215610147575f5ffd5b81516001600160a01b038116811461015d575f5ffd5b9392505050565b60805161126b6101835f395f8181610353015261075e015261126b5ff3fe608060405234801561000f575f5ffd5b5060043610610111575f3560e01c8063512de5d91161009e578063968638861161006e57806396863886146102b3578063b0f479a114610351578063db04fa4914610377578063f039a0091461038a578063f2fde38b1461039d575f5ffd5b8063512de5d914610261578063715018a61461027457806385572ffb1461027c5780638da5cb5b1461028f575f5ffd5b80633aeac4e1116100e45780633aeac4e1146101cb5780633aecd0e3146101e05780633d408d37146101f35780634030d521146102205780634df9cfb314610242575f5ffd5b806301ffc9a714610115578063040e55f51461013d578063260958a51461014f57806338d85525146101c3575b5f5ffd5b610128610123366004610dad565b6103b0565b60405190151581526020015b60405180910390f35b6004545b604051908152602001610134565b61016261015d366004610ddb565b6103e6565b6040516101349190815181526020808301516001600160401b0316908201526040808301516001600160a01b0390811691830191909152606080840151909116908201526080808301519082015260a0918201519181019190915260c00190565b61016261045d565b6101de6101d9366004610e06565b610555565b005b6101416101ee366004610e3d565b6106b9565b610128610201366004610e73565b600260209081525f928352604080842090915290825290205460ff1681565b61012861022e366004610e8d565b60016020525f908152604090205460ff1681565b610141610250366004610e3d565b60056020525f908152604090205481565b61014161026f366004610ddb565b610721565b6101de610740565b6101de61028a366004610ea6565b610753565b5f546001600160a01b03165b6040516001600160a01b039091168152602001610134565b61030f6102c1366004610ddb565b600360208190525f91825260409091208054600182015460028301549383015460049093015491936001600160401b03821693600160401b9092046001600160a01b03908116939116919086565b604080519687526001600160401b0390951660208701526001600160a01b039384169486019490945291166060840152608083015260a082015260c001610134565b7f000000000000000000000000000000000000000000000000000000000000000061029b565b6101de610385366004610eeb565b6107b2565b6101de610398366004610f1c565b610818565b6101de6103ab366004610e3d565b6108bc565b5f6001600160e01b031982166385572ffb60e01b14806103e057506001600160e01b031982166301ffc9a760e01b145b92915050565b6103ee610d62565b505f90815260036020818152604092839020835160c0810185528154815260018201546001600160401b038116938201939093526001600160a01b03600160401b909304831694810194909452600281015490911660608401529081015460808301526004015460a082015290565b610465610d62565b6004546104b15760405162461bcd60e51b8152602060048201526015602482015274139bc81d1c985b9cd9995c9cc81c9958d95a5d9959605a1b60448201526064015b60405180910390fd5b600480546003915f916104c690600190610f72565b815481106104d6576104d6610f85565b5f91825260208083209091015483528281019390935260409182019020815160c0810183528154815260018201546001600160401b038116948201949094526001600160a01b03600160401b909404841692810192909252600281015490921660608201526003820154608082015260049091015460a0820152919050565b61055d6108f6565b610565610922565b6001600160a01b038216158061058257506001600160a01b038116155b156105a05760405163d92e233d60e01b815260040160405180910390fd5b6040516370a0823160e01b81523060048201525f906001600160a01b038416906370a0823190602401602060405180830381865afa1580156105e4573d5f5f3e3d5ffd5b505050506040513d601f19601f820116820180604052508101906106089190610f99565b9050805f0361062a57604051630686827b60e51b815260040160405180910390fd5b61063e6001600160a01b0384168383610950565b816001600160a01b0316836001600160a01b03167f8210728e7c071f615b840ee026032693858fbcd5e5359e67e438c890f59e56208360405161068391815260200190565b60405180910390a3506106b560017f9b779b17422d0df92223018b32b4d1fa46e071723d6817e2486d003becc55f0055565b5050565b6040516370a0823160e01b81523060048201525f906001600160a01b038316906370a0823190602401602060405180830381865afa1580156106fd573d5f5f3e3d5ffd5b505050506040513d601f19601f820116820180604052508101906103e09190610f99565b60048181548110610730575f80fd5b5f91825260209091200154905081565b6107486108f6565b6107515f61098a565b565b336001600160a01b037f0000000000000000000000000000000000000000000000000000000000000000161461079e576040516335fdcccd60e21b81523360048201526024016104a8565b6107af6107aa82611156565b6109d9565b50565b6107ba6108f6565b6001600160401b0382165f81815260016020908152604091829020805460ff191685151590811790915591519182527f1792cf82ab5a84d3a3694d8eb55ceb2c81f20e473604e72a0a63c83312c318b8910160405180910390a25050565b6108206108f6565b6001600160a01b0382166108475760405163d92e233d60e01b815260040160405180910390fd5b6001600160401b0383165f8181526002602090815260408083206001600160a01b03871680855290835292819020805460ff191686151590811790915590519081529192917f9a239a399a3630c36025f8c4b64b701240016edc1e1fdb83741c0c52f5d743d7910160405180910390a3505050565b6108c46108f6565b6001600160a01b0381166108ed57604051631e4fbdf760e01b81525f60048201526024016104a8565b6107af8161098a565b5f546001600160a01b031633146107515760405163118cdaa760e01b81523360048201526024016104a8565b61092a610c15565b60027f9b779b17422d0df92223018b32b4d1fa46e071723d6817e2486d003becc55f0055565b61095d8383836001610c57565b61098557604051635274afe760e01b81526001600160a01b03841660048201526024016104a8565b505050565b5f80546001600160a01b038381166001600160a01b0319831681178455604051919092169283917f8be0079c531659141344cd1fd0a4f28419497f9722a3daafe3b4186f6b6457e09190a35050565b80602001516109e781610cb9565b81602001518260400151806020019051810190610a049190611207565b610a0e8282610cfc565b8360800151515f03610a3357604051638806636560e01b815260040160405180910390fd5b5f84608001515f81518110610a4a57610a4a610f85565b60200260200101515f015190505f85608001515f81518110610a6e57610a6e610f85565b60200260200101516020015190505f8660400151806020019051810190610a959190611207565b87516040805160c0810182528281526020808c01516001600160401b039081168284019081526001600160a01b038781168587019081528b821660608701818152608088018d81524260a08a019081525f8c81526003808b528c82209b518c5597516001808d018054985192909b166001600160e01b031990981697909717600160401b9189169190910217909855915160028a0180546001600160a01b0319169190961617909455925193870193909355905160049586015584549081019094557f8a35acfbc15ff81a39ae7d344fd709f28e8600b4aa8c65c6b64bfe7fe36bd19b909301859055918252600590529081208054939450919285929190610b9e908490611222565b92505081905550816001600160a01b031688602001516001600160401b0316827f1eb7d864650f669fdc7cb97942971fadf1983930d028aaa76b73c62547adcf588787604051610c039291906001600160a01b03929092168252602082015260400190565b60405180910390a45050505050505050565b7f9b779b17422d0df92223018b32b4d1fa46e071723d6817e2486d003becc55f005460020361075157604051633ee5aeb560e01b815260040160405180910390fd5b60405163a9059cbb60e01b5f8181526001600160a01b038616600452602485905291602083604481808b5af1925060015f51148316610cad578383151615610ca1573d5f823e3d81fd5b5f873b113d1516831692505b60405250949350505050565b6001600160401b0381165f9081526001602052604090205460ff166107af576040516326bfad9160e21b81526001600160401b03821660048201526024016104a8565b6001600160401b0382165f9081526002602090815260408083206001600160a01b038516845290915290205460ff166106b55760405163338aab5d60e11b81526001600160401b03831660048201526001600160a01b03821660248201526044016104a8565b6040518060c001604052805f81526020015f6001600160401b031681526020015f6001600160a01b031681526020015f6001600160a01b031681526020015f81526020015f81525090565b5f60208284031215610dbd575f5ffd5b81356001600160e01b031981168114610dd4575f5ffd5b9392505050565b5f60208284031215610deb575f5ffd5b5035919050565b6001600160a01b03811681146107af575f5ffd5b5f5f60408385031215610e17575f5ffd5b8235610e2281610df2565b91506020830135610e3281610df2565b809150509250929050565b5f60208284031215610e4d575f5ffd5b8135610dd481610df2565b80356001600160401b0381168114610e6e575f5ffd5b919050565b5f5f60408385031215610e84575f5ffd5b610e2283610e58565b5f60208284031215610e9d575f5ffd5b610dd482610e58565b5f60208284031215610eb6575f5ffd5b81356001600160401b03811115610ecb575f5ffd5b820160a08185031215610dd4575f5ffd5b80358015158114610e6e575f5ffd5b5f5f60408385031215610efc575f5ffd5b610f0583610e58565b9150610f1360208401610edc565b90509250929050565b5f5f5f60608486031215610f2e575f5ffd5b610f3784610e58565b92506020840135610f4781610df2565b9150610f5560408501610edc565b90509250925092565b634e487b7160e01b5f52601160045260245ffd5b818103818111156103e0576103e0610f5e565b634e487b7160e01b5f52603260045260245ffd5b5f60208284031215610fa9575f5ffd5b5051919050565b634e487b7160e01b5f52604160045260245ffd5b604080519081016001600160401b0381118282101715610fe657610fe6610fb0565b60405290565b60405160a081016001600160401b0381118282101715610fe657610fe6610fb0565b604051601f8201601f191681016001600160401b038111828210171561103657611036610fb0565b604052919050565b5f82601f83011261104d575f5ffd5b81356001600160401b0381111561106657611066610fb0565b611079601f8201601f191660200161100e565b81815284602083860101111561108d575f5ffd5b816020850160208301375f918101602001919091529392505050565b5f82601f8301126110b8575f5ffd5b81356001600160401b038111156110d1576110d1610fb0565b6110e060208260051b0161100e565b8082825260208201915060208360061b860101925085831115611101575f5ffd5b602085015b8381101561114c576040818803121561111d575f5ffd5b611125610fc4565b813561113081610df2565b8152602082810135818301529084529290920191604001611106565b5095945050505050565b5f60a08236031215611166575f5ffd5b61116e610fec565b8235815261117e60208401610e58565b602082015260408301356001600160401b0381111561119b575f5ffd5b6111a73682860161103e565b60408301525060608301356001600160401b038111156111c5575f5ffd5b6111d13682860161103e565b60608301525060808301356001600160401b038111156111ef575f5ffd5b6111fb368286016110a9565b60808301525092915050565b5f60208284031215611217575f5ffd5b8151610dd481610df2565b808201808211156103e0576103e0610f5e56fea26469706673582212203a15b241fe479bdd29fb48b4df89bce7ac11022105a03d083ea44495c99df5f364736f6c634300082100330000000000000000000000009c32fcb86bf0f4a1a8921a9fe46de3198bb884b2",
        "nonce": "0x18",
        "chainId": "0x13882"
      },
      "additionalContracts": [],
      "isFixedGasLimit": false
    },
    {
      "hash": "0xb34ed180955cf59c6c242616db372b4baf2d0f10bc73ed6fcf3a93825e3bae82",
      "transactionType": "CALL",
      "contractName": "TokenTransferReceiver",
      "contractAddress": "0x434031d144a9f5751a23fb5c96003a387580abda",
      "function": "allowlistSourceChain(uint64,bool)",
      "arguments": [
        "16015286601757825753",
        "true"
      ],
      "transaction": {
        "from": "0xe2a5d3ee095de5039d42b00ddc2991bd61e48d55",
        "to": "0x434031d144a9f5751a23fb5c96003a387580abda",
        "gas": "0x10173",
        "value": "0x0",
        "input": "0xdb04fa49000000000000000000000000000000000000000000000000de41ba4fc9d91ad90000000000000000000000000000000000000000000000000000000000000001",
        "nonce": "0x19",
        "chainId": "0x13882"
      },
      "additionalContracts": [],
      "isFixedGasLimit": false
    },
    {
      "hash": "0x13467fb10748cbebe2e858a95820dc9a00d4cf3cd2a4cbdbb4eb08ab88c5fc91",
      "transactionType": "CALL",
      "contractName": "TokenTransferReceiver",
      "contractAddress": "0x434031d144a9f5751a23fb5c96003a387580abda",
      "function": "allowlistSender(uint64,address,bool)",
      "arguments": [
        "16015286601757825753",
        "0x3bc79558D3D8E9EA5F1BAc631FD4FDAd15ce7D8E",
        "true"
      ],
      "transaction": {
        "from": "0xe2a5d3ee095de5039d42b00ddc2991bd61e48d55",
        "to": "0x434031d144a9f5751a23fb5c96003a387580abda",
        "gas": "0x106c5",
        "value": "0x0",
        "input": "0xf039a009000000000000000000000000000000000000000000000000de41ba4fc9d91ad90000000000000000000000003bc79558d3d8e9ea5f1bac631fd4fdad15ce7d8e0000000000000000000000000000000000000000000000000000000000000001",
        "nonce": "0x1a",
        "chainId": "0x13882"
      },
      "additionalContracts": [],
      "isFixedGasLimit": false
    },
    {
      "hash": "0xfce8c274fc413ef0191234d60cb7263e2d930091ec570a786f8846ea4014f10b",
      "transactionType": "CALL",
      "contractName": "TokenTransferReceiver",
      "contractAddress": "0x434031d144a9f5751a23fb5c96003a387580abda",
      "function": "allowlistSourceChain(uint64,bool)",
      "arguments": [
        "3478487238524512106",
        "true"
      ],
      "transaction": {
        "from": "0xe2a5d3ee095de5039d42b00ddc2991bd61e48d55",
        "to": "0x434031d144a9f5751a23fb5c96003a387580abda",
        "gas": "0x10173",
        "value": "0x0",
        "input": "0xdb04fa49000000000000000000000000000000000000000000000000304611b6affba76a0000000000000000000000000000000000000000000000000000000000000001",
        "nonce": "0x1b",
        "chainId": "0x13882"
      },
      "additionalContracts": [],
      "isFixedGasLimit": false
    },
    {
      "hash": "0x66ce92ae62b6e3624bb0b8ea85e1650d0e0994d25b50776cae3e6c79500d6ae9",
      "transactionType": "CALL",
      "contractName": "TokenTransferReceiver",
      "contractAddress": "0x434031d144a9f5751a23fb5c96003a387580abda",
      "function": "allowlistSourceChain(uint64,bool)",
      "arguments": [
        "10344971235874465080",
        "true"
      ],
      "transaction": {
        "from": "0xe2a5d3ee095de5039d42b00ddc2991bd61e48d55",
        "to": "0x434031d144a9f5751a23fb5c96003a387580abda",
        "gas": "0x10173",
        "value": "0x0",
        "input": "0xdb04fa490000000000000000000000000000000000000000000000008f90b8876dee65380000000000000000000000000000000000000000000000000000000000000001",
        "nonce": "0x1c",
        "chainId": "0x13882"
      },
      "additionalContracts": [],
      "isFixedGasLimit": false
    },
    {
      "hash": "0x47647162506da66b85510237771ae70ec353436fbb7962b3755541d65293aff9",
      "transactionType": "CALL",
      "contractName": "TokenTransferReceiver",
      "contractAddress": "0x434031d144a9f5751a23fb5c96003a387580abda",
      "function": "allowlistSourceChain(uint64,bool)",
      "arguments": [
        "5224473277236331295",
        "true"
      ],
      "transaction": {
        "from": "0xe2a5d3ee095de5039d42b00ddc2991bd61e48d55",
        "to": "0x434031d144a9f5751a23fb5c96003a387580abda",
        "gas": "0x10173",
        "value": "0x0",
        "input": "0xdb04fa4900000000000000000000000000000000000000000000000048810ec3e431431f0000000000000000000000000000000000000000000000000000000000000001",
        "nonce": "0x1d",
        "chainId": "0x13882"
      },
      "additionalContracts": [],
      "isFixedGasLimit": false
    }
  ],
  "receipts": [
    {
      "status": "0x1",
      "cumulativeGasUsed": "0x545d41",
      "logs": [
        {
          "address": "0x434031d144a9f5751a23fb5c96003a387580abda",
          "topics": [
            "0x8be0079c531659141344cd1fd0a4f28419497f9722a3daafe3b4186f6b6457e0",
            "0x0000000000000000000000000000000000000000000000000000000000000000",
            "0x000000000000000000000000e2a5d3ee095de5039d42b00ddc2991bd61e48d55"
          ],
          "data": "0x",
          "blockHash": "0x6721d03d3a6ad9f7f1112060b05d25fedea0aac7dddd5e55bfa7153b99716363",
          "blockNumber": "0x209f844",
          "blockTimestamp": "0x69979a27",
          "transactionHash": "0xb889359058d9a0cf110ff33635760c20b43ed61965f2602d4021df94a09d417c",
          "transactionIndex": "0xc8",
          "logIndex": "0xcd",
          "removed": false
        },
        {
          "address": "0x0000000000000000000000000000000000001010",
          "topics": [
            "0x4dfe1bbbcf077ddc3e01291eea2d5c70c2b422b415d95645b9adcfd678cb1d63",
            "0x0000000000000000000000000000000000000000000000000000000000001010",
            "0x000000000000000000000000e2a5d3ee095de5039d42b00ddc2991bd61e48d55",
            "0x0000000000000000000000007ee41d8a25641000661b1ef5e6ae8a00400466b0"
          ],
          "data": "0x0000000000000000000000000000000000000000000000000067dd01396a27440000000000000000000000000000000000000000000000000c14eb14005cca740000000000000000000000000000000000000000000023b918f4cb4d028f8e650000000000000000000000000000000000000000000000000bad0e12c6f2a3300000000000000000000000000000000000000000000023b9195ca84e3bf9b5a9",
          "blockHash": "0x6721d03d3a6ad9f7f1112060b05d25fedea0aac7dddd5e55bfa7153b99716363",
          "blockNumber": "0x209f844",
          "blockTimestamp": "0x69979a27",
          "transactionHash": "0xb889359058d9a0cf110ff33635760c20b43ed61965f2602d4021df94a09d417c",
          "transactionIndex": "0xc8",
          "logIndex": "0xce",
          "removed": false
        }
      ],
      "logsBloom": "0x00000000000000000000000000000000000000000000000000800000000080000000000000000000000000000000000100008000000000000000000000008000000000000000000000000000000000800001000020000000000100000000000000000000020000000000000000000800000000000000000480000000000000400000000000000000020000000400000000000000000000000000000000000000200000000000000000000000000000000000000000000000000000000000004000000000000000000001000000000000000000400100000000100000000020000000000000000000000000000000000000000000000000000000000000100000",
      "type": "0x2",
      "transactionHash": "0xb889359058d9a0cf110ff33635760c20b43ed61965f2602d4021df94a09d417c",
      "transactionIndex": "0xc8",
      "blockHash": "0x6721d03d3a6ad9f7f1112060b05d25fedea0aac7dddd5e55bfa7153b99716363",
      "blockNumber": "0x209f844",
      "gasUsed": "0x112844",
      "effectiveGasPrice": "0x60db88400",
      "from": "0xe2a5d3ee095de5039d42b00ddc2991bd61e48d55",
      "to": null,
      "contractAddress": "0x434031d144a9f5751a23fb5c96003a387580abda"
    },
    {
      "status": "0x1",
      "cumulativeGasUsed": "0x5517a5",
      "logs": [
        {
          "address": "0x434031d144a9f5751a23fb5c96003a387580abda",
          "topics": [
            "0x1792cf82ab5a84d3a3694d8eb55ceb2c81f20e473604e72a0a63c83312c318b8",
            "0x000000000000000000000000000000000000000000000000de41ba4fc9d91ad9"
          ],
          "data": "0x0000000000000000000000000000000000000000000000000000000000000001",
          "blockHash": "0x6721d03d3a6ad9f7f1112060b05d25fedea0aac7dddd5e55bfa7153b99716363",
          "blockNumber": "0x209f844",
          "blockTimestamp": "0x69979a27",
          "transactionHash": "0xb34ed180955cf59c6c242616db372b4baf2d0f10bc73ed6fcf3a93825e3bae82",
          "transactionIndex": "0xc9",
          "logIndex": "0xcf",
          "removed": false
        },
        {
          "address": "0x0000000000000000000000000000000000001010",
          "topics": [
            "0x4dfe1bbbcf077ddc3e01291eea2d5c70c2b422b415d95645b9adcfd678cb1d63",
            "0x0000000000000000000000000000000000000000000000000000000000001010",
            "0x000000000000000000000000e2a5d3ee095de5039d42b00ddc2991bd61e48d55",
            "0x0000000000000000000000007ee41d8a25641000661b1ef5e6ae8a00400466b0"
          ],
          "data": "0x000000000000000000000000000000000000000000000000000468556bcdb1640000000000000000000000000000000000000000000000000bad0e12c2b9ba740000000000000000000000000000000000000000000023b9195ca84e3bf9b5a90000000000000000000000000000000000000000000000000ba8a5bd56ec09100000000000000000000000000000000000000000000023b9196110a3a7c7670d",
          "blockHash": "0x6721d03d3a6ad9f7f1112060b05d25fedea0aac7dddd5e55bfa7153b99716363",
          "blockNumber": "0x209f844",
          "blockTimestamp": "0x69979a27",
          "transactionHash": "0xb34ed180955cf59c6c242616db372b4baf2d0f10bc73ed6fcf3a93825e3bae82",
          "transactionIndex": "0xc9",
          "logIndex": "0xd0",
          "removed": false
        }
      ],
      "logsBloom": "0x00000000000000000000000000000000000000000000000000000000000080000000000200004000080000000000000100008000000000000000000000008000000000000000000000000000000000800000000020000000000100000000000000000000000000000000000000010000000000000000000480000000800000000000000000000000020000000400000000000020000000000000000000000000200000000000000000000000000000000000000000000000000000000000004000000000000000000001000000000000000000400100000000100000000000000000000000000000000000000000000000000000000000000000000000100000",
      "type": "0x2",
      "transactionHash": "0xb34ed180955cf59c6c242616db372b4baf2d0f10bc73ed6fcf3a93825e3bae82",
      "transactionIndex": "0xc9",
      "blockHash": "0x6721d03d3a6ad9f7f1112060b05d25fedea0aac7dddd5e55bfa7153b99716363",
      "blockNumber": "0x209f844",
      "gasUsed": "0xba64",
      "effectiveGasPrice": "0x60db88400",
      "from": "0xe2a5d3ee095de5039d42b00ddc2991bd61e48d55",
      "to": "0x434031d144a9f5751a23fb5c96003a387580abda",
      "contractAddress": null
    },
    {
      "status": "0x1",
      "cumulativeGasUsed": "0x55d5e4",
      "logs": [
        {
          "address": "0x434031d144a9f5751a23fb5c96003a387580abda",
          "topics": [
            "0x9a239a399a3630c36025f8c4b64b701240016edc1e1fdb83741c0c52f5d743d7",
            "0x000000000000000000000000000000000000000000000000de41ba4fc9d91ad9",
            "0x0000000000000000000000003bc79558d3d8e9ea5f1bac631fd4fdad15ce7d8e"
          ],
          "data": "0x0000000000000000000000000000000000000000000000000000000000000001",
          "blockHash": "0x6721d03d3a6ad9f7f1112060b05d25fedea0aac7dddd5e55bfa7153b99716363",
          "blockNumber": "0x209f844",
          "blockTimestamp": "0x69979a27",
          "transactionHash": "0x13467fb10748cbebe2e858a95820dc9a00d4cf3cd2a4cbdbb4eb08ab88c5fc91",
          "transactionIndex": "0xca",
          "logIndex": "0xd1",
          "removed": false
        },
        {
          "address": "0x0000000000000000000000000000000000001010",
          "topics": [
            "0x4dfe1bbbcf077ddc3e01291eea2d5c70c2b422b415d95645b9adcfd678cb1d63",
            "0x0000000000000000000000000000000000000000000000000000000000001010",
            "0x000000000000000000000000e2a5d3ee095de5039d42b00ddc2991bd61e48d55",
            "0x0000000000000000000000007ee41d8a25641000661b1ef5e6ae8a00400466b0"
          ],
          "data": "0x00000000000000000000000000000000000000000000000000047fac5231aa7f0000000000000000000000000000000000000000000000000ba8a5bd56be2a740000000000000000000000000000000000000000000023b9196110a3a7c7670d0000000000000000000000000000000000000000000000000ba42611048c7ff50000000000000000000000000000000000000000000023b91965904ff9f9118c",
          "blockHash": "0x6721d03d3a6ad9f7f1112060b05d25fedea0aac7dddd5e55bfa7153b99716363",
          "blockNumber": "0x209f844",
          "blockTimestamp": "0x69979a27",
          "transactionHash": "0x13467fb10748cbebe2e858a95820dc9a00d4cf3cd2a4cbdbb4eb08ab88c5fc91",
          "transactionIndex": "0xca",
          "logIndex": "0xd2",
          "removed": false
        }
      ],
      "logsBloom": "0x00000000000000000000000000010000000000000000000000000000000080000000000000004000000000000000000100008000000010000000000000008000000000000000000000000000000000800000000020000004000100000000001000000000008000000000000000010000000000000000000480000000000000000000000000000000020000000400000000000020000000000000000000000000200000000000000000000000000000000000000000000000000000000000004000020000000000000001000000000000000000400100000000100000000000000000000000000000000000000000000000000000000000000000000000100000",
      "type": "0x2",
      "transactionHash": "0x13467fb10748cbebe2e858a95820dc9a00d4cf3cd2a4cbdbb4eb08ab88c5fc91",
      "transactionIndex": "0xca",
      "blockHash": "0x6721d03d3a6ad9f7f1112060b05d25fedea0aac7dddd5e55bfa7153b99716363",
      "blockNumber": "0x209f844",
      "gasUsed": "0xbe3f",
      "effectiveGasPrice": "0x60db88400",
      "from": "0xe2a5d3ee095de5039d42b00ddc2991bd61e48d55",
      "to": "0x434031d144a9f5751a23fb5c96003a387580abda",
      "contractAddress": null
    },
    {
      "status": "0x1",
      "cumulativeGasUsed": "0x569048",
      "logs": [
        {
          "address": "0x434031d144a9f5751a23fb5c96003a387580abda",
          "topics": [
            "0x1792cf82ab5a84d3a3694d8eb55ceb2c81f20e473604e72a0a63c83312c318b8",
            "0x000000000000000000000000000000000000000000000000304611b6affba76a"
          ],
          "data": "0x0000000000000000000000000000000000000000000000000000000000000001",
          "blockHash": "0x6721d03d3a6ad9f7f1112060b05d25fedea0aac7dddd5e55bfa7153b99716363",
          "blockNumber": "0x209f844",
          "blockTimestamp": "0x69979a27",
          "transactionHash": "0x66ce92ae62b6e3624bb0b8ea85e1650d0e0994d25b50776cae3e6c79500d6ae9",
          "transactionIndex": "0xcb",
          "logIndex": "0xd3",
          "removed": false
        },
        {
          "address": "0x0000000000000000000000000000000000001010",
          "topics": [
            "0x4dfe1bbbcf077ddc3e01291eea2d5c70c2b422b415d95645b9adcfd678cb1d63",
            "0x0000000000000000000000000000000000000000000000000000000000001010",
            "0x000000000000000000000000e2a5d3ee095de5039d42b00ddc2991bd61e48d55",
            "0x0000000000000000000000007ee41d8a25641000661b1ef5e6ae8a00400466b0"
          ],
          "data": "0x000000000000000000000000000000000000000000000000000468556bcdb1640000000000000000000000000000000000000000000000000ba42611045dae740000000000000000000000000000000000000000000023b91965904ff9f9118c0000000000000000000000000000000000000000000000000b9fbdbb988ffd100000000000000000000000000000000000000000000023b91969f8a565c6c2f0",
          "blockHash": "0x6721d03d3a6ad9f7f1112060b05d25fedea0aac7dddd5e55bfa7153b99716363",
          "blockNumber": "0x209f844",
          "blockTimestamp": "0x69979a27",
          "transactionHash": "0x66ce92ae62b6e3624bb0b8ea85e1650d0e0994d25b50776cae3e6c79500d6ae9",
          "transactionIndex": "0xcb",
          "logIndex": "0xd4",
          "removed": false
        }
      ],
      "logsBloom": "0x00000000000000000000000000000000000000000000000000000000000080000000000200000000080000000000000100008000080000000000000000008000000000000000000000000000000000800000000020000000000100000000000000000000000000000000000000000000000000000000000480000000800000000000000000000000020000000400000000000000000000000000000000000000200000000000000000000000000000000000000000000000000000000000004000000000000000000001000000000000000000400100000000100000080000000000000000000000000000000000000000000000000000000000000000300000",
      "type": "0x2",
      "transactionHash": "0x66ce92ae62b6e3624bb0b8ea85e1650d0e0994d25b50776cae3e6c79500d6ae9",
      "transactionIndex": "0xcb",
      "blockHash": "0x6721d03d3a6ad9f7f1112060b05d25fedea0aac7dddd5e55bfa7153b99716363",
      "blockNumber": "0x209f844",
      "gasUsed": "0xba64",
      "effectiveGasPrice": "0x60db88400",
      "from": "0xe2a5d3ee095de5039d42b00ddc2991bd61e48d55",
      "to": "0x434031d144a9f5751a23fb5c96003a387580abda",
      "contractAddress": null
    },
    {
      "status": "0x1",
      "cumulativeGasUsed": "0x574aac",
      "logs": [
        {
          "address": "0x434031d144a9f5751a23fb5c96003a387580abda",
          "topics": [
            "0x1792cf82ab5a84d3a3694d8eb55ceb2c81f20e473604e72a0a63c83312c318b8",
            "0x0000000000000000000000000000000000000000000000008f90b8876dee6538"
          ],
          "data": "0x0000000000000000000000000000000000000000000000000000000000000001",
          "blockHash": "0x6721d03d3a6ad9f7f1112060b05d25fedea0aac7dddd5e55bfa7153b99716363",
          "blockNumber": "0x209f844",
          "blockTimestamp": "0x69979a27",
          "transactionHash": "0xfce8c274fc413ef0191234d60cb7263e2d930091ec570a786f8846ea4014f10b",
          "transactionIndex": "0xcc",
          "logIndex": "0xd5",
          "removed": false
        },
        {
          "address": "0x0000000000000000000000000000000000001010",
          "topics": [
            "0x4dfe1bbbcf077ddc3e01291eea2d5c70c2b422b415d95645b9adcfd678cb1d63",
            "0x0000000000000000000000000000000000000000000000000000000000001010",
            "0x000000000000000000000000e2a5d3ee095de5039d42b00ddc2991bd61e48d55",
            "0x0000000000000000000000007ee41d8a25641000661b1ef5e6ae8a00400466b0"
          ],
          "data": "0x000000000000000000000000000000000000000000000000000468556bcdb1640000000000000000000000000000000000000000000000000b9fbdbb98621e740000000000000000000000000000000000000000000023b91969f8a565c6c2f00000000000000000000000000000000000000000000000000b9b55662c946d100000000000000000000000000000000000000000000023b9196e60fad1947454",
          "blockHash": "0x6721d03d3a6ad9f7f1112060b05d25fedea0aac7dddd5e55bfa7153b99716363",
          "blockNumber": "0x209f844",
          "blockTimestamp": "0x69979a27",
          "transactionHash": "0xfce8c274fc413ef0191234d60cb7263e2d930091ec570a786f8846ea4014f10b",
          "transactionIndex": "0xcc",
          "logIndex": "0xd6",
          "removed": false
        }
      ],
      "logsBloom": "0x00000000000000000000000000000000000000000000000000000000000080000000000200000000080000000000000100008000000000000000000000008000000000000000000000000000000000800000000420000000000100000000200000000000000000000000000000000000000000000000000480000000800000004000000000000000020000000400000000000000000000000000000000000000200000000000000000000000000000000000000000000000000000000000004000000000000000000001000000000000000000400100000000100000000000000000000000000000000000000000000000000000000000000000000000100000",
      "type": "0x2",
      "transactionHash": "0xfce8c274fc413ef0191234d60cb7263e2d930091ec570a786f8846ea4014f10b",
      "transactionIndex": "0xcc",
      "blockHash": "0x6721d03d3a6ad9f7f1112060b05d25fedea0aac7dddd5e55bfa7153b99716363",
      "blockNumber": "0x209f844",
      "gasUsed": "0xba64",
      "effectiveGasPrice": "0x60db88400",
      "from": "0xe2a5d3ee095de5039d42b00ddc2991bd61e48d55",
      "to": "0x434031d144a9f5751a23fb5c96003a387580abda",
      "contractAddress": null
    },
    {
      "status": "0x1",
      "cumulativeGasUsed": "0x580510",
      "logs": [
        {
          "address": "0x434031d144a9f5751a23fb5c96003a387580abda",
          "topics": [
            "0x1792cf82ab5a84d3a3694d8eb55ceb2c81f20e473604e72a0a63c83312c318b8",
            "0x00000000000000000000000000000000000000000000000048810ec3e431431f"
          ],
          "data": "0x0000000000000000000000000000000000000000000000000000000000000001",
          "blockHash": "0x6721d03d3a6ad9f7f1112060b05d25fedea0aac7dddd5e55bfa7153b99716363",
          "blockNumber": "0x209f844",
          "blockTimestamp": "0x69979a27",
          "transactionHash": "0x47647162506da66b85510237771ae70ec353436fbb7962b3755541d65293aff9",
          "transactionIndex": "0xcd",
          "logIndex": "0xd7",
          "removed": false
        },
        {
          "address": "0x0000000000000000000000000000000000001010",
          "topics": [
            "0x4dfe1bbbcf077ddc3e01291eea2d5c70c2b422b415d95645b9adcfd678cb1d63",
            "0x0000000000000000000000000000000000000000000000000000000000001010",
            "0x000000000000000000000000e2a5d3ee095de5039d42b00ddc2991bd61e48d55",
            "0x0000000000000000000000007ee41d8a25641000661b1ef5e6ae8a00400466b0"
          ],
          "data": "0x000000000000000000000000000000000000000000000000000468556bcdb1640000000000000000000000000000000000000000000000000b9b55662c668e740000000000000000000000000000000000000000000023b9196e60fad19474540000000000000000000000000000000000000000000000000b96ed10c098dd100000000000000000000000000000000000000000000023b91972c9503d6225b8",
          "blockHash": "0x6721d03d3a6ad9f7f1112060b05d25fedea0aac7dddd5e55bfa7153b99716363",
          "blockNumber": "0x209f844",
          "blockTimestamp": "0x69979a27",
          "transactionHash": "0x47647162506da66b85510237771ae70ec353436fbb7962b3755541d65293aff9",
          "transactionIndex": "0xcd",
          "logIndex": "0xd8",
          "removed": false
        }
      ],
      "logsBloom": "0x00000000000000000000000000100000000000000000000000000000000080000000000200000000080000000000000100008000000000000000000000008000000000000000000000000000000000800000000020000000000100000000000000000000000000000000000000000000000000000000000480000000800000000000000000000000020000000400000000000000000000000000000000000000200000000000000000000000000000000000000000000000000000000000004000000000080000000001000000000000000000400100000000100000000000000000000000000000000000000000000000000000000000020000000000100000",
      "type": "0x2",
      "transactionHash": "0x47647162506da66b85510237771ae70ec353436fbb7962b3755541d65293aff9",
      "transactionIndex": "0xcd",
      "blockHash": "0x6721d03d3a6ad9f7f1112060b05d25fedea0aac7dddd5e55bfa7153b99716363",
      "blockNumber": "0x209f844",
      "gasUsed": "0xba64",
      "effectiveGasPrice": "0x60db88400",
      "from": "0xe2a5d3ee095de5039d42b00ddc2991bd61e48d55",
      "to": "0x434031d144a9f5751a23fb5c96003a387580abda",
      "contractAddress": null
    }
  ],
  "libraries": [],
  "pending": [],
  "returns": {
    "receiverContract": {
      "internal_type": "contract TokenTransferReceiver",
      "value": "0x434031d144A9f5751a23FB5C96003a387580Abda"
    }
  },
  "timestamp": 1771543078091,
  "chain": 80002,
  "commit": "0cf5e62"
}