{
  "transactions": [
    {
      "hash": "0xb167f9d86f4da0ff9e6dd86f127942f8ccf026c7d0cac5c72b4139d1637e2a46",
      "transactionType": "CALL",
      "contractName": null,
      "contractAddress": "0x294ad4c5eb57a83bf13f2a92a5eaedce8d07acc9",
      "function": "sendMessagePayLink(uint64,address,string)",
      "arguments": [
        "16281711391670634445",
        "0x91D09dED24af89B42E6881525cd647AE0Be7E874",
        "Hello from Sepolia to Amoy"
      ],
      "transaction": {
        "from": "0xe2a5d3ee095de5039d42b00ddc2991bd61e48d55",
        "to": "0x294ad4c5eb57a83bf13f2a92a5eaedce8d07acc9",
        "gas": "0x3b7d5",
        "value": "0x0",
        "input": "0x53084589000000000000000000000000000000000000000000000000e1f4423f1bf587cd00000000000000000000000091d09ded24af89b42e6881525cd647ae0be7e8740000000000000000000000000000000000000000000000000000000000000060000000000000000000000000000000000000000000000000000000000000001a48656c6c6f2066726f6d205365706f6c696120746f20416d6f79000000000000",
        "nonce": "0x1a",
        "chainId": "0xaa36a7"
      },
      "additionalContracts": [],
      "isFixedGasLimit": false
    }
  ],
  "receipts": [
    {
      "status": "0x1",
      "cumulativeGasUsed": "0x5a52c9",
      "logs": [
        {
          "address": "0x779877a7b0d9e8603169ddbd7836e478b4624789",
          "topics": [
            "0x8c5be1e5ebec7d5bd14f71427d1e84f3dd0314c0f7b2291e5b200ac8c7c3b925",
            "0x000000000000000000000000294ad4c5eb57a83bf13f2a92a5eaedce8d07acc9",
            "0x0000000000000000000000000bf3de8c5d3e8a2b34d2beeb17abfcebaf363a59"
          ],
          "data": "0x00000000000000000000000000000000000000000000000000cff1b1e6a7413b",
          "blockHash": "0xe83247be374ab005db6acf812a6fbe3908ca4f778405863f0ef5a85227891521",
          "blockNumber": "0x9d01a4",
          "blockTimestamp": "0x69966978",
          "transactionHash": "0xb167f9d86f4da0ff9e6dd86f127942f8ccf026c7d0cac5c72b4139d1637e2a46",
          "transactionIndex": "0x3e",
          "logIndex": "0x81",
          "removed": false
        },
        {
          "address": "0x779877a7b0d9e8603169ddbd7836e478b4624789",
          "topics": [
            "0xddf252ad1be2c89b69c2b068fc378daa952ba7f163c4a11628f55a4df523b3ef",
            "0x000000000000000000000000294ad4c5eb57a83bf13f2a92a5eaedce8d07acc9",
            "0x000000000000000000000000f9765c80f6448e6d4d02bef4a6b4152131a2f513"
          ],
          "data": "0x00000000000000000000000000000000000000000000000000cff1b1e6a7413b",
          "blockHash": "0xe83247be374ab005db6acf812a6fbe3908ca4f778405863f0ef5a85227891521",
          "blockNumber": "0x9d01a4",
          "blockTimestamp": "0x69966978",
          "transactionHash": "0xb167f9d86f4da0ff9e6dd86f127942f8ccf026c7d0cac5c72b4139d1637e2a46",
          "transactionIndex": "0x3e",
          "logIndex": "0x82",
          "removed": false
        },
        {
          "address": "0x779877a7b0d9e8603169ddbd7836e478b4624789",
          "topics": [
            "0x8c5be1e5ebec7d5bd14f71427d1e84f3dd0314c0f7b2291e5b200ac8c7c3b925",
            "0x000000000000000000000000294ad4c5eb57a83bf13f2a92a5eaedce8d07acc9",
            "0x0000000000000000000000000bf3de8c5d3e8a2b34d2beeb17abfcebaf363a59"
          ],
          "data": "0x0000000000000000000000000000000000000000000000000000000000000000",
          "blockHash": "0xe83247be374ab005db6acf812a6fbe3908ca4f778405863f0ef5a85227891521",
          "blockNumber": "0x9d01a4",
          "blockTimestamp": "0x69966978",
          "transactionHash": "0xb167f9d86f4da0ff9e6dd86f127942f8ccf026c7d0cac5c72b4139d1637e2a46",
          "transactionIndex": "0x3e",
          "logIndex": "0x83",
          "removed": false
        },
        {
          "address": "0xf9765c80f6448e6d4d02bef4a6b4152131a2f513",
          "topics": [
            "0xd0c3c799bf9e2639de44391e7f524d229b2b55f5b1ea94b2bf7da42f7243dddd"
          ],
          "data": "0x0000000000000000000000000000000000000000000000000000000000000020000000000000000000000000000000000000000000000000de41ba4fc9d91ad9000000000000000000000000294ad4c5eb57a83bf13f2a92a5eaedce8d07acc900000000000000000000000091d09ded24af89b42e6881525cd647ae0be7e87400000000000000000000000000000000000000000000000000000000000010bb0000000000000000000000000000000000000000000000000000000000061a8000000000000000000000000000000000000000000000000000000000000000000000000000000000000000000000000000000000000000000000000000000001000000000000000000000000779877a7b0d9e8603169ddbd7836e478b462478900000000000000000000000000000000000000000000000000cff1b1e6a7413b00000000000000000000000000000000000000000000000000000000000001a00000000000000000000000000000000000000000000000000000000000000220000000000000000000000000000000000000000000000000000000000000024085845862183e376e12b6cd756beda390c2e41ee3828b6518daccc4b9ba7f651400000000000000000000000000000000000000000000000000000000000000600000000000000000000000000000000000000000000000000000000000000020000000000000000000000000000000000000000000000000000000000000001a48656c6c6f2066726f6d205365706f6c696120746f20416d6f7900000000000000000000000000000000000000000000000000000000000000000000000000000000000000000000000000000000000000000000000000000000000000000000",
          "blockHash": "0xe83247be374ab005db6acf812a6fbe3908ca4f778405863f0ef5a85227891521",
          "blockNumber": "0x9d01a4",
          "blockTimestamp": "0x69966978",
          "transactionHash": "0xb167f9d86f4da0ff9e6dd86f127942f8ccf026c7d0cac5c72b4139d1637e2a46",
          "transactionIndex": "0x3e",
          "logIndex": "0x84",
          "removed": false
        },
        {
          "address": "0x294ad4c5eb57a83bf13f2a92a5eaedce8d07acc9",
          "topics": [
            "0xd36445359b3c6e26c120659aef090ce0f2eb005cf9af450d11aa1225609b4f4d",
            "0x85845862183e376e12b6cd756beda390c2e41ee3828b6518daccc4b9ba7f6514",
            "0x000000000000000000000000000000000000000000000000e1f4423f1bf587cd",
            "0x00000000000000000000000091d09ded24af89b42e6881525cd647ae0be7e874"
          ],
          "data": "0x0000000000000000000000000000000000000000000000000000000000000060000000000000000000000000779877a7b0d9e8603169ddbd7836e478b462478900000000000000000000000000000000000000000000000000cff1b1e6a7413b000000000000000000000000000000000000000000000000000000000000001a48656c6c6f2066726f6d205365706f6c696120746f20416d6f79000000000000",
          "blockHash": "0xe83247be374ab005db6acf812a6fbe3908ca4f778405863f0ef5a85227891521",
          "blockNumber": "0x9d01a4",
          "blockTimestamp": "0x69966978",
          "transactionHash": "0xb167f9d86f4da0ff9e6dd86f127942f8ccf026c7d0cac5c72b4139d1637e2a46",
          "transactionIndex": "0x3e",
          "logIndex": "0x85",
          "removed": false
        }
      ],
      "logsBloom": "0x00000004000040000001000000000000000000000080000000000000000000000000800000004000000000000000800000000400000000000000000000200001000000000000000000000008000000000000000000000000000000080000000000801000000100000000000000000008000000000200000040004010000080000000000000000000000000000000800000000000000008000000000000000000020000000000080400000000000000000000000000000000000100800000000000200002000000000000000000000000040000000010000100000000000400000010000000000000000000000100000004000000000004000000000000020000",
      "type": "0x2",
      "transactionHash": "0xb167f9d86f4da0ff9e6dd86f127942f8ccf026c7d0cac5c72b4139d1637e2a46",
      "transactionIndex": "0x3e",
      "blockHash": "0xe83247be374ab005db6acf812a6fbe3908ca4f778405863f0ef5a85227891521",
      "blockNumber": "0x9d01a4",
      "gasUsed": "0x2b11d",
      "effectiveGasPrice": "0xf38a96",
      "from": "0xe2a5d3ee095de5039d42b00ddc2991bd61e48d55",
      "to": "0x294ad4c5eb57a83bf13f2a92a5eaedce8d07acc9",
      "contractAddress": null
    }
  ],
  "libraries": [],
  "pending": [],
  "returns": {
    "messageId": {
      "internal_type": "bytes32",
      "value": "0x85845862183e376e12b6cd756beda390c2e41ee3828b6518daccc4b9ba7f6514"
    }
  },
  "timestamp": 1771465082205,
  "chain": 11155111,
  "commit": "0d77024"
}