{
  "transactions": [
    {
      "hash": "0x8a7004a9b9504254ea415f296b70386f68984a04257f844ffcfcc4f6269fe04a",
      "transactionType": "CALL",
      "contractName": null,
      "contractAddress": "0x3bc79558d3d8e9ea5f1bac631fd4fdad15ce7d8e",
      "function": "updateExtraArgs(bytes)",
      "arguments": [
        "0x181dcf1000000000000000000000000000000000000000000000000000000000000493e00000000000000000000000000000000000000000000000000000000000000000"
      ],
      "transaction": {
        "from": "0xe2a5d3ee095de5039d42b00ddc2991bd61e48d55",
        "to": "0x3bc79558d3d8e9ea5f1bac631fd4fdad15ce7d8e",
        "gas": "0x12e43",
        "value": "0x0",
        "input": "0xe12853f900000000000000000000000000000000000000000000000000000000000000200000000000000000000000000000000000000000000000000000000000000044181dcf1000000000000000000000000000000000000000000000000000000000000493e0000000000000000000000000000000000000000000000000000000000000000000000000000000000000000000000000000000000000000000000000",
        "nonce": "0x2d",
        "chainId": "0xaa36a7"
      },
      "additionalContracts": [],
      "isFixedGasLimit": false
    },
    {
      "hash": "0x51090c46ce271d3945c2fc0571c2fdcad6b7e3999bb252f63a6fcdc542a93d7b",
      "transactionType": "CALL",
      "contractName": null,
      "contractAddress": "0xfd57b4ddbf88a4e07ff4e34c487b99af2fe82a05",
      "function": "approve(address,uint256)",
      "arguments": [
        "0x3bc79558D3D8E9EA5F1BAc631FD4FDAd15ce7D8E",
        "1000000000000000000"
      ],
      "transaction": {
        "from": "0xe2a5d3ee095de5039d42b00ddc2991bd61e48d55",
        "to": "0xfd57b4ddbf88a4e07ff4e34c487b99af2fe82a05",
        "gas": "0x108ad",
        "value": "0x0",
        "input": "0x095ea7b30000000000000000000000003bc79558d3d8e9ea5f1bac631fd4fdad15ce7d8e0000000000000000000000000000000000000000000000000de0b6b3a7640000",
        "nonce": "0x2e",
        "chainId": "0xaa36a7"
      },
      "additionalContracts": [],
      "isFixedGasLimit": false
    },
    {
      "hash": "0x91ec3fba0305090a1af5378012ff7b63d853230d5734323a9dd876ee0d1f29c8",
      "transactionType": "CALL",
      "contractName": null,
      "contractAddress": "0x3bc79558d3d8e9ea5f1bac631fd4fdad15ce7d8e",
      "function": "transferTokensPayLink(uint64,address,address,uint256)",
      "arguments": [
        "16281711391670634445",
        "0x434031d144A9f5751a23FB5C96003a387580Abda",
        "0xFd57b4ddBf88a4e07fF4e34C487b99af2Fe82a05",
        "1000000000000000000"
      ],
      "transaction": {
        "from": "0xe2a5d3ee095de5039d42b00ddc2991bd61e48d55",
        "to": "0x3bc79558d3d8e9ea5f1bac631fd4fdad15ce7d8e",
        "gas": "0x6174c",
        "value": "0x0",
        "input": "0x83ac1c39000000000000000000000000000000000000000000000000e1f4423f1bf587cd000000000000000000000000434031d144a9f5751a23fb5c96003a387580abda000000000000000000000000fd57b4ddbf88a4e07ff4e34c487b99af2fe82a050000000000000000000000000000000000000000000000000de0b6b3a7640000",
        "nonce": "0x2f",
        "chainId": "0xaa36a7"
      },
      "additionalContracts": [],
      "isFixedGasLimit": false
    }
  ],
  "receipts": [
    {
      "status": "0x1",
      "cumulativeGasUsed": "0x3dfe43",
      "logs": [
        {
          "address": "0x3bc79558d3d8e9ea5f1bac631fd4fdad15ce7d8e",
          "topics": [
            "0xd7693fa685e87b95e7bd6dc60982f82ce2510fe103f2b5bfa0f842c392c4f060"
          ],
          "data": "0x00000000000000000000000000000000000000000000000000000000000000200000000000000000000000000000000000000000000000000000000000000044181dcf1000000000000000000000000000000000000000000000000000000000000493e0000000000000000000000000000000000000000000000000000000000000000000000000000000000000000000000000000000000000000000000000",
          "blockHash": "0xd7eed7b0141605d0179b64048f695fab55954e63c8e0a6b3764f62e6f6e65c3e",
          "blockNumber": "0x9d1a5f",
          "blockTimestamp": "0x6997a0ac",
          "transactionHash": "0x91ec3fba0305090a1af5378012ff7b63d853230d5734323a9dd876ee0d1f29c8",
          "transactionIndex": "0x2a",
          "logIndex": "0x51",
          "removed": false
        }
      ],
      "logsBloom": "0x00000002000000000000000000000000000000000000000000000000000000000000000000000000000000000000000000000000000000000000000000000000000000000000000000000000000000000000000000000000000000010000000000000000000000000000000000000000000000000000000000000000000000000000000000000000000000000000000000000000000000000000000000000000000000000000000000000000000000000000000000000000000000000000000000000000002040000000000000000000000000000000000000000000000000000000000000000000000000000000000000000000020000000000000000010000",
      "type": "0x2",
      "transactionHash": "0x91ec3fba0305090a1af5378012ff7b63d853230d5734323a9dd876ee0d1f29c8",
      "transactionIndex": "0x2a",
      "blockHash": "0xd7eed7b0141605d0179b64048f695fab55954e63c8e0a6b3764f62e6f6e65c3e",
      "blockNumber": "0x9d1a5f",
      "gasUsed": "0xdad6",
      "effectiveGasPrice": "0x230c6ca8",
      "from": "0xe2a5d3ee095de5039d42b00ddc2991bd61e48d55",
      "to": "0x3bc79558d3d8e9ea5f1bac631fd4fdad15ce7d8e",
      "contractAddress": null
    },
    {
      "status": "0x1",
      "cumulativeGasUsed": "0x23f27e3",
      "logs": [
        {
          "address": "0xfd57b4ddbf88a4e07ff4e34c487b99af2fe82a05",
          "topics": [
            "0x8c5be1e5ebec7d5bd14f71427d1e84f3dd0314c0f7b2291e5b200ac8c7c3b925",
            "0x000000000000000000000000e2a5d3ee095de5039d42b00ddc2991bd61e48d55",
            "0x0000000000000000000000003bc79558d3d8e9ea5f1bac631fd4fdad15ce7d8e"
          ],
          "data": "0x0000000000000000000000000000000000000000000000000de0b6b3a7640000",
          "blockHash": "0x27b381636593353c71377aa89ed9d46da0a0a40a39b7855adb51d02665427fc2",
          "blockNumber": "0x9d1a62",
          "blockTimestamp": "0x6997a0d0",
          "transactionHash": "0x8a7004a9b9504254ea415f296b70386f68984a04257f844ffcfcc4f6269fe04a",
          "transactionIndex": "0x74",
          "logIndex": "0x16b",
          "removed": false
        }
      ],
      "logsBloom": "0x00000002000000000000000000000000000000000000000000000000000080000000000000000000000000000000000000000000000010000000000000208000000000000000000000000000000000000000000000000004000000000000000000000000008000000000000000000000000000000000000400000000000000000000000000000000000000000000000000000000000000000000000000000000020000000000000040000000000000080000000000000000000000000000000000000000000000000000000000000000000000000000000000000000000000000010000000000000000000000000000000000000000000000000000000000000",
      "type": "0x2",
      "transactionHash": "0x8a7004a9b9504254ea415f296b70386f68984a04257f844ffcfcc4f6269fe04a",
      "transactionIndex": "0x74",
      "blockHash": "0x27b381636593353c71377aa89ed9d46da0a0a40a39b7855adb51d02665427fc2",
      "blockNumber": "0x9d1a62",
      "gasUsed": "0xb4fa",
      "effectiveGasPrice": "0x1fba505a",
      "from": "0xe2a5d3ee095de5039d42b00ddc2991bd61e48d55",
      "to": "0xfd57b4ddbf88a4e07ff4e34c487b99af2fe82a05",
      "contractAddress": null
    },
    {
      "status": "0x1",
      "cumulativeGasUsed": "0x1216809",
      "logs": [
        {
          "address": "0xfd57b4ddbf88a4e07ff4e34c487b99af2fe82a05",
          "topics": [
            "0x8c5be1e5ebec7d5bd14f71427d1e84f3dd0314c0f7b2291e5b200ac8c7c3b925",
            "0x000000000000000000000000e2a5d3ee095de5039d42b00ddc2991bd61e48d55",
            "0x0000000000000000000000003bc79558d3d8e9ea5f1bac631fd4fdad15ce7d8e"
          ],
          "data": "0x0000000000000000000000000000000000000000000000000000000000000000",
          "blockHash": "0x48dc2ea6ed4746eb61ec8d065dbbb46705b4bc08b09da66a945d523d7b5807ba",
          "blockNumber": "0x9d1a67",
          "blockTimestamp": "0x6997a10c",
          "transactionHash": "0x51090c46ce271d3945c2fc0571c2fdcad6b7e3999bb252f63a6fcdc542a93d7b",
          "transactionIndex": "0x38",
          "logIndex": "0x80",
          "removed": false
        },
        {
          "address": "0xfd57b4ddbf88a4e07ff4e34c487b99af2fe82a05",
          "topics": [
            "0xddf252ad1be2c89b69c2b068fc378daa952ba7f163c4a11628f55a4df523b3ef",
            "0x000000000000000000000000e2a5d3ee095de5039d42b00ddc2991bd61e48d55",
            "0x0000000000000000000000003bc79558d3d8e9ea5f1bac631fd4fdad15ce7d8e"
          ],
          "data": "0x0000000000000000000000000000000000000000000000000de0b6b3a7640000",
          "blockHash": "0x48dc2ea6ed4746eb61ec8d065dbbb46705b4bc08b09da66a945d523d7b5807ba",
          "blockNumber": "0x9d1a67",
          "blockTimestamp": "0x6997a10c",
          "transactionHash": "0x51090c46ce271d3945c2fc0571c2fdcad6b7e3999bb252f63a6fcdc542a93d7b",
          "transactionIndex": "0x38",
          "logIndex": "0x81",
          "removed": false
        },
        {
          "address": "0x779877a7b0d9e8603169ddbd7836e478b4624789",
          "topics": [
            "0x8c5be1e5ebec7d5bd14f71427d1e84f3dd0314c0f7b2291e5b200ac8c7c3b925",
            "0x0000000000000000000000003bc79558d3d8e9ea5f1bac631fd4fdad15ce7d8e",
            "0x0000000000000000000000000bf3de8c5d3e8a2b34d2beeb17abfcebaf363a59"
          ],
          "data": "0x00000000000000000000000000000000000000000000000000728c5e171f82b9",
          "blockHash": "0x48dc2ea6ed4746eb61ec8d065dbbb46705b4bc08b09da66a945d523d7b5807ba",
          "blockNumber": "0x9d1a67",
          "blockTimestamp": "0x6997a10c",
          "transactionHash": "0x51090c46ce271d3945c2fc0571c2fdcad6b7e3999bb252f63a6fcdc542a93d7b",
          "transactionIndex": "0x38",
          "logIndex": "0x82",
          "removed": false
        },
        {
          "address": "0xfd57b4ddbf88a4e07ff4e34c487b99af2fe82a05",
          "topics": [
            "0x8c5be1e5ebec7d5bd14f71427d1e84f3dd0314c0f7b2291e5b200ac8c7c3b925",
            "0x0000000000000000000000003bc79558d3d8e9ea5f1bac631fd4fdad15ce7d8e",
            "0x0000000000000000000000000bf3de8c5d3e8a2b34d2beeb17abfcebaf363a59"
          ],
          "data": "0x0000000000000000000000000000000000000000000000000de0b6b3a7640000",
          "blockHash": "0x48dc2ea6ed4746eb61ec8d065dbbb46705b4bc08b09da66a945d523d7b5807ba",
          "blockNumber": "0x9d1a67",
          "blockTimestamp": "0x6997a10c",
          "transactionHash": "0x51090c46ce271d3945c2fc0571c2fdcad6b7e3999bb252f63a6fcdc542a93d7b",
          "transactionIndex": "0x38",
          "logIndex": "0x83",
          "removed": false
        },
        {
          "address": "0x779877a7b0d9e8603169ddbd7836e478b4624789",
          "topics": [
            "0xddf252ad1be2c89b69c2b068fc378daa952ba7f163c4a11628f55a4df523b3ef",
            "0x0000000000000000000000003bc79558d3d8e9ea5f1bac631fd4fdad15ce7d8e",
            "0x000000000000000000000000f9765c80f6448e6d4d02bef4a6b4152131a2f513"
          ],
          "data": "0x00000000000000000000000000000000000000000000000000728c5e171f82b9",
          "blockHash": "0x48dc2ea6ed4746eb61ec8d065dbbb46705b4bc08b09da66a945d523d7b5807ba",
          "blockNumber": "0x9d1a67",
          "blockTimestamp": "0x6997a10c",
          "transactionHash": "0x51090c46ce271d3945c2fc0571c2fdcad6b7e3999bb252f63a6fcdc542a93d7b",
          "transactionIndex": "0x38",
          "logIndex": "0x84",
          "removed": false
        },
        {
          "address": "0x779877a7b0d9e8603169ddbd7836e478b4624789",
          "topics": [
            "0x8c5be1e5ebec7d5bd14f71427d1e84f3dd0314c0f7b2291e5b200ac8c7c3b925",
            "0x0000000000000000000000003bc79558d3d8e9ea5f1bac631fd4fdad15ce7d8e",
            "0x0000000000000000000000000bf3de8c5d3e8a2b34d2beeb17abfcebaf363a59"
          ],
          "data": "0x0000000000000000000000000000000000000000000000000000000000000000",
          "blockHash": "0x48dc2ea6ed4746eb61ec8d065dbbb46705b4bc08b09da66a945d523d7b5807ba",
          "blockNumber": "0x9d1a67",
          "blockTimestamp": "0x6997a10c",
          "transactionHash": "0x51090c46ce271d3945c2fc0571c2fdcad6b7e3999bb252f63a6fcdc542a93d7b",
          "transactionIndex": "0x38",
          "logIndex": "0x85",
          "removed": false
        },
        {
          "address": "0xfd57b4ddbf88a4e07ff4e34c487b99af2fe82a05",
          "topics": [
            "0x8c5be1e5ebec7d5bd14f71427d1e84f3dd0314c0f7b2291e5b200ac8c7c3b925",
            "0x0000000000000000000000003bc79558d3d8e9ea5f1bac631fd4fdad15ce7d8e",
            "0x0000000000000000000000000bf3de8c5d3e8a2b34d2beeb17abfcebaf363a59"
          ],
          "data": "0x0000000000000000000000000000000000000000000000000000000000000000",
          "blockHash": "0x48dc2ea6ed4746eb61ec8d065dbbb46705b4bc08b09da66a945d523d7b5807ba",
          "blockNumber": "0x9d1a67",
          "blockTimestamp": "0x6997a10c",
          "transactionHash": "0x51090c46ce271d3945c2fc0571c2fdcad6b7e3999bb252f63a6fcdc542a93d7b",
          "transactionIndex": "0x38",
          "logIndex": "0x86",
          "removed": false
        },
        {
          "address": "0xfd57b4ddbf88a4e07ff4e34c487b99af2fe82a05",
          "topics": [
            "0xddf252ad1be2c89b69c2b068fc378daa952ba7f163c4a11628f55a4df523b3ef",
            "0x0000000000000000000000003bc79558d3d8e9ea5f1bac631fd4fdad15ce7d8e",
            "0x0000000000000000000000004ccbdd6cf18800360161e4d2a519a2047176bdf0"
          ],
          "data": "0x0000000000000000000000000000000000000000000000000de0b6b3a7640000",
          "blockHash": "0x48dc2ea6ed4746eb61ec8d065dbbb46705b4bc08b09da66a945d523d7b5807ba",
          "blockNumber": "0x9d1a67",
          "blockTimestamp": "0x6997a10c",
          "transactionHash": "0x51090c46ce271d3945c2fc0571c2fdcad6b7e3999bb252f63a6fcdc542a93d7b",
          "transactionIndex": "0x38",
          "logIndex": "0x87",
          "removed": false
        },
        {
          "address": "0x4ccbdd6cf18800360161e4d2a519a2047176bdf0",
          "topics": [
            "0x1871cdf8010e63f2eb8384381a68dfa7416dc571a5517e66e88b2d2d0c0a690a"
          ],
          "data": "0x0000000000000000000000000000000000000000000000000de0b6b3a7640000",
          "blockHash": "0x48dc2ea6ed4746eb61ec8d065dbbb46705b4bc08b09da66a945d523d7b5807ba",
          "blockNumber": "0x9d1a67",
          "blockTimestamp": "0x6997a10c",
          "transactionHash": "0x51090c46ce271d3945c2fc0571c2fdcad6b7e3999bb252f63a6fcdc542a93d7b",
          "transactionIndex": "0x38",
          "logIndex": "0x88",
          "removed": false
        },
        {
          "address": "0xfd57b4ddbf88a4e07ff4e34c487b99af2fe82a05",
          "topics": [
            "0xddf252ad1be2c89b69c2b068fc378daa952ba7f163c4a11628f55a4df523b3ef",
            "0x0000000000000000000000004ccbdd6cf18800360161e4d2a519a2047176bdf0",
            "0x0000000000000000000000000000000000000000000000000000000000000000"
          ],
          "data": "0x0000000000000000000000000000000000000000000000000de0b6b3a7640000",
          "blockHash": "0x48dc2ea6ed4746eb61ec8d065dbbb46705b4bc08b09da66a945d523d7b5807ba",
          "blockNumber": "0x9d1a67",
          "blockTimestamp": "0x6997a10c",
          "transactionHash": "0x51090c46ce271d3945c2fc0571c2fdcad6b7e3999bb252f63a6fcdc542a93d7b",
          "transactionIndex": "0x38",
          "logIndex": "0x89",
          "removed": false
        },
        {
          "address": "0x4ccbdd6cf18800360161e4d2a519a2047176bdf0",
          "topics": [
            "0x696de425f79f4a40bc6d2122ca50507f0efbeabbff86a84871b7196ab8ea8df7",
            "0x000000000000000000000000f9765c80f6448e6d4d02bef4a6b4152131a2f513"
          ],
          "data": "0x0000000000000000000000000000000000000000000000000de0b6b3a7640000",
          "blockHash": "0x48dc2ea6ed4746eb61ec8d065dbbb46705b4bc08b09da66a945d523d7b5807ba",
          "blockNumber": "0x9d1a67",
          "blockTimestamp": "0x6997a10c",
          "transactionHash": "0x51090c46ce271d3945c2fc0571c2fdcad6b7e3999bb252f63a6fcdc542a93d7b",
          "transactionIndex": "0x38",
          "logIndex": "0x8a",
          "removed": false
        },
        {
          "address": "0xf9765c80f6448e6d4d02bef4a6b4152131a2f513",
          "topics": [
            "0xd0c3c799bf9e2639de44391e7f524d229b2b55f5b1ea94b2bf7da42f7243dddd"
          ],
          "data": "0x0000000000000000000000000000000000000000000000000000000000000020000000000000000000000000000000000000000000000000de41ba4fc9d91ad90000000000000000000000003bc79558d3d8e9ea5f1bac631fd4fdad15ce7d8e000000000000000000000000434031d144a9f5751a23fb5c96003a387580abda00000000000000000000000000000000000000000000000000000000000010bd00000000000000000000000000000000000000000000000000000000000493e000000000000000000000000000000000000000000000000000000000000000000000000000000000000000000000000000000000000000000000000000000001000000000000000000000000779877a7b0d9e8603169ddbd7836e478b462478900000000000000000000000000000000000000000000000000728c5e171f82b900000000000000000000000000000000000000000000000000000000000001a000000000000000000000000000000000000000000000000000000000000001c000000000000000000000000000000000000000000000000000000000000002207fa9bc513d3c21d52cc1d6cf19382b532a352cabe8b0e4a0d56f2dfa2a925fce00000000000000000000000000000000000000000000000000000000000000000000000000000000000000000000000000000000000000000000000000000001000000000000000000000000fd57b4ddbf88a4e07ff4e34c487b99af2fe82a050000000000000000000000000000000000000000000000000de0b6b3a76400000000000000000000000000000000000000000000000000000000000000000001000000000000000000000000000000000000000000000000000000000000002000000000000000000000000000000000000000000000000000000000000001600000000000000000000000000000000000000000000000000000000000000020000000000000000000000000000000000000000000000000000000000000008000000000000000000000000000000000000000000000000000000000000000c000000000000000000000000000000000000000000000000000000000000001000000000000000000000000000000000000000000000000000000000000015f9000000000000000000000000000000000000000000000000000000000000000200000000000000000000000004ccbdd6cf18800360161e4d2a519a2047176bdf00000000000000000000000000000000000000000000000000000000000000020000000000000000000000000cab0ef91bee323d1a617c0a027ee753afd6997e400000000000000000000000000000000000000000000000000000000000000200000000000000000000000000000000000000000000000000000000000000012",
          "blockHash": "0x48dc2ea6ed4746eb61ec8d065dbbb46705b4bc08b09da66a945d523d7b5807ba",
          "blockNumber": "0x9d1a67",
          "blockTimestamp": "0x6997a10c",
          "transactionHash": "0x51090c46ce271d3945c2fc0571c2fdcad6b7e3999bb252f63a6fcdc542a93d7b",
          "transactionIndex": "0x38",
          "logIndex": "0x8b",
          "removed": false
        },
        {
          "address": "0x3bc79558d3d8e9ea5f1bac631fd4fdad15ce7d8e",
          "topics": [
            "0xc15fb748c32ba4eb29c1c311e78533f93b4425eab49ea87c6fe4279ecadca043",
            "0x7fa9bc513d3c21d52cc1d6cf19382b532a352cabe8b0e4a0d56f2dfa2a925fce",
            "0x000000000000000000000000000000000000000000000000e1f4423f1bf587cd",
            "0x000000000000000000000000434031d144a9f5751a23fb5c96003a387580abda"
          ],
          "data": "0x000000000000000000000000fd57b4ddbf88a4e07ff4e34c487b99af2fe82a050000000000000000000000000000000000000000000000000de0b6b3a7640000000000000000000000000000779877a7b0d9e8603169ddbd7836e478b462478900000000000000000000000000000000000000000000000000728c5e171f82b9",
          "blockHash": "0x48dc2ea6ed4746eb61ec8d065dbbb46705b4bc08b09da66a945d523d7b5807ba",
          "blockNumber": "0x9d1a67",
          "blockTimestamp": "0x6997a10c",
          "transactionHash": "0x51090c46ce271d3945c2fc0571c2fdcad6b7e3999bb252f63a6fcdc542a93d7b",
          "transactionIndex": "0x38",
          "logIndex": "0x8c",
          "removed": false
        }
      ],
      "logsBloom": "0x0040000700004000000000200000100000000000008000000000000000208000000020000000000000200000000000000000000000801000000000000020800000000000000002000000000800400000000000000000040400000008000000000000000006810000000000400000080a040000000200000400000010000000000000000000002000000000000000800000000000800008000000000000000000020000000000080440000000000000080000000000010000000100000000000000200002000040000000000000000010000000000010000100000000000020000010000000000000000000000000000004000000020004000000000000021001",
      "type": "0x2",
      "transactionHash": "0x51090c46ce271d3945c2fc0571c2fdcad6b7e3999bb252f63a6fcdc542a93d7b",
      "transactionIndex": "0x38",
      "blockHash": "0x48dc2ea6ed4746eb61ec8d065dbbb46705b4bc08b09da66a945d523d7b5807ba",
      "blockNumber": "0x9d1a67",
      "gasUsed": "0x468e8",
      "effectiveGasPrice": "0x1d3e5340",
      "from": "0xe2a5d3ee095de5039d42b00ddc2991bd61e48d55",
      "to": "0x3bc79558d3d8e9ea5f1bac631fd4fdad15ce7d8e",
      "contractAddress": null
    }
  ],
  "libraries": [],
  "pending": [],
  "returns": {
    "messageId": {
      "internal_type": "bytes32",
      "value": "0x7fa9bc513d3c21d52cc1d6cf19382b532a352cabe8b0e4a0d56f2dfa2a925fce"
    }
  },
  "timestamp": 1771544846028,
  "chain": 11155111,
  "commit": "0cf5e62"
}