{
  "transactions": [
    {
      "hash": "0x6d493e65316a326e150b849115343759bcc3aeeebd46140da0c1a7f4cfbc179e",
      "transactionType": "CREATE",
      "contractName": "MessagingSender",
      "contractAddress": "0xed2bd681e7b6a60398cf148c80b450a35cdd06ab",
      "function": null,
      "arguments": [
        "0x0BF3dE8c5D3e8A2B34D2BEeB17ABfCeBaf363A59",
        "0x779877A7B0D9E8603169DdbD7836e478b4624789",
        "true"
      ],
      "transaction": {
        "from": "0xe2a5d3ee095de5039d42b00ddc2991bd61e48d55",
        "value": "0x0",
        "input": "0x60c060405234801561000f575f5ffd5b50604051611c11380380611c1183398101604081905261002e916101d4565b338061005357604051631e4fbdf760e01b81525f600482015260240160405180910390fd5b61005c8161016a565b5060017f9b779b17422d0df92223018b32b4d1fa46e071723d6817e2486d003becc55f00556001600160a01b0383166100a85760405163d92e233d60e01b815260040160405180910390fd5b6001600160a01b0382166100cf5760405163d92e233d60e01b815260040160405180910390fd5b6001600160a01b03838116608052821660a0526003805460ff191682151517905560408051808201909152620493e081525f6020820152610154906040805182516024820152602092830151151560448083019190915282518083039091018152606490910190915290810180516001600160e01b0316630181dcf160e41b17905290565b60029061016190826102bf565b5050505061037d565b5f80546001600160a01b038381166001600160a01b0319831681178455604051919092169283917f8be0079c531659141344cd1fd0a4f28419497f9722a3daafe3b4186f6b6457e09190a35050565b80516001600160a01b03811681146101cf575f5ffd5b919050565b5f5f5f606084860312156101e6575f5ffd5b6101ef846101b9565b92506101fd602085016101b9565b915060408401518015158114610211575f5ffd5b809150509250925092565b634e487b7160e01b5f52604160045260245ffd5b600181811c9082168061024457607f821691505b60208210810361026257634e487b7160e01b5f52602260045260245ffd5b50919050565b601f8211156102ba57828211156102ba57805f5260205f20601f840160051c602085101561029357505f5b90810190601f840160051c035f5b818110156102b6575f838201556001016102a1565b5050505b505050565b81516001600160401b038111156102d8576102d861021c565b6102ec816102e68454610230565b84610268565b6020601f82116001811461031e575f83156103075750848201515b5f19600385901b1c1916600184901b178455610376565b5f84815260208120601f198516915b8281101561034d578785015182556020948501946001909201910161032d565b508482101561036a57868401515f19600387901b60f8161c191681555b505060018360011b0184555b5050505050565b60805160a0516118116104005f395f81816102fa015281816105290152818161060401528181610688015281816107680152818161089e01528181610c9a01528181610d3a0152610e5701525f818161028a0152818161055701528181610739015281816107ea01528181610a4901528181610b170152610e9501526118115ff3fe6080604052600436106100f2575f3560e01c80638da5cb5b11610087578063b299372c11610057578063b299372c146102ae578063e12853f9146102cd578063e76d5168146102ec578063f2fde38b1461031e575f5ffd5b80638da5cb5b1461020e57806390e9ca7f1461023e57806396d3b83d1461025d578063b0f479a11461027c575f5ffd5b806356f41693116100c257806356f4169314610198578063715018a6146101b957806375c67c66146101cd57806381568a06146101fb575f5ffd5b80632f622e6b146100fd578063333e7b951461011e57806343b1c9311461014c578063530845891461016b575f5ffd5b366100f957005b5f5ffd5b348015610108575f5ffd5b5061011c610117366004611307565b61033d565b005b348015610129575f5ffd5b506003546101379060ff1681565b60405190151581526020015b60405180910390f35b348015610157575f5ffd5b5061011c610166366004611336565b610446565b348015610176575f5ffd5b5061018a6101853660046113b2565b610495565b604051908152602001610143565b3480156101a3575f5ffd5b506101ac61090a565b604051610143919061143f565b3480156101c4575f5ffd5b5061011c610996565b3480156101d8575f5ffd5b506101376101e7366004611451565b60016020525f908152604090205460ff1681565b61018a6102093660046113b2565b6109a9565b348015610219575f5ffd5b505f546001600160a01b03165b6040516001600160a01b039091168152602001610143565b348015610249575f5ffd5b5061011c610258366004611307565b610c54565b348015610268575f5ffd5b5061011c61027736600461146a565b610da8565b348015610287575f5ffd5b507f0000000000000000000000000000000000000000000000000000000000000000610226565b3480156102b9575f5ffd5b5061018a6102c83660046113b2565b610e08565b3480156102d8575f5ffd5b5061011c6102e736600461149f565b610f15565b3480156102f7575f5ffd5b507f0000000000000000000000000000000000000000000000000000000000000000610226565b348015610329575f5ffd5b5061011c610338366004611307565b610f68565b610345610fa5565b6001600160a01b03811661036c5760405163d92e233d60e01b815260040160405180910390fd5b475f81900361038e57604051630686827b60e51b815260040160405180910390fd5b5f826001600160a01b0316826040515f6040518083038185875af1925050503d805f81146103d7576040519150601f19603f3d011682016040523d82523d5f602084013e6103dc565b606091505b50509050806103fe57604051631d42c86760e21b815260040160405180910390fd5b826001600160a01b03167fc303ca808382409472acbbf899c316cf439f409f6584aae22df86dfa3c9ed5048360405161043991815260200190565b60405180910390a2505050565b61044e610fa5565b6003805460ff19168215159081179091556040519081527f1a7634647460dedd674244cb847102a3790b3e6609c76df7a947a255d2c784469060200160405180910390a150565b5f61049e610fd1565b846104a881610fff565b6001600160a01b0385166104cf5760405163d92e233d60e01b815260040160405180910390fd5b5f8390036104f0576040516399d8fec960e01b815260040160405180910390fd5b5f6105528686868080601f0160208091040260200160405190810160405280939291908181526020018383808284375f920191909152507f00000000000000000000000000000000000000000000000000000000000000009250611044915050565b90505f7f00000000000000000000000000000000000000000000000000000000000000006001600160a01b03166320487ded89846040518363ffffffff1660e01b81526004016105a39291906114de565b602060405180830381865afa1580156105be573d5f5f3e3d5ffd5b505050506040513d601f19601f820116820180604052508101906105e291906115bd565b6040516370a0823160e01b815230600482015290915081906001600160a01b037f000000000000000000000000000000000000000000000000000000000000000016906370a0823190602401602060405180830381865afa158015610649573d5f5f3e3d5ffd5b505050506040513d601f19601f8201168201806040525081019061066d91906115bd565b1015610722576040516370a0823160e01b81523060048201527f00000000000000000000000000000000000000000000000000000000000000006001600160a01b0316906370a0823190602401602060405180830381865afa1580156106d5573d5f5f3e3d5ffd5b505050506040513d601f19601f820116820180604052508101906106f991906115bd565b6040516357021e8160e01b81526004810191909152602481018290526044015b60405180910390fd5b60405163095ea7b360e01b81526001600160a01b037f000000000000000000000000000000000000000000000000000000000000000081166004830152602482018390527f0000000000000000000000000000000000000000000000000000000000000000169063095ea7b3906044016020604051808303815f875af11580156107ae573d5f5f3e3d5ffd5b505050506040513d601f19601f820116820180604052508101906107d291906115d4565b506040516396f4e9f960e01b81526001600160a01b037f000000000000000000000000000000000000000000000000000000000000000016906396f4e9f990610821908b9086906004016114de565b6020604051808303815f875af115801561083d573d5f5f3e3d5ffd5b505050506040513d601f19601f8201168201806040525081019061086191906115bd565b9350866001600160a01b03168867ffffffffffffffff16857fd36445359b3c6e26c120659aef090ce0f2eb005cf9af450d11aa1225609b4f4d89897f0000000000000000000000000000000000000000000000000000000000000000876040516108ce9493929190611617565b60405180910390a450505061090260017f9b779b17422d0df92223018b32b4d1fa46e071723d6817e2486d003becc55f0055565b949350505050565b6002805461091790611646565b80601f016020809104026020016040519081016040528092919081815260200182805461094390611646565b801561098e5780601f106109655761010080835404028352916020019161098e565b820191905f5260205f20905b81548152906001019060200180831161097157829003601f168201915b505050505081565b61099e610fa5565b6109a75f6111c6565b565b5f6109b2610fd1565b846109bc81610fff565b6001600160a01b0385166109e35760405163d92e233d60e01b815260040160405180910390fd5b5f839003610a04576040516399d8fec960e01b815260040160405180910390fd5b5f610a448686868080601f0160208091040260200160405190810160405280939291908181526020018383808284375f9201829052509250611044915050565b90505f7f00000000000000000000000000000000000000000000000000000000000000006001600160a01b03166320487ded89846040518363ffffffff1660e01b8152600401610a959291906114de565b602060405180830381865afa158015610ab0573d5f5f3e3d5ffd5b505050506040513d601f19601f82011682018060405250810190610ad491906115bd565b905080341015610b0057604051636be8f03f60e01b815234600482015260248101829052604401610719565b6040516396f4e9f960e01b81526001600160a01b037f000000000000000000000000000000000000000000000000000000000000000016906396f4e9f9908390610b50908c9087906004016114de565b60206040518083038185885af1158015610b6c573d5f5f3e3d5ffd5b50505050506040513d601f19601f82011682018060405250810190610b9191906115bd565b935080341115610c09575f33610ba7833461167e565b6040515f81818185875af1925050503d805f8114610be0576040519150601f19603f3d011682016040523d82523d5f602084013e610be5565b606091505b5050905080610c0757604051633c31275160e21b815260040160405180910390fd5b505b866001600160a01b03168867ffffffffffffffff16857fd36445359b3c6e26c120659aef090ce0f2eb005cf9af450d11aa1225609b4f4d89895f876040516108ce9493929190611617565b610c5c610fa5565b6001600160a01b038116610c835760405163d92e233d60e01b815260040160405180910390fd5b6040516370a0823160e01b81523060048201525f907f00000000000000000000000000000000000000000000000000000000000000006001600160a01b0316906370a0823190602401602060405180830381865afa158015610ce7573d5f5f3e3d5ffd5b505050506040513d601f19601f82011682018060405250810190610d0b91906115bd565b9050805f03610d2d57604051630686827b60e51b815260040160405180910390fd5b610d616001600160a01b037f0000000000000000000000000000000000000000000000000000000000000000168383611215565b816001600160a01b03167fcb1436249a1dd8cf93362c28d79a4e20dc54398b6c49e30316e8396e72a584b082604051610d9c91815260200190565b60405180910390a25050565b610db0610fa5565b67ffffffffffffffff82165f81815260016020908152604091829020805460ff191685151590811790915591519182527f9e831877a5c5b0c6bf39118c59f437de0882033ff7d60a84dbc1f453584a0d119101610d9c565b5f5f610e7b8585858080601f0160208091040260200160405190810160405280939291908181526020018383808284375f920191909152505060035460ff169150610e559050575f611044565b7f0000000000000000000000000000000000000000000000000000000000000000611044565b6040516320487ded60e01b81529091506001600160a01b037f000000000000000000000000000000000000000000000000000000000000000016906320487ded90610ecc90899085906004016114de565b602060405180830381865afa158015610ee7573d5f5f3e3d5ffd5b505050506040513d601f19601f82011682018060405250810190610f0b91906115bd565b9695505050505050565b610f1d610fa5565b6002610f2a82848361170d565b507fd7693fa685e87b95e7bd6dc60982f82ce2510fe103f2b5bfa0f842c392c4f0608282604051610f5c9291906117c8565b60405180910390a15050565b610f70610fa5565b6001600160a01b038116610f9957604051631e4fbdf760e01b81525f6004820152602401610719565b610fa2816111c6565b50565b5f546001600160a01b031633146109a75760405163118cdaa760e01b8152336004820152602401610719565b610fd961124f565b60027f9b779b17422d0df92223018b32b4d1fa46e071723d6817e2486d003becc55f0055565b67ffffffffffffffff81165f9081526001602052604090205460ff16610fa257604051630a503cdb60e01b815267ffffffffffffffff82166004820152602401610719565b61107e6040518060a001604052806060815260200160608152602001606081526020015f6001600160a01b03168152602001606081525090565b6040805160a081019091526001600160a01b03851660c08201528060e081016040516020818303038152906040528152602001846040516020016110c2919061143f565b60408051601f1981840301815291905281526020015f60405190808252806020026020018201604052801561111c57816020015b604080518082019091525f80825260208201528152602001906001900390816110f65790505b508152602001836001600160a01b031681526020016002805461113e90611646565b80601f016020809104026020016040519081016040528092919081815260200182805461116a90611646565b80156111b55780601f1061118c576101008083540402835291602001916111b5565b820191905f5260205f20905b81548152906001019060200180831161119857829003601f168201915b505050505081525090509392505050565b5f80546001600160a01b038381166001600160a01b0319831681178455604051919092169283917f8be0079c531659141344cd1fd0a4f28419497f9722a3daafe3b4186f6b6457e09190a35050565b6112228383836001611291565b61124a57604051635274afe760e01b81526001600160a01b0384166004820152602401610719565b505050565b7f9b779b17422d0df92223018b32b4d1fa46e071723d6817e2486d003becc55f00546002036109a757604051633ee5aeb560e01b815260040160405180910390fd5b60405163a9059cbb60e01b5f8181526001600160a01b038616600452602485905291602083604481808b5af1925060015f511483166112e75783831516156112db573d5f823e3d81fd5b5f873b113d1516831692505b60405250949350505050565b6001600160a01b0381168114610fa2575f5ffd5b5f60208284031215611317575f5ffd5b8135611322816112f3565b9392505050565b8015158114610fa2575f5ffd5b5f60208284031215611346575f5ffd5b813561132281611329565b803567ffffffffffffffff81168114611368575f5ffd5b919050565b5f5f83601f84011261137d575f5ffd5b50813567ffffffffffffffff811115611394575f5ffd5b6020830191508360208285010111156113ab575f5ffd5b9250929050565b5f5f5f5f606085870312156113c5575f5ffd5b6113ce85611351565b935060208501356113de816112f3565b9250604085013567ffffffffffffffff8111156113f9575f5ffd5b6114058782880161136d565b95989497509550505050565b5f81518084528060208401602086015e5f602082860101526020601f19601f83011685010191505092915050565b602081525f6113226020830184611411565b5f60208284031215611461575f5ffd5b61132282611351565b5f5f6040838503121561147b575f5ffd5b61148483611351565b9150602083013561149481611329565b809150509250929050565b5f5f602083850312156114b0575f5ffd5b823567ffffffffffffffff8111156114c6575f5ffd5b6114d28582860161136d565b90969095509350505050565b67ffffffffffffffff83168152604060208201525f825160a0604084015261150960e0840182611411565b90506020840151603f198483030160608501526115268282611411565b6040860151858203603f190160808701528051808352602091820194505f93509101905b8083101561158157835180516001600160a01b0316835260209081015181840152909301926001929092019160409091019061154a565b5060608601516001600160a01b031660a08601526080860151858203603f190160c087015292506115b28184611411565b979650505050505050565b5f602082840312156115cd575f5ffd5b5051919050565b5f602082840312156115e4575f5ffd5b815161132281611329565b81835281816020850137505f828201602090810191909152601f909101601f19169091010190565b606081525f61162a6060830186886115ef565b6001600160a01b03949094166020830152506040015292915050565b600181811c9082168061165a57607f821691505b60208210810361167857634e487b7160e01b5f52602260045260245ffd5b50919050565b8181038181111561169d57634e487b7160e01b5f52601160045260245ffd5b92915050565b634e487b7160e01b5f52604160045260245ffd5b601f82111561124a578282111561124a57805f5260205f20601f840160051c60208510156116e257505f5b90810190601f840160051c035f5b81811015611705575f838201556001016116f0565b505050505050565b67ffffffffffffffff831115611725576117256116a3565b611739836117338354611646565b836116b7565b5f601f84116001811461176a575f85156117535750838201355b5f19600387901b1c1916600186901b1783556117c1565b5f83815260208120601f198716915b828110156117995786850135825560209485019460019092019101611779565b50868210156117b5575f1960f88860031b161c19848701351681555b505060018560011b0183555b5050505050565b602081525f6109026020830184866115ef56fea26469706673582212204c73008906beb4097157480ae9db39645ac891c56ab4b61ad1b74e8cbd0dc57564736f6c634300082100330000000000000000000000000bf3de8c5d3e8a2b34d2beeb17abfcebaf363a59000000000000000000000000779877a7b0d9e8603169ddbd7836e478b46247890000000000000000000000000000000000000000000000000000000000000001",
        "nonce": "0x30",
        "chainId": "0xaa36a7"
      },
      "additionalContracts": [],
      "isFixedGasLimit": false
    },
    {
      "hash": "0x9ce9c3761f4453b5c6e41cc0815287d555b088f4399edeec924afb09575ff8e8",
      "transactionType": "CALL",
      "contractName": "MessagingSender",
      "contractAddress": "0xed2bd681e7b6a60398cf148c80b450a35cdd06ab",
      "function": "allowlistDestinationChain(uint64,bool)",
      "arguments": [
        "16281711391670634445",
        "true"
      ],
      "transaction": {
        "from": "0xe2a5d3ee095de5039d42b00ddc2991bd61e48d55",
        "to": "0xed2bd681e7b6a60398cf148c80b450a35cdd06ab",
        "value": "0x0",
        "input": "0x96d3b83d000000000000000000000000000000000000000000000000e1f4423f1bf587cd0000000000000000000000000000000000000000000000000000000000000001",
        "nonce": "0x31",
        "chainId": "0xaa36a7"
      },
      "additionalContracts": [],
      "isFixedGasLimit": false
    },
    {
      "hash": "0x47e703c8e2798cb24eea3707773c76639ad68c9fd16cd33dc31dbd9c13551efd",
      "transactionType": "CALL",
      "contractName": "MessagingSender",
      "contractAddress": "0xed2bd681e7b6a60398cf148c80b450a35cdd06ab",
      "function": "allowlistDestinationChain(uint64,bool)",
      "arguments": [
        "3478487238524512106",
        "true"
      ],
      "transaction": {
        "from": "0xe2a5d3ee095de5039d42b00ddc2991bd61e48d55",
        "to": "0xed2bd681e7b6a60398cf148c80b450a35cdd06ab",
        "value": "0x0",
        "input": "0x96d3b83d000000000000000000000000000000000000000000000000304611b6affba76a0000000000000000000000000000000000000000000000000000000000000001",
        "nonce": "0x32",
        "chainId": "0xaa36a7"
      },
      "additionalContracts": [],
      "isFixedGasLimit": false
    },
    {
      "hash": "0xc4f65c9bf40034dda701c2d2e2ea6c03a006f6afd46109bdb2dbe41261af4faf",
      "transactionType": "CALL",
      "contractName": "MessagingSender",
      "contractAddress": "0xed2bd681e7b6a60398cf148c80b450a35cdd06ab",
      "function": "allowlistDestinationChain(uint64,bool)",
      "arguments": [
        "10344971235874465080",
        "true"
      ],
      "transaction": {
        "from": "0xe2a5d3ee095de5039d42b00ddc2991bd61e48d55",
        "to": "0xed2bd681e7b6a60398cf148c80b450a35cdd06ab",
        "value": "0x0",
        "input": "0x96d3b83d0000000000000000000000000000000000000000000000008f90b8876dee65380000000000000000000000000000000000000000000000000000000000000001",
        "nonce": "0x33",
        "chainId": "0xaa36a7"
      },
      "additionalContracts": [],
      "isFixedGasLimit": false
    },
    {
      "hash": "0xac50459db715013c73db413e0ff3985cc21d4dcdc6af807071332bddd4fc2c19",
      "transactionType": "CALL",
      "contractName": "MessagingSender",
      "contractAddress": "0xed2bd681e7b6a60398cf148c80b450a35cdd06ab",
      "function": "allowlistDestinationChain(uint64,bool)",
      "arguments": [
        "5224473277236331295",
        "true"
      ],
      "transaction": {
        "from": "0xe2a5d3ee095de5039d42b00ddc2991bd61e48d55",
        "to": "0xed2bd681e7b6a60398cf148c80b450a35cdd06ab",
        "value": "0x0",
        "input": "0x96d3b83d00000000000000000000000000000000000000000000000048810ec3e431431f0000000000000000000000000000000000000000000000000000000000000001",
        "nonce": "0x34",
        "chainId": "0xaa36a7"
      },
      "additionalContracts": [],
      "isFixedGasLimit": false
    },
    {
      "hash": "0x6125f2727d536d31d4cefead140dfb043abea71ad220ea75605004bd5144a219",
      "transactionType": "CALL",
      "contractName": "MessagingSender",
      "contractAddress": "0xed2bd681e7b6a60398cf148c80b450a35cdd06ab",
      "function": "updateExtraArgs(bytes)",
      "arguments": [
        "0x181dcf100000000000000000000000000000000000000000000000000000000000061a800000000000000000000000000000000000000000000000000000000000000000"
      ],
      "transaction": {
        "from": "0xe2a5d3ee095de5039d42b00ddc2991bd61e48d55",
        "to": "0xed2bd681e7b6a60398cf148c80b450a35cdd06ab",
        "value": "0x0",
        "input": "0xe12853f900000000000000000000000000000000000000000000000000000000000000200000000000000000000000000000000000000000000000000000000000000044181dcf100000000000000000000000000000000000000000000000000000000000061a80000000000000000000000000000000000000000000000000000000000000000000000000000000000000000000000000000000000000000000000000",
        "nonce": "0x35",
        "chainId": "0xaa36a7"
      },
      "additionalContracts": [],
      "isFixedGasLimit": false
    }
  ],
  "receipts": [
    {
      "status": "0x1",
      "cumulativeGasUsed": "0x235305e",
      "logs": [
        {
          "address": "0xed2bd681e7b6a60398cf148c80b450a35cdd06ab",
          "topics": [
            "0x8be0079c531659141344cd1fd0a4f28419497f9722a3daafe3b4186f6b6457e0",
            "0x0000000000000000000000000000000000000000000000000000000000000000",
            "0x000000000000000000000000e2a5d3ee095de5039d42b00ddc2991bd61e48d55"
          ],
          "data": "0x",
          "blockHash": "0xd26e8c8a2c680790e635e99c5a633c1de02003902252024cccdc86f10a21249c",
          "blockNumber": "0x9d1ba5",
          "blockTimestamp": "0x6997b078",
          "transactionHash": "0x6d493e65316a326e150b849115343759bcc3aeeebd46140da0c1a7f4cfbc179e",
          "transactionIndex": "0xe",
          "logIndex": "0x11",
          "removed": false
        }
      ],
      "logsBloom": "0x000000000000000000000000000000000000000000000000008000000000800000000000000000000000000000000000000000000000000000100000000080000000000000000000000000000000000000010000000000000000000000000000000000000a0000000000000000000800000000000000000400000000000000400000000000000000000000000000000000000010000000000000000000000000000000000000000000000000000000000000000000000000000000000000000000000000000000000000000000000000000000000000000000000000000020000000000000000000000000000000000000000000000000000000000000000000",
      "type": "0x2",
      "transactionHash": "0x6d493e65316a326e150b849115343759bcc3aeeebd46140da0c1a7f4cfbc179e",
      "transactionIndex": "0xe",
      "blockHash": "0xd26e8c8a2c680790e635e99c5a633c1de02003902252024cccdc86f10a21249c",
      "blockNumber": "0x9d1ba5",
      "gasUsed": "0x1769b5",
      "effectiveGasPrice": "0x3ec6505c",
      "from": "0xe2a5d3ee095de5039d42b00ddc2991bd61e48d55",
      "to": null,
      "contractAddress": "0xed2bd681e7b6a60398cf148c80b450a35cdd06ab"
    },
    {
      "status": "0x1",
      "cumulativeGasUsed": "0x1b82afb",
      "logs": [
        {
          "address": "0xed2bd681e7b6a60398cf148c80b450a35cdd06ab",
          "topics": [
            "0x9e831877a5c5b0c6bf39118c59f437de0882033ff7d60a84dbc1f453584a0d11",
            "0x000000000000000000000000000000000000000000000000e1f4423f1bf587cd"
          ],
          "data": "0x0000000000000000000000000000000000000000000000000000000000000001",
          "blockHash": "0x146fc1793acb18af1c06f4eb9636b176c609bb4de54ea5bb9f82f4fc4603319d",
          "blockNumber": "0x9d1ba6",
          "blockTimestamp": "0x6997b090",
          "transactionHash": "0x9ce9c3761f4453b5c6e41cc0815287d555b088f4399edeec924afb09575ff8e8",
          "transactionIndex": "0x9a",
          "logIndex": "0x19e",
          "removed": false
        }
      ],
      "logsBloom": "0x00000000000000000000000000000000000000000080000000000000000000000000000000000000000000000000000000000000000000000010000010000000000000000000000000000000000000000000000000000000000000000000000000000000080000000000000000000008000000000000000000000000000000000000000000000000000000000000000000000010000000000000000000000000000000000000000000000000000000000040000000000000000000000010000000000000000000000000000000000000000000000000000000000000000000000000000000000000000000000000000000000000000000000000000000020000",
      "type": "0x2",
      "transactionHash": "0x9ce9c3761f4453b5c6e41cc0815287d555b088f4399edeec924afb09575ff8e8",
      "transactionIndex": "0x9a",
      "blockHash": "0x146fc1793acb18af1c06f4eb9636b176c609bb4de54ea5bb9f82f4fc4603319d",
      "blockNumber": "0x9d1ba6",
      "gasUsed": "0xba58",
      "effectiveGasPrice": "0x453dc03a",
      "from": "0xe2a5d3ee095de5039d42b00ddc2991bd61e48d55",
      "to": "0xed2bd681e7b6a60398cf148c80b450a35cdd06ab",
      "contractAddress": null
    },
    {
      "status": "0x1",
      "cumulativeGasUsed": "0xad0fc3",
      "logs": [
        {
          "address": "0xed2bd681e7b6a60398cf148c80b450a35cdd06ab",
          "topics": [
            "0x9e831877a5c5b0c6bf39118c59f437de0882033ff7d60a84dbc1f453584a0d11",
            "0x000000000000000000000000000000000000000000000000304611b6affba76a"
          ],
          "data": "0x0000000000000000000000000000000000000000000000000000000000000001",
          "blockHash": "0x19adfc58d0abf62b8e55ed0ecb514285f4e6e10303620057ff39e09ccfb75d34",
          "blockNumber": "0x9d1ba7",
          "blockTimestamp": "0x6997b09c",
          "transactionHash": "0x47e703c8e2798cb24eea3707773c76639ad68c9fd16cd33dc31dbd9c13551efd",
          "transactionIndex": "0x46",
          "logIndex": "0x94",
          "removed": false
        }
      ],
      "logsBloom": "0x00000000000000000000000000000000000000000000000000000000000000000000000000000000000000000000000000000000080000000010000010000000000000000000000000000000000000000000000000000000000000000000000000000000080000000000000000000000000000000000000000000000000000000000000000000000000000000000000000000010000000000000000000000000000000000000000000000000000000000040000000000000000000000010000000000000000000000000000000000000000000000000000000000000080000000000000000000000000000000000000000000000000000000000000000200000",
      "type": "0x2",
      "transactionHash": "0x47e703c8e2798cb24eea3707773c76639ad68c9fd16cd33dc31dbd9c13551efd",
      "transactionIndex": "0x46",
      "blockHash": "0x19adfc58d0abf62b8e55ed0ecb514285f4e6e10303620057ff39e09ccfb75d34",
      "blockNumber": "0x9d1ba7",
      "gasUsed": "0xba58",
      "effectiveGasPrice": "0x4735c69e",
      "from": "0xe2a5d3ee095de5039d42b00ddc2991bd61e48d55",
      "to": "0xed2bd681e7b6a60398cf148c80b450a35cdd06ab",
      "contractAddress": null
    },
    {
      "status": "0x1",
      "cumulativeGasUsed": "0x515a6c",
      "logs": [
        {
          "address": "0xed2bd681e7b6a60398cf148c80b450a35cdd06ab",
          "topics": [
            "0x9e831877a5c5b0c6bf39118c59f437de0882033ff7d60a84dbc1f453584a0d11",
            "0x0000000000000000000000000000000000000000000000008f90b8876dee6538"
          ],
          "data": "0x0000000000000000000000000000000000000000000000000000000000000001",
          "blockHash": "0x7994c43ba6a4af8fc275a57e5b2317983d6b60d7f5f470ce2b369765964e2edf",
          "blockNumber": "0x9d1ba8",
          "blockTimestamp": "0x6997b0a8",
          "transactionHash": "0xc4f65c9bf40034dda701c2d2e2ea6c03a006f6afd46109bdb2dbe41261af4faf",
          "transactionIndex": "0x37",
          "logIndex": "0xa6",
          "removed": false
        }
      ],
      "logsBloom": "0x00000000000000000000000000000000000000000000000000000000000000000000000000000000000000000000000000000000000000000010000010000000000000000000000000000000000000000000000400000000000000000000200000000000080000000000000000000000000000000000000000000000000000004000000000000000000000000000000000000010000000000000000000000000000000000000000000000000000000000040000000000000000000000010000000000000000000000000000000000000000000000000000000000000000000000000000000000000000000000000000000000000000000000000000000000000",
      "type": "0x2",
      "transactionHash": "0xc4f65c9bf40034dda701c2d2e2ea6c03a006f6afd46109bdb2dbe41261af4faf",
      "transactionIndex": "0x37",
      "blockHash": "0x7994c43ba6a4af8fc275a57e5b2317983d6b60d7f5f470ce2b369765964e2edf",
      "blockNumber": "0x9d1ba8",
      "gasUsed": "0xba58",
      "effectiveGasPrice": "0x4c49f196",
      "from": "0xe2a5d3ee095de5039d42b00ddc2991bd61e48d55",
      "to": "0xed2bd681e7b6a60398cf148c80b450a35cdd06ab",
      "contractAddress": null
    },
    {
      "status": "0x1",
      "cumulativeGasUsed": "0x953d04",
      "logs": [
        {
          "address": "0xed2bd681e7b6a60398cf148c80b450a35cdd06ab",
          "topics": [
            "0x9e831877a5c5b0c6bf39118c59f437de0882033ff7d60a84dbc1f453584a0d11",
            "0x00000000000000000000000000000000000000000000000048810ec3e431431f"
          ],
          "data": "0x0000000000000000000000000000000000000000000000000000000000000001",
          "blockHash": "0xda42a8f48099da91a3daf5621dfbde3aeb8f04a42fe0961f97c2f80683aaaea2",
          "blockNumber": "0x9d1ba9",
          "blockTimestamp": "0x6997b0b4",
          "transactionHash": "0xac50459db715013c73db413e0ff3985cc21d4dcdc6af807071332bddd4fc2c19",
          "transactionIndex": "0x4a",
          "logIndex": "0xa9",
          "removed": false
        }
      ],
      "logsBloom": "0x00000000000000000000000000100000000000000000000000000000000000000000000000000000000000000000000000000000000000000010000010000000000000000000000000000000000000000000000000000000000000000000000000000000080000000000000000000000000000000000000000000000000000000000000000000000000000000000000000000010000000000000000000000000000000000000000000000000000000000040000000000000000000000010000000000000080000000000000000000000000000000000000000000000000000000000000000000000000000000000000000000000000000020000000000000000",
      "type": "0x2",
      "transactionHash": "0xac50459db715013c73db413e0ff3985cc21d4dcdc6af807071332bddd4fc2c19",
      "transactionIndex": "0x4a",
      "blockHash": "0xda42a8f48099da91a3daf5621dfbde3aeb8f04a42fe0961f97c2f80683aaaea2",
      "blockNumber": "0x9d1ba9",
      "gasUsed": "0xba58",
      "effectiveGasPrice": "0x4b238509",
      "from": "0xe2a5d3ee095de5039d42b00ddc2991bd61e48d55",
      "to": "0xed2bd681e7b6a60398cf148c80b450a35cdd06ab",
      "contractAddress": null
    },
    {
      "status": "0x1",
      "cumulativeGasUsed": "0x190107b",
      "logs": [
        {
          "address": "0xed2bd681e7b6a60398cf148c80b450a35cdd06ab",
          "topics": [
            "0xd7693fa685e87b95e7bd6dc60982f82ce2510fe103f2b5bfa0f842c392c4f060"
          ],
          "data": "0x00000000000000000000000000000000000000000000000000000000000000200000000000000000000000000000000000000000000000000000000000000044181dcf100000000000000000000000000000000000000000000000000000000000061a80000000000000000000000000000000000000000000000000000000000000000000000000000000000000000000000000000000000000000000000000",
          "blockHash": "0x4b994dce5c46550e9d28272161ab8c76b85df346027ed843d44bf7e1216d0cf9",
          "blockNumber": "0x9d1baa",
          "blockTimestamp": "0x6997b0c0",
          "transactionHash": "0x6125f2727d536d31d4cefead140dfb043abea71ad220ea75605004bd5144a219",
          "transactionIndex": "0x5d",
          "logIndex": "0x132",
          "removed": false
        }
      ],
      "logsBloom": "0x00000000000000000000000000000000000000000000000000000000000000000000000000000000000000000000000000000000000000000010000000000000000000000000000000000000000000000000000000000000000000010000000000000000080000000000000000000000000000000000000000000000000000000000000000000000000000000000000000000010000000000000000000000000000000000000000000000000000000000000000000000000000000000000000000000000002000000000000000000000000000000000000000000000000000000000000000000000000000000000000000000000000000000000000000010000",
      "type": "0x2",
      "transactionHash": "0x6125f2727d536d31d4cefead140dfb043abea71ad220ea75605004bd5144a219",
      "transactionIndex": "0x5d",
      "blockHash": "0x4b994dce5c46550e9d28272161ab8c76b85df346027ed843d44bf7e1216d0cf9",
      "blockNumber": "0x9d1baa",
      "gasUsed": "0x985d",
      "effectiveGasPrice": "0x4b04e41c",
      "from": "0xe2a5d3ee095de5039d42b00ddc2991bd61e48d55",
      "to": "0xed2bd681e7b6a60398cf148c80b450a35cdd06ab",
      "contractAddress": null
    }
  ],
  "libraries": [],
  "pending": [],
  "returns": {
    "senderContract": {
      "internal_type": "contract MessagingSender",
      "value": "0xED2Bd681E7b6A60398cF148c80b450A35CdD06Ab"
    }
  },
  "timestamp": 1771548866845,
  "chain": 11155111,
  "commit": "0cf5e62"
}